:1068000000180020596C0000A16C0000A16C000071
:106810000000000000000000000000000000000078
:10682000000000000000000000000000A16C00005B
:106830000000000000000000A16C0000A16C00003E
:10684000A16C0000A16C0000A16C0000A16C000014
:10685000A16C0000A16C0000A16C0000A16C000004
:10686000A16C0000A16C0000A16C0000A16C0000F4
:10687000A16C0000A16C0000A16C0000A16C0000E4
:10688000A16C0000A16C0000A16C0000A16C0000D4
:10689000A16C0000A16C0000A16C0000A16C0000C4
:1068A000A16C0000A16C0000A16C0000A16C0000B4
:1068B000A16C0000A16C0000A16C0000A16C0000A4
:106C0000FFFFFFFFFFFFFFFFFFFFFFFFFEFFFFFF95
:106C100010B5064C2378002B07D1054B002B02D072
:106C2000044800E000BF0123237010BD00040020D1
:106C3000000000001C900000044B10B5002B03D096
:106C40000349044800E000BF10BDC046000000003A
:106C5000040400201C90000072B601F053FA62B6E2
:106C60000A490B4A0B4B9B1A03DD043BC858D05012
:106C7000FBDC0949094A521A03DD00208850043A16
:106C8000FCDA01F073FC01F09FFA00004490000070
:106C90000004002000040020000400202004002044
:106CA00000B5C04600BDC046002243088B4274D3E5
:106CB00003098B425FD3030A8B4244D3030B8B42FD
:106CC00028D3030C8B420DD3FF22090212BA030C06
:106CD0008B4202D31212090265D0030B8B4219D3E7
:106CE00000E0090AC30B8B4201D3CB03C01A524107
:106CF000830B8B4201D38B03C01A5241430B8B424F
:106D000001D34B03C01A5241030B8B4201D30B0337
:106D1000C01A5241C30A8B4201D3CB02C01A52415E
:106D2000830A8B4201D38B02C01A5241430A8B4221
:106D300001D34B02C01A5241030A8B4201D30B020A
:106D4000C01A5241CDD2C3098B4201D3CB01C01A24
:106D5000524183098B4201D38B01C01A524143092E
:106D60008B4201D34B01C01A524103098B4201D31C
:106D70000B01C01A5241C3088B4201D3CB00C01A89
:106D8000524183088B4201D38B00C01A5241430801
:106D90008B4201D34B00C01A5241411A00D2014626
:106DA000524110467047FFE701B5002000F0F0F8AF
:106DB00002BDC0460029F7D076E7704703460B4373
:106DC0007FD4002243088B4274D303098B425FD3E4
:106DD000030A8B4244D3030B8B4228D3030C8B4210
:106DE0000DD3FF22090212BA030C8B4202D31212F6
:106DF000090265D0030B8B4219D300E0090AC30BCB
:106E00008B4201D3CB03C01A5241830B8B4201D377
:106E10008B03C01A5241430B8B4201D34B03C01A60
:106E20005241030B8B4201D30B03C01A5241C30AD8
:106E30008B4201D3CB02C01A5241830A8B4201D349
:106E40008B02C01A5241430A8B4201D34B02C01A33
:106E50005241030A8B4201D30B02C01A5241CDD2D8
:106E6000C3098B4201D3CB01C01A524183098B4223
:106E700001D38B01C01A524143098B4201D34B010C
:106E8000C01A524103098B4201D30B01C01A52416F
:106E9000C3088B4201D3CB00C01A524183088B42F6
:106EA00001D38B00C01A524143088B4201D34B00DF
:106EB000C01A5241411A00D2014652411046704751
:106EC0005DE0CA0F00D04942031000D34042534056
:106ED00000229C4603098B422DD3030A8B4212D316
:106EE000FC22890112BA030A8B420CD38901921148
:106EF0008B4208D3890192118B4204D389013AD085
:106F0000921100E08909C3098B4201D3CB01C01A59
:106F1000524183098B4201D38B01C01A524143096C
:106F20008B4201D34B01C01A524103098B4201D35A
:106F30000B01C01A5241C3088B4201D3CB00C01AC7
:106F4000524183088B4201D38B00C01A5241D9D2DF
:106F500043088B4201D34B00C01A5241411A00D260
:106F60000146634652415B10104601D34042002B5C
:106F700000D54942704763465B1000D3404201B5DB
:106F8000002000F005F802BD0029F8D016E7704790
:106F90007047C0468446101C62468C46191C6346E6
:106FA00000E0C0461FB500F0F1F9002801D400212F
:106FB000C8421FBD10B500F049F94042013010BD74
:106FC00010B500F0E3F9002801DB002010BD01201E
:106FD00010BDC04610B500F0D9F9002801DD002031
:106FE00010BD012010BDC04610B500F06BF900289F
:106FF00001DC002010BD012010BDC04610B500F01E
:1070000061F9002801DA002010BD012010BDC04642
:10701000002B11D1002A0FD1002900D1002802D065
:107020000021C943081C07B4024802A1401802907D
:1070300003BDC0465DFFFFFF03B4684601B502987B
:1070400000F042F8019B9E4602B00CBC7047C0465F
:1070500070B500220C4B04000D00FFF7CFFF002895
:1070600004D12000290000F0B3FF70BD064B0022C0
:107070002000290000F064FC00F0AAFF80231B061A
:107080009C466044F1E7C0460000E04170B5002234
:107090000B4B0D00040000F0E1F9FFF7D9FF0600EB
:1070A00000F0CCFF0022074B00F0D8F902000B00E3
:1070B0002000290000F044FCFFF7CAFF310070BD3A
:1070C0000000F03D0000F041F0B54F464646D64680
:1070D000C0B5040082B00D00914698468B422FD86F
:1070E0002CD04146484600F0F9FF29000600200058
:1070F00000F0F4FF331A9C46203B9A4600D576E018
:107100004B46524693401F004B46624693401E003A
:10711000AF4228D825D05346A41BBD41002B00DA2E
:107120007BE000220023009201930123524693400A
:107130000193012362469340009318E08242D0D924
:1071400000220023009201930A9B002B01D01C60B7
:107150005D600098019902B01CBC90469946A24619
:10716000F0BDA342D7D900220023009201936346C9
:10717000002BE9D0FB079846414672080A437B087A
:1071800066460EE0AB4201D1A2420CD8A41A9D4142
:10719000012024196D410021013E24184D41002E8B
:1071A00006D0AB42EED9013E24196D41002EF8D134
:1071B00000980199534600196941002B23DB2B00ED
:1071C0005246D3402A006446E2401C005346150054
:1071D000002B2DDB26005746BE40330026006746B5
:1071E000BE403200801A994100900191ACE762469E
:1071F00020239B1A4A46DA406146130042468A40E1
:1072000017001F4380E7624620239B1A2A00664628
:107210009A402300F3401343D4E762462023002121
:107220009B1A0022009101920122DA40019280E72C
:107230002023624626009B1ADE402F00B046664699
:10724000B74046463B003343C8E7C046F0B54F461B
:107250004646D6468446C0B58046194E18030F03ED
:107260004D00000B5C0082463F0B6D0DC90F91462F
:10727000640DDB0F0120B5420AD0B44203D0A54211
:1072800001D157450CD01CBC90469946A246F0BD92
:1072900066463E43F7D1AC42F5D154461443F2D191
:1072A0000120C845EFD1994207D0002DEBD16346AC
:1072B0001F433800471EB841E5E70020E3E7C0461A
:1072C000FF070000F0B54F464646D6464D00C0B514
:1072D0000E03C90F8A462C491F035C008046360BFB
:1072E0006D0D91463F0B640DDB0F8D421ED08C421D
:1072F00016D0002D1ED130438446002C01D13A43D4
:1073000023D06246002A1AD09A4529D0514602203D
:107310000139084001381CBC90469946A246F0BD90
:1073200039001143E5D002204042F4E73043FAD15E
:10733000AC420FD0002C0FD13A43E7D00CE0012231
:10734000013B934318000130E5E763460020002B22
:10735000E1D0DBE73A43E6D19A45D7D1A542D5DC67
:10736000A54205DBBE42D1D808D00020BE42D2D211
:1073700050460123013898430130CCE7C845C5D8B1
:107380000020C845F4D3C6E7FF070000F0B54F461C
:107390004646D6464D00C0B50E03C90F8A462E4953
:1073A0001F035C008046360B6D0D91463F0B640D4C
:1073B000DB0F8D4218D08C4211D0002D18D13043F4
:1073C0008446002C1ED13A431CD163460020002B7A
:1073D00030D0514602200139084001382AE03900F6
:1073E0001143EAD0022025E03043FBD1AC4226D045
:1073F000002C26D13A4324D15146022001390840BD
:10740000013817E06246002A0FD09A45E1D1A54223
:1074100005DBBE42DDD819D00020BE420AD250465C
:10742000012301389843013004E00122013B9343DA
:10743000180001301CBC90469946A246F0BD3A4364
:10744000D0D19A45C5D1A542C3DCE0E7C845C0D834
:107450000020C845E3D3EDE7FF070000F0B557462D
:10746000DE464E464546E0B5834606000F0348001B
:1074700087B092461D003F0B400DCC0F002800D175
:107480006FE0DE4B984238D08023FF001B041F437F
:10749000730F3B430193DA4B0027994600239B4629
:1074A000F60081442B0369001B0B52469846490D98
:1074B000ED0F002900D185E0D04B994200D173E057
:1074C0004346DA0080231B0413435246CC48520F34
:1074D00084461343524600206144D200894421006F
:1074E000694000918C46012149448A460F2F00D9FA
:1074F00090E0C449BF00CF59BF465B463B43019370
:1075000000D06AE102230827002681469B46C9E78E
:1075100032005846019B61460091022800D175E077
:10752000032800D1FEE1012800D02CE10023002730
:10753000002600253F032A0D3F0BB34812053A43AE
:1075400002401B051343009A5B00D1075B080B4305
:107550003000190007B03CBC90469946A246AB46A5
:10756000F0BD5B463B43019300D12FE1002F00D1DA
:10757000A5E1380000F094FD03000B3B1C2B00DD5F
:1075800096E11D22D31A5A460100DA405E460839B8
:107590008F4013008E403B4301939C4B00271B1AE6
:1075A000994600239B467DE7414653460B4393494A
:1075B0008C46E144002B00D01AE10222022017433E
:1075C00000228CE7134300D10DE14346002B00D18C
:1075D00081E1404600F064FD02000B3A1C2A00DD08
:1075E00072E10100434608398B4098461D239A1AE0
:1075F0005346D3401A004346134352468A404946F5
:10760000081A824989468144002068E77B4B00279D
:1076100000268EE7140C1204120C1100370C3604ED
:10762000350C794328008C462E0060436044834625
:1076300056432100300C804658467943404402911D
:10764000844506D98846802149028C46E04441465B
:1076500002913604010C360C00048B4681191E0C75
:107660001B041B0C0391190079438C4628007543B9
:107670006544A8465843050C45447743A94203D9BD
:10768000802149028C466744290C8C46390000044D
:10769000000C2D042D186144AB440591594604910A
:1076A00001990F043F0C080C3900514342439046A6
:1076B00002008C46090C8B4662437C4344445C4484
:1076C000A04503D98021490288464244210C8846BE
:1076D00061460904090C8C46390059434343704301
:1076E0007E430F0CF6182404BE19644442448C46B1
:1076F000B34203D980235B0298464044029B614613
:107700009846049B370443449B46AB45AD416B42CE
:107710000D0405992D0C8C467F196744FD18A84669
:107720005D462D19A542A44193466442A446C34434
:10773000DC448F42BF4198459B4193459241A4450B
:10774000A4415B427F421F43360C52426442BF1940
:107750002243BF18624638184302D20D03991343DF
:107760006A020A43501E82416146ED0D2A434E02D1
:107770003243D90100D4B3E001265008324002431D
:10778000DE0732435B08224C5444002C62DD510773
:1077900009D00F201040042805D0101D90429241BE
:1077A00052429B180200D90104D580241948E400F4
:1077B000034054441848844200DD27E75E075B021B
:1077C000D2081F0B630516435B0DB2E600239946F2
:1077D0000133042700269B4664E603230197814674
:1077E0000C279B465EE6012201201743002276E625
:1077F000032303201F43434671E6C046FF070000F2
:1078000001FCFFFF888E0000FFFF0F800DFCFFFFD3
:10781000FF030000FFFFFFFEFE070000002380279C
:1078200000933F030026434B83E6019B3200A446AE
:10783000584670E6AC466EE6802701993F03394210
:107840002DD03B422BD11F433F033F0B0095160029
:10785000384B6EE601252D1B382D00DD66E61F2D09
:1078600040DC35481C005044160082408440EE4005
:10787000501E824134431443EB40620709D00F226B
:107880002240042A05D02200141D94428041404227
:107890001B181A023ED501230027002649E680273F
:1078A000019B3F031F433F033F0B0094214B40E6E6
:1078B00003005A46283B9A40002601926DE658463E
:1078C00000F0EEFB203057E603005246283B9A407A
:1078D0001300002293E6504600F0E2FB20307BE6E6
:1078E000CA4650E71F201E004042041BE640202DE0
:1078F00003D0124C5444A3401A43501E82413243D9
:1079000007260027164009D00F200023104014003E
:107910000428B9D122005E075B021F0BD208164370
:10792000002306E680273F031F433F033F0B16005B
:10793000004BFEE5FF0700001E0400003E040000AF
:10794000F8B557464E464546DE460C000903E0B5FD
:10795000490A460F5F0031431E03DB0F760A9B4640
:10796000530F3343C84E6500C000E40FD2006D0DC5
:10797000A24681467F0D9C469046B74200D1B9E0B1
:107980005B46012673409B46EE1BA34500D183E076
:10799000002E63DD002F00D0B1E06346134300D119
:1079A00023E1731E002B00D0BAE1861A6346B04271
:1079B00080410125C91A4042091A0B0200D447E14F
:1079C00049024B0A98464346002B00D189E14046C4
:1079D00000F066FB0300083B1F2B00DD7CE120224A
:1079E0003000D21A4146D040994002009E400A43DE
:1079F0009D4200DD6AE15D1B6B1C1F2B00DD94E1E5
:107A0000202110003500C91A8E40DA408840DD4040
:107A1000711E8E4111000722284300250643324083
:107A2000002A09D00F233340042B05D0331DB34265
:107A3000B641764289191E000B0200D43DE26A1C51
:107A4000914B55056D0D9A4200D119E18F4AF60808
:107A50000A40570752023743120B9BE0002E00D01A
:107A6000C5E06E1C7605760D012E00DC48E1674608
:107A7000861ACB1BB042BF417F42B8461F00434627
:107A8000FF1A3B00B8461B0200D55FE137439AD18D
:107A900000220024002579E0002E00DCFAE0002F0F
:107AA00000D18DE0784B9D4267D0802367461B0450
:107AB0001F43BC46382E00DC52E1634613435A1E76
:107AC00093411E1886428041404209180B0200D49F
:107AD000BEE06D4B01359D4200D1D2E06B4A730888
:107AE0000A4001210E401E435108D30707221E43BE
:107AF000324095E71E00164300D045E740E7624B51
:107B00009D423AD0802367461B041F43BC46382E53
:107B100000DDEBE01F2E00DC3AE133006746203B3E
:107B2000DF403B00202E05D04027BF1B6646BE40ED
:107B3000324390464646721E96413343DAE0002BAC
:107B400000D114E26346134300D168E180234E075D
:107B5000C008C9081B030643194208D06046C00884
:107B6000184204D163460100D2085E071643F300B1
:107B70009946C900720F444D11434B46DE08424BF3
:107B80004F073743CA089D4200D16EE012036D05CE
:107B9000120B6D0D00211203130B0A0D12051A436F
:107BA0003B4B2D0513402B435B00E4075B0823434D
:107BB000380019003CBC90469946A246AB46F8BD39
:107BC0006346134311D0731E002B00D007E18618C3
:107BD0008642804161444042091801250B0237D595
:107BE00002257BE73E00614691463500C5E75C46CD
:107BF000002D00D0E1E00B000343F3D0731C00D153
:107C0000ACE1214B9F4200D13AE1F343382B00DD38
:107C10006FE11F2B00DD8CE120250E00ED1AAE4038
:107C2000B0460600AA46DE40454635432E0055467E
:107C3000D940A8406346451EA8415B1A9C46304384
:107C4000161AB242924163465242991A3D00B4E676
:107C500007223240002A00D0E4E60B4BF6084F071B
:107C60003743CA089D4200D090E73B00134300D140
:107C7000A6E180231B031A431203120B024D89E76E
:107C800015000022002785E7FF070000FFFF7FFFA8
:107C9000FFFF0F80002E00D0C7E06B1C5E05760D45
:107CA000012E00DCF0E0C84DAB4200D1B9E08518F0
:107CB0000A00854289416244494251180722CE0791
:107CC0006D082E43490832401D00A9E6BF49ED1A50
:107CD000114007223240A3E63200283882400026B5
:107CE00086E6300000F0DCF9203073E6634613438B
:107CF0005A1E9341C61AB04280414042091A5CE6BE
:107D00000E00674606431743002D5ED1002E00D0BB
:107D1000F3E0002F00D11EE15C46614691462CE75E
:107D2000A94FBE427BD01E00F1E610001F3DE84087
:107D3000202B03D04021CB1A9A401643731E9E413C
:107D40000722064332400021002583E7161A6346C6
:107D5000B2428041591A40420B1A98465C4632E6BC
:107D60001F2E00DDABE02027BB1B9A46634657461B
:107D7000BB40994613004F46F3401F433B00574614
:107D8000BA40571EBA4113436246F240891898E63A
:107D90002027BB1B9A4663465746BB4099461300B3
:107DA0004F46F3401F433B005746BA40571EBA4167
:107DB00013436246F240891A9CE7834B9F425FD08F
:107DC00080252D047342294320E7002E0CD1002F7B
:107DD00000D1D0E05C46614691467B4DCDE67A4FBE
:107DE000BE421CD01E0065E6002F18D0C0084E070A
:107DF00006438020C9080003014208D06346DC081E
:107E0000044204D12100DA46D2085E071643F3008B
:107E1000994601245346C900720F11431C406A4D14
:107E2000ABE61D0000220027B4E6002D59D10B005F
:107E3000034300D1D6E6731C00D1B2E0624B9F42EF
:107E40001ED0F343382B6FDC1F2B00DD97E020257D
:107E50000E00ED1AAE40B0460600AA46DE4045468A
:107E600035432E005546A840D940451EA8418C44B4
:107E70000643B61896429241514261443D0025E6C0
:107E80003D006146914678E60B000343002D00D08B
:107E900055E6002BF5D06346134300D16DE68618F6
:107EA0008642804161444042091800220B0200D4FE
:107EB000D0E6464B01351940B2E5B1465DE63300E8
:107EC0006746203BDF403B00202E05D04027BF1BEC
:107ED0006646BE40324390464646721E9641334344
:107EE000EFE5394B9F42CBD080252D0473422943C7
:107EF000A8E70843411E8841A2E6002F00D13CE6D6
:107F00006346861ACF1AB0429B415B42FB1A9846E1
:107F10001B024ED5161A6346B2429241591A52427A
:107F2000891A5C4600227BE501430E00711E8E41DA
:107F30009FE71D000E00203DEE40B046202B04D0F0
:107F40004025EB1A99400843814648464346411E66
:107F50008841184374E60022002417E6161A634687
:107F6000B2429241591A5242891A3D0025E56146B2
:107F70009146154D01E680220024120379E61D008A
:107F80000E00203DEE40B046202B04D04025EB1AD9
:107F90009940084381464E464346711E8E411E431A
:107FA00067E7861896429B4161445B42C9183D00D1
:107FB0008CE547463743CED007224146324049E65A
:107FC00000273A00E6E5C046FF070000FFFF7FFFFD
:107FD00030B5144D0A034B00120B5B0DC90F002482
:107FE000AB4211DD104CA34210DC80246403224319
:107FF0000E4CE41A1F2C0CDD0D48C31ADA40130096
:108000005C42002900D11C00200030BD094BCC1877
:10801000FAE7094DE040AC4663449A40130003433D
:10802000EEE7C046FE0300001D040000330400001C
:1080300013040000FFFFFF7FEDFBFFFF10B5041EE0
:1080400025D000F02DF8144B1B1A5B055B0D0A2898
:1080500012DD0B38844000222403240B0021100081
:1080600024030A0D240B120522430C4C1B0522404D
:1080700013435B00590810BD0200210015329140E6
:108080000A000B21081AC4402403240BE6E700234E
:1080900000240022E2E7C0461E040000FFFF0F801C
:1080A0001C2101231B04984201D3000C10391B0A28
:1080B000984201D3000A08391B09984201D30009EC
:1080C000043902A2105C40187047C0460403020243
:1080D00001010101000000000000000010B50029AE
:1080E00003D1FFF7DDFF203002E0081CFFF7D8FFC7
:1080F00010BDC0460023C25C0133002AFBD1581ECC
:1081000070470000264B274AC02189029950264912
:1081100058588022920002435A50244B9B781B07E8
:1081200004D5224A937808210B4393701C4B1D4AB7
:108130008021490299501E4A99581E480140995081
:1081400019681D480140196099581C480840802151
:108150004904014399501A4B06221A705A7840215B
:108160000A405A70D97849B21F2211407F3A0A4317
:10817000D2B2DA70002213490A701A715A71104B88
:108180009B79DB06FBD50E4B9A790C231A42FAD168
:108190000349054A8858F8239B0103438B507047D5
:1081A00000700440441000003810000000D0074068
:1081B00004100000FFFFFCFFFFFFF3FFFFFFFFFCC9
:1081C000004006400050064030B583B072B600F063
:1081D000C3F901220121052000F038F90122012113
:1081E0000C2000F033F9012201210D2000F02EF9BE
:1081F0008025AD0001220021280000F027F9334C32
:1082000001220021200000F021F90021280000F0C7
:1082100071F90021200000F06DF962B60BE0012138
:108220000D2000F0F1F80121052000F0EDF800210B
:108230000C2000F0E9F88020800000F043F96B4644
:108240005C1D5871214800F03DF96B469871227809
:1082500052009B791343DBB26A46D41DD371D179A6
:10826000C9B21B4800F0ECFD2378DBB2022B13D01F
:10827000032B1ED0012BD2D001210D2000F0C4F819
:1082800001210C2000F0C0F80121052000F0BCF80D
:10829000104800F0D5FDCEE701210D2000F0B4F824
:1082A00001210C2000F0B0F80021052000F0ACF80E
:1082B000C1E70121052000F0A7F801210C2000F002
:1082C000A3F800210D2000F09FF8B4E701020000A0
:1082D000C88E0000D48E000010B500F0C3FD10BDA4
:1082E00000238B4206D28202D25CFF2A05D10133E1
:1082F0009BB2F6E70120C0B270470020FBE7000008
:108300000F4B30221A70EFF31083002B12D172B68C
:108310002F3A0B4B80211970094B1B785BB2002B55
:10832000FADA012A08D0064B1A7831231A4205D10D
:10833000002070470022ECE762B6F4E70120F8E77E
:108340000000024010B58402164B0922DA71820443
:10835000120E9A718006000E5871E2B21A71FFF780
:10836000CFFF01281BD0104B9C4201D9002010BD2B
:108370000C4B0622DA7100229A7104325A710832CB
:108380001A71F332DA729A725A72013A1A72FFF75C
:10839000B7FF012801D00020E9E70130E7E701201D
:1083A000E5E7C04600000240FF030000F8B50F00FB
:1083B0001400124B0622DA7105000026B74218D9C4
:1083C0002A02120E0D4B9A712A04120E5A71EAB249
:1083D0001A71E278DA72A2789A7262785A72227806
:1083E0001A72FFF78DFF012805D0043604350434D6
:1083F000E4E70020F8BD0220FCE7C0460000024090
:10840000030A0B701070704730B583B00D006B46D7
:10841000DC1D9A1D2100FFF7F3FF23789B000A4A19
:108420009B58012D08D01A6869468879012181403E
:108430008A431A6003B030BD1A6869468879012101
:1084400081400A431A60F5E7DC8E0000F0B585B084
:1084500004000F00019202AB9E1DDD1D32002900B9
:10846000FFF7CEFF2A789200134BD3581349505888
:1084700032789200D158124D2940D1503278920072
:10848000D658802149003143D150012F08D043698B
:1084900002AA917901228A409343436105B0F0BD5D
:1084A000436902AA917901228A40134343610199E9
:1084B0002000FFF7A9FFF1E7F08E0000DC8E00003E
:1084C000FFF8FFFF30B583B06B469C1DDD1D220019
:1084D0002900FFF795FF2B789B00054A9B581869E8
:1084E0002378D84003000120184003B030BDC046B7
:1084F000DC8E000070B582B00D006B469C1DDE1D49
:1085000022003100FFF77CFF33789B00114A9B5813
:1085100022789200D15840208143D1502278920095
:10852000D1583E380143D150012D09D06A46063258
:1085300012789200D15801208143D15002B070BD11
:108540006A46063212789200D15801380143D15060
:10855000F4E7C046F08E00000349882252018B5890
:108560000C2083438B5070470070044080B51D4F32
:10857000BD4418213F20FFF7B3FE00282BD18022F5
:10858000D021D200C90102A8FFF7A6FE78231B68FC
:10859000209A9A4210D01A20FFF7D4FE08231B68B5
:1085A000049378231B68019320938021D02002AA92
:1085B000C900C001FFF7FAFE0B4BD022D2019A602E
:1085C0000A4BE02292011A60094800F039FC81232D
:1085D000DB009D4480BDFC20064A18210002FFF705
:1085E000E5FECCE7F8FBFFFF00ED00E01C040020F7
:1085F000208F0000048F0000022801D8012070475E
:108600000020FCE770B505000C00431E9B00114ADA
:108610009E58FFF7F1FF002816D0002304E03279BE
:1086200052B2002A11DB01330B4A934208D8002DC5
:10863000F5D10A4A127952B2002AF4DA074AD47103
:10864000054A934203D8012070BDF471F8E7002079
:10865000FAE7C0464C8F0000BAFB000000A00640BD
:1086600010B50C001368012B05D0022B07D023682E
:108670000133236010BD536840B29847F7E7936811
:108680001870936801339360F1E7F0B583B016007A
:108690001D00471C00230370002A1FD00C68002C0B
:1086A00001D000260BE0303343700126300003B0C8
:1086B000F0BD3023591A397001360137019C002C66
:1086C000F4D029002000FEF779FB0190290020005A
:1086D000FEF75AFC0029ECDB3031ECE70C68002C8B
:1086E00008D1302343700126E0E737343C7001366F
:1086F00001370400002CD9D029002000FEF7D4FA5D
:1087000003006B43E41A092CEFD83034EEE7F8B5D8
:1087100004000D0017001E0005E032003900302073
:10872000FFF79EFF0134AC42F7DBF8BDF8B504005B
:108730000D0017001E0005E0320039002020FFF771
:108740008FFF0134AC42F7DBF8BD10B5C1B2022097
:10875000FFF758FF10BD0000F0B5D6464F4680B574
:108760009BB00400894615001422002115A800F0D2
:1087700082FB4C22002102A800F07DFB266867687E
:1087800030003900FEF764FC8246FFF757FC020018
:108790000B0030003900FFF7D3F806000F00002D62
:1087A0000ED14B4A4B4BFEF759FEFEF76FFC04000F
:1087B0000191002515E00022474BFEF74FFE2500F2
:1087C0006C1E002DF7D1FEF761FC04000191F0E76B
:1087D0000022414B30003900FEF740FE06000F003A
:1087E000013500223D4B30003900FEF7E9FB00283F
:1087F000EED16F1E5346002B21D130334A46137001
:108800002F3B9A4653465D1C2E234A4651465354ED
:10881000019B234323D0002639E0751C0A215046D2
:10882000FEF7C8FAB60015ABF1500A215046FEF724
:108830003BFA82462E005346002BEED10CE0002678
:10884000F9E7013EB20015ABD35830334A465146E2
:10885000535401239C46E244002EF2D1D2E7303338
:10886000535501352AE00A22002320000199FEF722
:10887000CFFB731C9A46B60002ABF2500A220023CB
:1088800020000199FEF7C4FB040001915646019BAC
:108890002343E8D105E0B300002202A95A50013F6A
:1088A0000136002FF7D107E0013EB30002AA9B5822
:1088B00030334A4653550135002EF5D14B465B19EE
:1088C00000221A7028001BB00CBC91469A46F0BDDD
:1088D00000A0D88557347643000024400000F03FC4
:1088E000F0B5DE4657464E464546E0B595B0009099
:1088F0000D0090460BAC21220021200000F0BBFAB5
:108900003023237000230A930133019300239A46F6
:108910000BE0009C22000AA90D20FFF7A1FE220017
:108920000AA90A20FFF79CFE0135002028560028DE
:1089300000D17CE2252822D00A28EAD0009A0AA990
:10894000FFF78EFEF0E701231E43050000291BD12F
:10895000681C0123EB56203BDAB2102A12D8930090
:10896000BE4AD3589F4602231E43EEE704231E430C
:10897000EBE708231E43E8E710231E43E5E7002644
:108980000021E3E70121E1E7002400231F0000E0CC
:108990000F00002F0ED1681C0123EB561A00303A4D
:1089A000D2B2092AF4D8A20012195400303BE418BC
:1089B0000500EEE7BB466F1C0123EB562E2B19D0AA
:1089C0000023994601936B1C0122AA56682A04D001
:1089D0006C2A27D04C2A2AD02B005D1C0120185667
:1089E0000300583BDAB2202A00D918E293009C4ACF
:1089F000D3589F460023002000E0584600280ED19F
:108A00007D1C0122BA5611003039C9B20929F4D8A7
:108A10009900C9184B00303A9B182F00EEE7994691
:108A20003D00D0E70122514611438A46D5E7022294
:108A3000514611438A46D0E74346043302934346E6
:108A40001B6809930A23012209A90BA8FFF71DFE41
:108A500081460BAF4F44099B002B07DBB30719D5A9
:108A600001239C46E1442A33984604E001239C46B6
:108A7000E1442C33984633071CD54346002B13D1D1
:108A8000009B0AAA21004846FFF741FEA146029B2F
:108A9000984662E1042333409846ECD001239C467B
:108AA000E1441F339846E6E7009A0AA94046FFF7DB
:108AB000D7FDE5E7F30705D54346002B16D1029B0A
:108AC00098464AE1009B0AAA21004846FFF72EFE7D
:108AD0004346002B02D1029B98463EE1009A0AA928
:108AE0004046FFF7BDFD029B984636E1009A0AA971
:108AF0004046FFF7B5FD029B98462EE10C23434408
:108B00009B46434659689F6802910A003B000692C3
:108B100007930022002302983900FEF751FA00283B
:108B200006D1B30724D40427374008D0202706E015
:108B3000029A802109067B18069207932D27019B34
:108B4000002B17D15346002B1BD108220BA906A8D6
:108B5000FFF702FE0290330720D5002F18D1009BAB
:108B60000AAA21000298FFF7D2FD02940BAF32E06F
:108B70002B27E4E74A460BA906A8FFF7EDFD029074
:108B8000E9E74A460BA906A8FFF7E6FD0290E2E7EF
:108B9000009A0AA93800FFF763FDE0E7F30707D55D
:108BA000002FE3D0009A0AA93800FFF759FDDDE74E
:108BB000009B0AAA21000298FFF7B8FD002FD5D02C
:108BC000009A0AA93800FFF74BFDCFE70137009A5A
:108BD0000AA9FFF745FD002038560028F6D1F30713
:108BE00001D4D846A0E6009B0AAA21000298FFF70C
:108BF0009DFDD84698E643460433029343461B68DE
:108C000005931023002205A90BA8FFF73EFD81461E
:108C10000BAF4F4408233340984623D010233340F2
:108C200098460FD1009B0AAA21004846FFF76FFD26
:108C3000A146F30600D49EE04346002B30D0029BB1
:108C400098468AE0009A0AA93020FFF709FD009AA9
:108C50000AA97820FFF704FDD846E3E7548F000007
:108C6000988F0000F307E4D410233340984602D0D5
:108C700002239C46E144009B0AAA21004846FFF7D4
:108C800055FD4346002BD4D0009A0AA93020FFF7A7
:108C9000E7FC009A0AA97820FFF7E2FCD846C8E76B
:108CA000009A0AA93020FFF7DBFC009A0AA9782075
:108CB000FFF7D6FC02239C46E144029B98464CE019
:108CC00043461F1D1B6805930823002205A90BA816
:108CD000FFF7DBFC8146B8460BAF4F4433072FD478
:108CE000F3073AD4009B0AAA21004846FFF71EFD6D
:108CF00033E043461F1D1B6805930223002205A98C
:108D00000BA8FFF7C2FC8146B846E5E743461F1DA6
:108D10001B6805931023002205A90BA8FFF7B5FCDB
:108D20008146B846D8E743461F1D1B6805930A23B2
:108D3000002205A90BA8FFF7A8FC8146B846CBE79F
:108D4000009B0AAA21004846FFF7E1FCA14604E087
:108D5000013F009A0AA9FFF783FC0020385600283B
:108D6000F6D1F30700D4DFE5009B0AAA21004846AC
:108D7000FFF7DCFCD8E5029B9846EEE743461C1D56
:108D800000201856009A0AA9FFF76AFCA046CBE516
:108D900043460433029343461F68002F44D03800F3
:108DA000FFF7A8F9039001231E4013D04B46002B78
:108DB0001BD00020385600281BD04B46002BF8DD76
:108DC00001235B429C46E1440137009A0AA9FFF760
:108DD00047FCEEE7009B0AAA2100FFF7A7FCE5E7A6
:108DE0000137009A0AA9FFF73BFC002038560028FB
:108DF000F6D1002E02D1029B984695E5009B0AAA67
:108E000021000398FFF792FC029B98468CE54346AD
:108E10001B680A9A1A6004239C46E04484E5009A81
:108E20000AA9FFF71DFC7FE5029B98467CE50A989E
:108E300015B03CBC90469946A246AB46F0BDC04634
:108E40000FB400B585B001230193054B029306AA28
:108E500002CA01A8FFF744FD05B008BC04B01847DA
:108E60004B870000002310B59A4200D110BDCC5CA6
:108E7000C4540133F8E703001218934200D170473D
:108E800019700133F9E70000147600001675000030
:108E90001675000034780000107500001075000091
:108EA0001C78000034780000107500001C78000069
:108EB00010750000347800002A7800002A7800003D
:108EC0002A780000387800000A666C61673A20252D
:108ED0006400000064656661756C740000F00F400A
:108EE00040F00F4080F00F40C0F00F4000F10F4005
:108EF0000090044000A0044000B0044000C00440C2
:108F000000D00440303132333435363738394142BD
:108F100043444546323032303037313600000000AD
:108F20002020A1BE55736572CCE1CABEA1BFA3BA11
:108F3000BDABBDF8C8EB55736572B5C46D61696EA4
:108F40002829D6B4D0D02E2E2E0D0A0000B006400F
:108F500000C006406C8900008489000084890000FC
:108F600078890000848900008489000084890000D9
:108F700084890000848900008489000084890000BD
:108F80006689000084890000468900008489000009
:108F90008489000072890000F68B00001E8E00009C
:108FA0001E8E00001E8E00001E8E00001E8E000011
:108FB0001E8E00001E8E00001E8E00001E8E000001
:108FC000F28C00007C8D0000388A00001E8E0000AC
:108FD000FC8A00001E8E00001E8E0000388A0000F1
:108FE0001E8E00001E8E00001E8E00001E8E0000D1
:108FF0000E8E0000C08C00000C8D00001E8E000044
:109000001E8E0000908D00001E8E0000268D000038
:109010001E8E00001E8E0000F68B0000F8B5C046C4
:10902000F8BC08BC9E467047F8B5C046F8BC08BC02
:049030009E467047A1
:0890340094E0FF7F0100000041
:04903C00396C00008B
:04904000116C0000AF
:0400000300006C5934
:00000001FF
