:1068000000180020596C0000A16C0000A16C000071
:106810000000000000000000000000000000000078
:10682000000000000000000000000000A16C00005B
:106830000000000000000000A16C0000A16C00003E
:10684000A16C0000A16C0000A16C0000A16C000014
:10685000A16C0000A16C0000A16C0000A16C000004
:10686000A16C0000A16C0000A16C0000A16C0000F4
:1068700091870000A16C0000A16C0000A16C0000D9
:10688000A16C0000A16C0000A16C0000A16C0000D4
:10689000A16C0000A16C0000A16C0000A16C0000C4
:1068A000A16C0000A16C0000A16C0000A16C0000B4
:1068B000A16C0000A16C0000A16C0000A16C0000A4
:106C0000FFFFFFFFFFFFFFFFFFFFFFFFFEFFFFFF95
:106C100010B5064C2378002B07D1054B002B02D072
:106C2000044800E000BF0123237010BD08040020C9
:106C300000000000A0910000044B10B5002B03D011
:106C40000349044800E000BF10BDC046000000003A
:106C50000C040020A091000072B601F0ABFA62B6FD
:106C60000A490B4A0B4B9B1A03DD043BC858D05012
:106C7000FBDC0949094A521A03DD00208850043A16
:106C8000FCDA01F003FC01F0F9FA0000C891000001
:106C9000000400200804002008040020280400202C
:106CA00000B5C04600BDC046002243088B4274D3E5
:106CB00003098B425FD3030A8B4244D3030B8B42FD
:106CC00028D3030C8B420DD3FF22090212BA030C06
:106CD0008B4202D31212090265D0030B8B4219D3E7
:106CE00000E0090AC30B8B4201D3CB03C01A524107
:106CF000830B8B4201D38B03C01A5241430B8B424F
:106D000001D34B03C01A5241030B8B4201D30B0337
:106D1000C01A5241C30A8B4201D3CB02C01A52415E
:106D2000830A8B4201D38B02C01A5241430A8B4221
:106D300001D34B02C01A5241030A8B4201D30B020A
:106D4000C01A5241CDD2C3098B4201D3CB01C01A24
:106D5000524183098B4201D38B01C01A524143092E
:106D60008B4201D34B01C01A524103098B4201D31C
:106D70000B01C01A5241C3088B4201D3CB00C01A89
:106D8000524183088B4201D38B00C01A5241430801
:106D90008B4201D34B00C01A5241411A00D2014626
:106DA000524110467047FFE701B5002000F0F0F8AF
:106DB00002BDC0460029F7D076E7704703460B4373
:106DC0007FD4002243088B4274D303098B425FD3E4
:106DD000030A8B4244D3030B8B4228D3030C8B4210
:106DE0000DD3FF22090212BA030C8B4202D31212F6
:106DF000090265D0030B8B4219D300E0090AC30BCB
:106E00008B4201D3CB03C01A5241830B8B4201D377
:106E10008B03C01A5241430B8B4201D34B03C01A60
:106E20005241030B8B4201D30B03C01A5241C30AD8
:106E30008B4201D3CB02C01A5241830A8B4201D349
:106E40008B02C01A5241430A8B4201D34B02C01A33
:106E50005241030A8B4201D30B02C01A5241CDD2D8
:106E6000C3098B4201D3CB01C01A524183098B4223
:106E700001D38B01C01A524143098B4201D34B010C
:106E8000C01A524103098B4201D30B01C01A52416F
:106E9000C3088B4201D3CB00C01A524183088B42F6
:106EA00001D38B00C01A524143088B4201D34B00DF
:106EB000C01A5241411A00D2014652411046704751
:106EC0005DE0CA0F00D04942031000D34042534056
:106ED00000229C4603098B422DD3030A8B4212D316
:106EE000FC22890112BA030A8B420CD38901921148
:106EF0008B4208D3890192118B4204D389013AD085
:106F0000921100E08909C3098B4201D3CB01C01A59
:106F1000524183098B4201D38B01C01A524143096C
:106F20008B4201D34B01C01A524103098B4201D35A
:106F30000B01C01A5241C3088B4201D3CB00C01AC7
:106F4000524183088B4201D38B00C01A5241D9D2DF
:106F500043088B4201D34B00C01A5241411A00D260
:106F60000146634652415B10104601D34042002B5C
:106F700000D54942704763465B1000D3404201B5DB
:106F8000002000F005F802BD0029F8D016E7704790
:106F90007047C0468446101C62468C46191C6346E6
:106FA00000E0C0461FB500F009FA002801D4002116
:106FB000C8421FBD10B500F053F94042013010BD6A
:106FC00010B500F0FBF9002801DB002010BD012006
:106FD00010BDC04610B500F0F1F9002801DD002019
:106FE00010BD012010BDC04610B500F075F9002895
:106FF00001DC002010BD012010BDC04610B500F01E
:107000006BF9002801DA002010BD012010BDC04638
:10701000002B11D1002A0FD1002900D1002802D065
:107020000021C943081C07B4024802A1401802907D
:1070300003BDC0465DFFFFFF03B4684601B502987B
:1070400000F042F8019B9E4602B00CBC7047C0465F
:1070500070B500220C4B04000D00FFF7CFFF002895
:1070600004D12000290001F017F870BD064B002262
:107070002000290000F07EFC01F00EF880231B06A2
:107080009C466044F1E7C0460000E04170B5002234
:107090000B4B0D00040000F001FAFFF7D9FF0600CA
:1070A00001F030F80022074B00F0F8F902000B0065
:1070B0002000290000F05EFCFFF7CAFF310070BD20
:1070C0000000F03D0000F041F0B557464E46454601
:1070D000DE46E0B504000D009246994683B08B422F
:1070E00030D82DD04946504601F050F8290006000E
:1070F000200001F04BF8331A9846203B9B4633D4CE
:107100005A465346934042461F00534693401E0042
:10711000AF423AD8AF4200D178E05B46A41BBD41F4
:10712000002B00DA75E00022002300920193012376
:107130005A4693400193012342469340009328E02E
:107140008242CFD900220023009201930C9B002B96
:1071500001D01C605D600098019903B0F0BCBB4693
:10716000B246A946A046F0BD424620239B1A52468D
:10717000DA40414613004A468A40170042461F4300
:10718000534693401E00AF42C4D900220023009210
:1071900001934346002BD9D0FB0772081A43464699
:1071A0007B080EE0AB4201D1A2420CD8A41A9D414B
:1071B000012024196D410021013E24184D41002E6B
:1071C00006D0AB42EED9013E24196D41002EF8D114
:1071D000009801995B4600196941002B24DB2B00C4
:1071E0005A464446D3402A00E2401C005B46150044
:1071F000002B2ADB26009E40330026004746BE4077
:107200003200801A9941009001919FE7A342BCD8B7
:1072100083E74246202300219B1A0022009101921D
:107220000122DA40019286E7424620239B1A2A0077
:1072300046469A402300F340444613432A00E24066
:107240001C005B461500002BD4DA42462F00202399
:10725000260097409B1ADE403B003343CDE7C046F3
:10726000F0B54F464646D646944691461A03120B51
:10727000184DC0B54C000F0392465A0006008046D8
:107280003F0B0120640DC90F520DDB0FAC420AD039
:10729000AA4203D0944201D157450DD0E0BCBA4672
:1072A000B146A846F0BD3D003543F7D1A242F5D125
:1072B000524665462A43F1D10120C845EED1994294
:1072C00006D0002CEAD13E433000461EB041E5E72F
:1072D0000020E3E7FF070000F0B54E46454657465D
:1072E000DE4604001800E0B516001B031B0B324DF0
:1072F0000F034A0099464300A446B0463F0B520D87
:10730000C90F5B0DC00FAA4229D0AB4218D0002A8A
:107310002AD13C43A34665426541002B02D14C462D
:10732000264327D0002D15D1814228D002200139D3
:1073300008400138F0BCBB46B246A946A046F0BDA5
:107340004D462E432FD1002AEED13C436542654184
:10735000002DE9D00028EDD101204042EAE73D00B0
:10736000254320D19342EBD0002BDDD14C46264360
:10737000DAD1DBE75B460020002BDBD0D6E79A4270
:107380000ADCE7DB4F45D1D810D000204F45D1D2E1
:107390000029E1D00800CDE7434258410223404292
:1073A00018400138C6E702204042C3E7C445BDD8B3
:1073B0000020C445BED2EBE7FF070000F0B54E4603
:1073C00045465746DE4604001800E0B516001B038C
:1073D0001B0B314D0F034A0099464300A446B046AB
:1073E0003F0B520DC90F5B0DC00FAA4211D0AB422B
:1073F00014D0002A2FD13C43A34665426541002B9F
:1074000014D14C46264311D15B460020002B17D0E7
:1074100010E03D00254312D193421CD14D462E432E
:107420000DD1002A04D13C4365426541002D0DD1A8
:10743000814216D0022001390840013800E00220C4
:10744000F0BCBB46B246A946A046F0BD0028F7D125
:1074500001204042F4E7002BEAD14C462643E7D115
:10746000E8E79A4206DD4342584102234042184071
:107470000138E5E79A42E9DB4F45DBD806D000202A
:107480004F45DDD20029E3D00800D9E7C445D1D863
:107490000020C445D4D2F5E7FF070000F0B55746F9
:1074A0004E464546DE46E0B598460C034B000600C6
:1074B000924687B0240B5B0DCF0F002B6CD0DD4ABA
:1074C000934200D186E0420FE4001443802212046C
:1074D0001443D94AC5009446634400930023994657
:1074E0009B46434642461E03D20F5B0050469046E1
:1074F000360B5B0D00D178E0CE4A93421DD0CE49C9
:10750000420F8C4600996344F6008C461643802255
:107510009C44120463461643C20000200093009965
:10752000434601318C4649467B4001930F2900D9DF
:107530007EE0C24B890059588F465246009B324329
:1075400000D056E1BB4900268C466344494600936F
:107550000223194389460220E1E7434601933400A0
:10756000150083465B46022B5ED0032B00D1F3E16E
:10757000012B00D018E1002200240025019B1205F8
:107580002243DB071A432800110007B0F0BCBB46BA
:10759000B246A946A046F0BD2500054300D141E111
:1075A000002C00D1ADE1200000F0D2FD010002006E
:1075B0000B391D2310005B1A310035000838844058
:1075C000D94085400C439E48831A00930023994676
:1075D0009B4686E70500254300D01CE10822009366
:1075E0000223002491469B467BE75246324300D15A
:1075F0000AE1002E00D176E1300000F0A9FD020082
:107600000B3A1D2301009B1A52460839DA408E407E
:10761000164352468A40009B8949181A03008C463B
:107620006344002000937AE700240025814AA5E7FF
:107630002F0C2D042D0C2B00110C1204120C534393
:107640009846130028007B439946484348448346A4
:1076500040460B00000C824658467B435044029340
:10766000814506D99A4680235B029946CA4453460F
:107670000293030C9B4643461B0400041B0C9846D4
:10768000030043440493330C99462B003604360C14
:107690007343984633007B439A464B465D435F43B2
:1076A00043465544180C4019824503D980235B0298
:1076B0009A465744050CEB19059343461D042D0CBF
:1076C00000044019250C2404240C270057436A4366
:1076D00090462A003B0C9A464A4361434144514438
:1076E0008344884503D980235B02984642443F0483
:1076F0000B0C3F0C0904C919270098464B467743E9
:107700005C436E435D433B0C9946A4194C44424490
:107710000395A64204D980235B029846454403950D
:10772000029B3F045B441E00834280412304984631
:10773000059B3F0C4744984676188E428941474442
:1077400040423D18A846934649428A46C3449F4258
:10775000BF4180458041039BDA44984653464042EE
:107760007F420743240C934592418A4589413F1942
:10777000DC0D049B75021D43681E85415346524231
:1077800049420A43BF184744F60D7F0235435A0267
:107790003C431543FB0100D4C1E001216A080D40C0
:1077A0001543E2071543640826496144002956DD64
:1077B0006B0709D00F222A40042A05D02A1DAA42AD
:1077C000AD416D4264191500E30104D580211E4AC4
:1077D000C900144061441D4A914200DD24E762075C
:1077E000ED08640249051543240B4A0DC6E60197CE
:1077F000B8E6104A0320944663444A4600930323A4
:107800001A43914652468AE649460123194389465E
:107810000026012083E60C220093032305009146F5
:107820009B465EE60423994600230093013300241F
:107830009B4656E6FF07000001FCFFFF209000007A
:107840000DFCFFFFFF030000FFFFFFFEFE0700002F
:10785000002380240025444A019324038EE601205E
:10786000401A382800DD86E61F285BDD1F22230032
:107870005242511ACB401900202803D03B4A62449F
:10788000944025436A1E95412A000A4307210D00B2
:107890000024154011425BD00F210024114004291F
:1078A00053D0111D914292415242A4180A00230262
:1078B0004BD501220024002560E680231B031C42D7
:1078C00009D01E4207D133431C0343461500240B45
:1078D000254A019352E68022120314432403224ACC
:1078E000240B01974AE600F033FC03001A0015321E
:1078F00020301C2A00DC84E65646083B00229E40CD
:1079000089E600F025FC01000200153120321C2917
:1079100000DC4EE6340008380025844053E6009B26
:107920009C4641E71249220061442E008D408A4066
:10793000C640691E8D4132432A43C4405307B6D026
:107940000F2111400429ACD1B1E765076402240B73
:10795000D2081543002211E68022120314432403A7
:10796000014A240B0AE6C046FF0700003E0400005F
:107970001E040000F8B557464E464546DE46040054
:10798000E0B51F0010000B03620F4E00CD0F5B0A25
:1079900039031343490AE200440F2143C24C914684
:1079A0009246C0007A008046760D520DFF0FA2422B
:1079B00000D1B4E001246740BB46BD4200D188E05D
:1079C000B41AA446002C00DCB2E0002A00D1C5E0C5
:1079D000B54A964200D18BE28022120411436246DE
:1079E000382A00DDA1E11F2A00DD16E220270C0065
:1079F000BF1ABC400200A0466446B840E24044467C
:107A000014430200501E82416046C14022435B1A6B
:107A100049468C1AA145924152429B1A98464346C8
:107A20001B0200D417E143465B025B0A98464346BB
:107A3000002B00D16CE1404600F08AFB0200083ABE
:107A4000202120004346891A9340C84094400343B4
:107A5000964200DD57E1961B711C1F2900DDCBE12A
:107A6000202218002600521A94409040CE40CB406D
:107A7000621E94413043984600260443630709D0B0
:107A80000F232340042B05D0231DA342A4416442AD
:107A9000A0441C0043461B0200D4DFE0824B0136A9
:107AA0009E4200D1FBE04246804BE4081A4013009E
:107AB000710552075B0222431B0B490D0905ED07B7
:107AC000194329431000F0BCBB46B246A946A04664
:107AD000F8BDB41AA446002C58DD002A00D19EE05F
:107AE000714A964200D13BE1802212041143624662
:107AF000382A00DDC1E01F2A00DCBBE10C00203A7F
:107B0000D44022006446202C04D040273F1BB940BB
:107B1000084380464446611E8C411443B1E00C008A
:107B200004432AD0BB46BD422DD0614CA446B44488
:107B30006446002C5CD0941BA446002E00D015E1B6
:107B40004D461D4300D1C3E1651E012C00D10CE25E
:107B5000554EB44200D1F8E1AC460EE10A000243B2
:107B600000D136E12200013A012C00D1C6E14E4C91
:107B7000A44500D1F4E0944631E701246740BB46B8
:107B8000BD4200D01CE74A4CA446B4446446002CD5
:107B900000D1CFE0941BA446002E00D15CE1424E00
:107BA000B24200D1ECE18026360433436446382CDF
:107BB00000DDB3E11F2C00DD38E22026361B1C005F
:107BC000B4404F46A0466446E74044463C434F46D7
:107BD000B7403E00771EBE4134436646F340C918A5
:107BE000241884429B415B429846160088444EE02C
:107BF000304A741C144200D0D6E04A461A43002E84
:107C000000D05BE1002A00D1A5E10A00024300D0C8
:107C1000BBE14A465907D2080A43DB0827E00A00BD
:107C2000024300D174E12200013A012C05D01E4C20
:107C3000A44500D194E0944659E748444845924110
:107C40005B189846040052429044434602261B02A9
:107C500000D5C4E0013E630700D011E74346B446B7
:107C60005907E2080A43DB080F498C4540D06146BA
:107C70001B0349051B0B490D20E701430C00611E46
:107C80008C414C444C459241524290469844434664
:107C90001B02E0D5044B01369E4200D09FE031002C
:107CA000002300220AE7C046FF070000FFFF7FFF16
:107CB00001F8FFFFFE070000002A00D160E10A0082
:107CC00002434DD04A465C07D20822438024DB0899
:107CD0002403234207D0CE08264204D15D46330058
:107CE000C20849070A43510FD200D20849070A4384
:107CF0001100194300D1C8E1802109030B431B0384
:107D0000D5491B0BDAE6D549B61A0B409846B5E6BD
:107D1000200000F01DFA020018321F2A00DC8FE656
:107D2000230008388340002492E608430200501ED6
:107D300082416DE6CA4C721C224200D0ADE04A4638
:107D40001A43002EB8D1002A00D158E10A0002439C
:107D500000D059E14A465907D2080A43DB0886E7B2
:107D60004A465907D2080A43DB08C1E7BA4DAA427E
:107D700000D11EE180252D042B436446382C5DDCA8
:107D80001F2C00DDD0E0202567462D1B4E461C0031
:107D9000FE40AC4034434E46AE403500FB406E1EC4
:107DA000B541C91A2C434EE04A46141AA1459241E6
:107DB000524290465F1A3A004746D21B9046120242
:107DC00000D58BE04246224300D030E60023002558
:107DD0004DE74A465907D2080A43DB0844E74246C2
:107DE0009E4B61081A401300012214400C43DA072D
:107DF0005B089846144341E61A001F3EF240160005
:107E0000202903D04022511A8B401C43621E94410A
:107E100000233443984600261DE70C00203AD44046
:107E200022006446202C04D040273F1BB940084361
:107E300080464446611E8C412243E9E54C4623437B
:107E40001C00631E9C41041BA0429B415B42CB1A59
:107E500098465D461600E2E54E461E4300D1AEE070
:107E6000661E012C00D1FDE07B4FBC4200D107E132
:107E7000B4469BE664462022121B0C009440070087
:107E80009040A0466446421E90416246E740444608
:107E9000D1403C4304435B18F3E66F4CA24200D14F
:107EA000D5E048445B184845894149425B18DC07E6
:107EB00040085B08984616000443CCE6002A00D030
:107EC00082E00A00024340D1802300251B0313E710
:107ED0004B07C2081A435D46CB08C5E64A46841ADA
:107EE000A0429241CB1A52429B1A98465D469EE5AB
:107EF0004A465907D2080A43DB08F9E64A46141AEB
:107F0000A14592415B1A52429B1A9846012686E58A
:107F10004A465907D2080A43DB08A5E64C462343E4
:107F20001C00631E9C415BE665461E00203DEE4042
:107F3000202C05D040252D1BAB404C461C43A246AF
:107F40005446631E9C4134437DE74B07C2081A43E5
:107F50005D46CB08CCE60A00024300D136E74B076A
:107F6000C2081A435D46CB0881E64A46841AA042FD
:107F70009241CB1A52429B1A98465D4601264EE525
:107F80004B07C2081A43CB08B2E64A46141AA14569
:107F900092415F1A5242BA1A904612026BD54A4673
:107FA000841AA0429241CB1A52429B1A98465D46CF
:107FB00064E54B07C2081A435D46CB0898E64B07B9
:107FC000C2081A43CB084FE60A00024390D04A4643
:107FD0005C07D20814438022DB081203134208D046
:107FE000CE08164205D1C0084907084304005D4683
:107FF0003300610FE2004907D2080A4378E64B07D5
:10800000C2081A43CB0832E648445B1848459241FF
:10801000984652429044434604001B0200D41AE69C
:1080200042460E4B01261A40904614E666461F0053
:10803000203EF740202C05D04026361BB3404C464E
:108040001C43A2465446631E9C413C43C8E51100B4
:108050000023002232E5C046FF070000FFFF7FFF3C
:10806000FE0700004A461418844292415B18984665
:1080700052429044E9E54246224300D1A6E6EAE5B1
:108080004B07C2081A43CB0832E60022014913000D
:1080900014E5C046FF0700000A0030B5134C53003A
:1080A00009030500090B00205B0DD20FA34204DD7C
:1080B0000F48834202DD0F4BD01830BD80204003B3
:1080C00001430D48C01A1F2808DD0C48C31AD940C7
:1080D0000B005842002AF0D11800EEE7084CC540CA
:1080E000A446634499400B002B43F2E7FE030000D3
:1080F0001D040000FFFFFF7F330400001304000095
:10810000EDFBFFFF10B5041E10D000F021F80F4B5F
:108110001B1A0A2811DC0B222100121AD14015303B
:108120000A035B058440120B5B0D01E00023002273
:108130001B0513432000190010BD22000B3882409C
:108140005B0512030024120B5B0DF1E71E04000017
:108150001C2101231B04984201D3000C10391B0A77
:10816000984201D3000A08391B09984201D300093B
:10817000043902A2105C40187047C0460403020292
:1081800001010101000000000000000010B50029FD
:1081900003D1FFF7DDFF203002E0081CFFF7D8FF16
:1081A00010BDC0460023C25C0133002AFBD1581E1B
:1081B00070470000274B284AC0218902995027495F
:1081C00058588022920002435A50254B9B781B0737
:1081D00005D5234A937808210B43DBB293701D4BDE
:1081E0001D4A8021490299501E4A99581E48014053
:1081F000995019681D480140196099581C48084059
:1082000080214904014399501A4B06221A705A786A
:1082100040210A405A70D97849B21F2211407F3A52
:108220000A43D2B2DA70002213490A701A715A71E5
:10823000104B9B79DB06FBD50E4B9A790C231A4227
:10824000FAD10449054A8858F8239B0103438B500F
:108250007047C04600700440441000003810000011
:1082600000D0074004100000FFFFFCFFFFFFF3FFFA
:10827000FFFFFFFC004006400050064010B572B6FC
:10828000012201210D2000F0C3F8E1214902002064
:1082900000F04AF9002000F051FA62B6002010BD4B
:1082A00010B500F0ABFE10BD00238B4206D2820257
:1082B000D25CFF2A05D101339BB2F6E70120C0B2A0
:1082C00070470020FBE700000F4B30221A70EFF3DD
:1082D0001083002B12D172B62F3A0B4B80211970EC
:1082E000094B1B785BB2002BFADA012A08D0064B47
:1082F0001A7831231A4205D1002070470022ECE79A
:1083000062B6F4E70120F8E70000024010B58402ED
:10831000164B0922DA718204120E9A718006000E41
:10832000587100221A71FFF7CFFF01281AD080235D
:10833000DB009C4201D3002010BD0C4B0622DA71F9
:1083400000229A7104325A7108321A71F332DA72C9
:108350009A725A72013A1A72FFF7B6FF012803D0D7
:108360000020E9E70120E7E70220E5E700000240FE
:10837000F8B50F001400124B0622DA710500002632
:10838000B74218D92A02120E0D4B9A712A04120E06
:108390005A71EAB21A71E278DA72A2789A72627845
:1083A0005A7222781A72FFF78FFF012805D004361F
:1083B00004350434E4E70020F8BD0220FCE7C046A1
:1083C00000000240030A0B701070704730B583B094
:1083D0000C006B46DD1D9A1D2900FFF7F3FF2B787B
:1083E0009B000A4A9B58012C08D01A686946887974
:1083F000012181408A431A6003B030BD1A68694682
:108400008879012181400A431A60F5E760900000F5
:10841000F0B583B006000F0015006B46DC1D9A1DF9
:108420002100FFF7CFFF22789200154BD358154952
:1084300050586A4692799200D158134C2140D1503D
:108440006A469479A400E158802252000A43E2501F
:10845000012F08D043696A46917901228A409343EB
:10846000436103B0F0BD43696A46917901228A40B5
:108470001343436129003000FFF7A8FFF1E7C0462E
:108480007490000060900000FFF8FFFF80B51E4F61
:10849000BD4418213F20FFF707FF00281AD1802292
:1084A000D021D200C90102A8FFF7FAFE78231B6889
:1084B000209A9A4215D1154BD022D2019A60144BC2
:1084C000E02292011A60134800F086FD8123DB0050
:1084D0009D4480BDFC20104A18210002FFF748FF90
:1084E000DDE71A20FFF712FF08231B6804937823A7
:1084F0001B68019320938021D02002AAC900C001EB
:10850000FFF736FFD7E7C046F8FBFFFF00ED00E0BE
:1085100024040020A490000088900000022801D9C3
:10852000002070470120FCE770B504000D00FFF744
:10853000F5FF002848D0002C47D1464A464BD0587A
:108540008021C9040143D150D15844480140D15041
:108550004349086D8023DB0018430865486D1843C4
:10856000486540495058034353503F4CE3780C2230
:108570009343E37029013D4B1868FEF795FB237880
:108580001F22934302121F210A4013432370C0B2DB
:1085900060700F23A3720023A370A3712372637210
:1085A00023791F221343DBB22371637940225242A5
:1085B0001343DBB26371E378BF321340E370E378B7
:1085C0000C221343DBB2E37070BD012C27D0022CC8
:1085D00032D0013CA400264BE458E3780C229343AC
:1085E000E370224B186840082901FEF75DFB2378F1
:1085F0001F22934302121F210A4013432370C0B26B
:1086000060700023A370A3716371E3787F2213402D
:10861000E370E3780C221343DBB2E370D4E7104B32
:10862000C02292001A605A600A490E4A8858802374
:108630001B0103438B50CCE7094BC02292001A6404
:108640005A640449074A885880235B0103438B50CE
:10865000BFE7C0460070044004100000FFFFFEFFAB
:1086600000D004403410000000A0064000040020A8
:10867000D090000070B505000C00431E9B00114A0D
:108680009E58FFF74BFF002816D0002304E03279F4
:1086900052B2002A11DB01330B4A934208D8002D55
:1086A000F5D10A4A127952B2002AF4DA074AD47193
:1086B000054A934203D9002070BDF471F8E7012008
:1086C000FAE7C046D0900000BAFB000000A00640C8
:1086D00070B504000E00431E9B00154A9D58FFF71D
:1086E0001DFF002801D0002306E00023337014E0B2
:1086F0002A79920612D401330E4A93420AD8002CEA
:10870000F6D10D4A12799206F5D50B4AD079C0B24E
:1087100001223270074A934205D870BDE879C0B291
:1087200001223270F6E700233370FF20F5E7C046E0
:10873000D0900000BAFB000000A0064070B5040015
:10874000431E9B000E4A9D58FFF7E8FE00280FD0FD
:10875000002C0ED10B4AD37820210B43DBB2D3700F
:10876000094B1B5D1F221A4001239340074A1360E7
:1087700070BDEB7820221343DBB2EB70F0E7C0460C
:10878000D090000000A006400404002000E100E0BA
:1087900030B583B072B66B46DD1D29000020FFF7AF
:1087A00097FF04002B78002B09D030280AD0002135
:1087B0000D20FFF70BFE21000020FFF75BFF62B6E4
:1087C00003B030BD01210D20FFF700FEF3E710B527
:1087D0000C001368012B05D0022B07D0236801334E
:1087E000236010BD536840B29847F7E7936818704C
:1087F000936801339360F1E7F0B583B017001E0072
:10880000451C00230370002A1DD00F68002F01D0E3
:10881000002409E03033437001242EE03023591A3C
:10882000297001340135019F002F26D03100380016
:10883000FEF7C4FA019031003800FEF7A5FB0029CD
:10884000ECDB3031ECE70C68002C08D130234370AE
:10885000013412E037342C70013701350400002C4C
:108860000AD031002000FEF71FFA03007343E41A18
:10887000092CEFD83034EEE73C00200003B0F0BD07
:10888000F8B504000D0017001E00AC4206DA3200F5
:1088900039003020FFF79BFF0134F6E7F8BDF8B54B
:1088A00004000D0017001E00AC4206DA3200390049
:1088B0002020FFF78CFF0134F6E7F8BD10B5C1B2F8
:1088C0000220FFF7D7FE10BDF0B5D6464F4646460C
:1088D000C0B598B00400884616001422002113A8E1
:1088E00000F095FB4C220021684600F090FB656883
:1088F000246820002900FEF7ABFB8146FFF702FC4D
:1089000002000B0020002900FFF734F804000D00DE
:10891000002E0AD1514A524BFEF7C0FDFEF7B6FBBE
:1089200006000F0000239A4618E0771E002E05D09F
:1089300000224C4BFEF7B2FD3E00F6E7FEF7A6FB29
:1089400006000F00EEE70022464B20002900FEF74C
:10895000A5FD04000D0001239C46E2440022424B89
:1089600020002900FEF72CFB0028ECD15546013DE4
:108970004B46002B32D13033424613702F3B994681
:1089800001234B449A462E23424649465354330012
:108990003B4333D13033514653542E3B4B449A46DC
:1089A0004146514400230B70504618B0E0BCBA4613
:1089B000B146A846F0BD631C9A460A214846FEF718
:1089C000F9F9A40013AB19510A214846FEF76CF9D6
:1089D000814654464B46002BEDD10CE00024F9E7CC
:1089E000013CA20013ABD35830334246494653549E
:1089F00001239C46E144002CF2D1C1E7002433005E
:108A00003B431AD00A22002330003900FEF700FB56
:108A1000631C9946A4006B461A510A2200233000B9
:108A20003900FEF7F5FA06000F004C46E7E7A30011
:108A3000002269465A50013D0134002DF7D1002C27
:108A4000AED0013CA3006A469B58303342465146A3
:108A5000535401239C46E244F1E7C04600A0D88568
:108A600057347643000024400000F03FF0B5DE4666
:108A700057464E464546E0B595B082460C000092FA
:108A800030230B931D2200210CA800F0C0FA002314
:108A90000A93013302930023019304E052460AA98A
:108AA000FFF795FE013400202056002800D18AE20D
:108AB000252828D00A28F1D152460AA90D20FFF70F
:108AC00086FE52460AA90A20FFF781FEEAE7012343
:108AD0001E430C0000281BD1611C0123E356203BE0
:108AE000DAB2102A12D89300C04AD3589F46022304
:108AF0001E43EEE704231E43EBE708231E43E8E78B
:108B000010231E43E5E700260020E3E70120E1E70C
:108B10000025002700E00700002F0DD1611C012275
:108B2000A2561300303B092BF5D8AB005D196D0040
:108B3000303AAD180C00EFE7621C0123E3562E2BF0
:108B400019D0002398460293621C0123E356682B38
:108B500004D06C2B2BD04C2B2ED02200541C012087
:108B600010560300583BDAB2202A00D924E29300C1
:108B70009F4AD3589F4600230020AC4605001900A9
:108B800000E03D00002D0ED1501C0124145723009D
:108B9000303B092BF5D88B005B185B002100303986
:108BA00059180200EEE7654688461400CCE7012319
:108BB000019919430191D1E70223019919430191C8
:108BC000CCE7009F08CF09930A23012209A90BA82B
:108BD000FFF712FE81460BAB4B449846099B002BD6
:108BE00007DBB3071BD501239C46E1442A339B4690
:108BF00004E001239C46E1442C339B46330720D5F7
:108C00005B46002B17D153460AAA29004846FFF7B6
:108C100037FEA94600974746A04654466CE1042318
:108C20001A00324093463342E8D0033B9C46E1446D
:108C30001F339B46E2E752460AA95846FFF7C7FD95
:108C4000E1E7F30708D55B46002BE3D052460AA9BB
:108C50005846FFF7BCFDDDE753460AAA29004846FF
:108C6000FFF71DFE5B46002BD4D052460AA958469A
:108C7000FFF7ADFDCEE7009B1A000C320092596859
:108C80009F6803910A003B0006920793002200238D
:108C900003983900FEF794F9002808D1B30728D4C7
:108CA00004231F003740334208D0202706E0039AF0
:108CB000802109067B18069207932D27029B002B23
:108CC00019D1019B002B1DD108220BA906A8FFF783
:108CD000FBFD8046330722D5002F1AD153460AAA3E
:108CE00029004046FFF7CCFDA8460BAFA1465446ED
:108CF00032E02B27E2E742460BA906A8FFF7E4FD86
:108D00008046E7E742460BA906A8FFF7DDFD80464F
:108D1000E0E752460AA93800FFF759FDDEE7F307FE
:108D200007D5002FE1D052460AA93800FFF74FFDC2
:108D3000DBE753460AAA29004046FFF7B0FD002FA3
:108D4000D3D052460AA93800FFF741FDCDE70137DD
:108D500022000AA9FFF73BFD002038560028F6D173
:108D6000A2464C46F30700D49CE653460AAA2900C3
:108D70004046FFF794FD95E6009B1A0008CA93460B
:108D800005931023002205A90BA8FFF735FD8146A6
:108D90000BAB4B44984608231A00324000923342F2
:108DA00028D008331A0032400092334211D1534682
:108DB0000AAA29004846FFF763FDA946F30602D533
:108DC000009B002B36D05B4600934746A046544696
:108DD00092E052460AA93020FFF7F9FC52460AA950
:108DE0007820FFF7F4FC0097E1E7C046D890000038
:108DF0001C910000F307E1D410231A0032400092C6
:108E0000334202D00E3B9C46E14453460AAA290055
:108E10004846FFF744FD009B002BCFD052460AA9DD
:108E20003020FFF7D4FC52460AA97820FFF7CFFC88
:108E30000097C3E752460AA93020FFF7C8FC524604
:108E40000AA97820FFF7C3FC02239C46E144BAE755
:108E5000009F08CF05930823002205A90BA8FFF760
:108E6000CBFC814600970BAB4B449846330729D483
:108E7000F30732D54746A04654463DE0009F08CF51
:108E800005930223002205A90BA8FFF7B5FC814634
:108E90000097E8E7009F08CF05931023002205A95B
:108EA0000BA8FFF7A9FC81460097DCE7009F08CFDD
:108EB00005930A23002205A90BA8FFF79DFC814614
:108EC0000097D0E753460AAA29004846FFF7D8FC86
:108ED000A9464746A04654460EE053460AAA290032
:108EE0004846FFF7DCFC4746A046544604E0013FF5
:108EF00022000AA9FFF76BFC002038560028F6D1A3
:108F0000A2464446F30700D4CCE553460AAA2900FA
:108F10004846FFF7C4FCC5E5009D01CD40B252466E
:108F20000AA9FFF754FC0095BCE5009B80CB99464D
:108F3000002F46D03800FFF735F9009001231A00C2
:108F400032409346334204D04346002B07D1564665
:108F500018E053460AAA2900FFF7A1FCF4E74646A9
:108F600000203856002812D0002EF9DD013E0137CE
:108F700052460AA9FFF72BFCF2E7013732000AA993
:108F8000FFF725FC002038560028F6D1B2465B4694
:108F9000002B02D14B46009384E553460AAA2900D0
:108FA0000098FFF77CFC4B4600937BE5009B04CBCD
:108FB0000A991160009375E552460AA9FFF707FC6C
:108FC00070E500936EE50A9815B0F0BCBB46B2465A
:108FD000A946A046F0BDC0460FB400B585B0012338
:108FE0000193054B029306AA02CA01A8FFF73EFDB2
:108FF00005B008BC04B01847BD880000002310B5B8
:109000009A4200D110BDCC5CC4540133F8E7030090
:109010008218934200D1704719700133F9E70000BC
:10902000307600005E7500005E7500005A75000025
:109030006475000064750000507800005A750000E7
:109040006475000050780000647500005A750000D7
:10905000EE770000EE770000EE770000BA780000AF
:1090600000F00F4040F00F4080F00F40C0F00F4084
:1090700000F10F400090044000A0044000B0044004
:1090800000C0044000D0044030313233343536372C
:109090003839414243444546323032303037313638
:1090A000000000002020A1BE55736572CCE1CABE4D
:1090B000A1BFA3BABDABBDF8C8EB55736572B5C40B
:1090C0006D61696E2829D6B4D0D02E2E2E0D0A00DF
:1090D00000B0064000C00640F48A00000C8B00007F
:1090E0000C8B0000008B00000C8B00000C8B000030
:1090F0000C8B00000C8B00000C8B00000C8B000014
:109100000C8B0000EE8A00000C8B0000CE8A000061
:109110000C8B00000C8B0000FA8A0000788D000098
:10912000B88F0000B88F0000B88F0000B88F000023
:10913000B88F0000B88F0000B88F0000B88F000013
:10914000B88F00007C8E0000188F0000C28B0000DA
:10915000B88F0000768C0000B88F0000B88F000038
:10916000C28B0000B88F0000B88F0000B88F0000DD
:10917000B88F0000AC8F0000508E0000948E00006D
:10918000B88F0000B88F00002A8F0000B88F000051
:10919000AC8E0000B88F0000B88F0000788D000002
:1091A000F8B5C046F8BC08BC9E467047F8B5C04646
:0891B000F8BC08BC9E467047A4
:0891B80010DFFF7F0100000041
:0491C000396C000006
:0491C400116C00002A
:0891C800006CDC020C0D0E002E
:0400000300006C5934
:00000001FF
