:1068000000180020596C0000A16C0000A16C000071
:106810000000000000000000000000000000000078
:10682000000000000000000000000000A16C00005B
:106830000000000000000000A16C0000A16C00003E
:10684000A16C0000A16C0000A16C0000A16C000014
:10685000A16C0000A16C0000A16C0000A16C000004
:10686000A16C0000A16C0000719600009D960000D4
:10687000A16C0000A16C0000A16C0000A16C0000E4
:10688000A16C0000A16C0000A16C0000A16C0000D4
:10689000A16C0000A16C0000A16C0000A16C0000C4
:1068A000A16C0000A16C0000A16C0000A16C0000B4
:1068B000A16C0000A16C0000A16C000035960000E6
:106C0000FFFFFFFFFFFFFFFFFFFFFFFFFEFFFFFF95
:106C100010B5064C2378002B07D1054B002B02D072
:106C2000044800E000BF0123237010BD00040020D1
:106C30000000000090A40000044B10B5002B03D00E
:106C40000349044800E000BF10BDC046000000003A
:106C50000404002090A4000072B601F0ABFA62B602
:106C60000A490B4A0B4B9B1A03DD043BC858D05012
:106C7000FBDC0949094A521A03DD00208850043A16
:106C8000FCDA02F007FC01F021FB0000B8A40000D0
:106C90000004002000040020000400202C06002036
:106CA00000B5C04600BDC046002243088B4274D3E5
:106CB00003098B425FD3030A8B4244D3030B8B42FD
:106CC00028D3030C8B420DD3FF22090212BA030C06
:106CD0008B4202D31212090265D0030B8B4219D3E7
:106CE00000E0090AC30B8B4201D3CB03C01A524107
:106CF000830B8B4201D38B03C01A5241430B8B424F
:106D000001D34B03C01A5241030B8B4201D30B0337
:106D1000C01A5241C30A8B4201D3CB02C01A52415E
:106D2000830A8B4201D38B02C01A5241430A8B4221
:106D300001D34B02C01A5241030A8B4201D30B020A
:106D4000C01A5241CDD2C3098B4201D3CB01C01A24
:106D5000524183098B4201D38B01C01A524143092E
:106D60008B4201D34B01C01A524103098B4201D31C
:106D70000B01C01A5241C3088B4201D3CB00C01A89
:106D8000524183088B4201D38B00C01A5241430801
:106D90008B4201D34B00C01A5241411A00D2014626
:106DA000524110467047FFE701B5002000F0F0F8AF
:106DB00002BDC0460029F7D076E7704703460B4373
:106DC0007FD4002243088B4274D303098B425FD3E4
:106DD000030A8B4244D3030B8B4228D3030C8B4210
:106DE0000DD3FF22090212BA030C8B4202D31212F6
:106DF000090265D0030B8B4219D300E0090AC30BCB
:106E00008B4201D3CB03C01A5241830B8B4201D377
:106E10008B03C01A5241430B8B4201D34B03C01A60
:106E20005241030B8B4201D30B03C01A5241C30AD8
:106E30008B4201D3CB02C01A5241830A8B4201D349
:106E40008B02C01A5241430A8B4201D34B02C01A33
:106E50005241030A8B4201D30B02C01A5241CDD2D8
:106E6000C3098B4201D3CB01C01A524183098B4223
:106E700001D38B01C01A524143098B4201D34B010C
:106E8000C01A524103098B4201D30B01C01A52416F
:106E9000C3088B4201D3CB00C01A524183088B42F6
:106EA00001D38B00C01A524143088B4201D34B00DF
:106EB000C01A5241411A00D2014652411046704751
:106EC0005DE0CA0F00D04942031000D34042534056
:106ED00000229C4603098B422DD3030A8B4212D316
:106EE000FC22890112BA030A8B420CD38901921148
:106EF0008B4208D3890192118B4204D389013AD085
:106F0000921100E08909C3098B4201D3CB01C01A59
:106F1000524183098B4201D38B01C01A524143096C
:106F20008B4201D34B01C01A524103098B4201D35A
:106F30000B01C01A5241C3088B4201D3CB00C01AC7
:106F4000524183088B4201D38B00C01A5241D9D2DF
:106F500043088B4201D34B00C01A5241411A00D260
:106F60000146634652415B10104601D34042002B5C
:106F700000D54942704763465B1000D3404201B5DB
:106F8000002000F005F802BD0029F8D016E7704790
:106F90007047C0468446101C62468C46191C6346E6
:106FA00000E0C0461FB500F009FA002801D4002116
:106FB000C8421FBD10B500F053F94042013010BD6A
:106FC00010B500F0FBF9002801DB002010BD012006
:106FD00010BDC04610B500F0F1F9002801DD002019
:106FE00010BD012010BDC04610B500F075F9002895
:106FF00001DC002010BD012010BDC04610B500F01E
:107000006BF9002801DA002010BD012010BDC04638
:10701000002B11D1002A0FD1002900D1002802D065
:107020000021C943081C07B4024802A1401802907D
:1070300003BDC0465DFFFFFF03B4684601B502987B
:1070400000F042F8019B9E4602B00CBC7047C0465F
:1070500070B500220C4B04000D00FFF7CFFF002895
:1070600004D12000290001F017F870BD064B002262
:107070002000290000F07EFC01F00EF880231B06A2
:107080009C466044F1E7C0460000E04170B5002234
:107090000B4B0D00040000F001FAFFF7D9FF0600CA
:1070A00001F030F80022074B00F0F8F902000B0065
:1070B0002000290000F05EFCFFF7CAFF310070BD20
:1070C0000000F03D0000F041F0B557464E46454601
:1070D000DE46E0B504000D009246994683B08B422F
:1070E00030D82DD04946504601F050F8290006000E
:1070F000200001F04BF8331A9846203B9B4633D4CE
:107100005A465346934042461F00534693401E0042
:10711000AF423AD8AF4200D178E05B46A41BBD41F4
:10712000002B00DA75E00022002300920193012376
:107130005A4693400193012342469340009328E02E
:107140008242CFD900220023009201930C9B002B96
:1071500001D01C605D600098019903B0F0BCBB4693
:10716000B246A946A046F0BD424620239B1A52468D
:10717000DA40414613004A468A40170042461F4300
:10718000534693401E00AF42C4D900220023009210
:1071900001934346002BD9D0FB0772081A43464699
:1071A0007B080EE0AB4201D1A2420CD8A41A9D414B
:1071B000012024196D410021013E24184D41002E6B
:1071C00006D0AB42EED9013E24196D41002EF8D114
:1071D000009801995B4600196941002B24DB2B00C4
:1071E0005A464446D3402A00E2401C005B46150044
:1071F000002B2ADB26009E40330026004746BE4077
:107200003200801A9941009001919FE7A342BCD8B7
:1072100083E74246202300219B1A0022009101921D
:107220000122DA40019286E7424620239B1A2A0077
:1072300046469A402300F340444613432A00E24066
:107240001C005B461500002BD4DA42462F00202399
:10725000260097409B1ADE403B003343CDE7C046F3
:10726000F0B54F464646D646944691461A03120B51
:10727000184DC0B54C000F0392465A0006008046D8
:107280003F0B0120640DC90F520DDB0FAC420AD039
:10729000AA4203D0944201D157450DD0E0BCBA4672
:1072A000B146A846F0BD3D003543F7D1A242F5D125
:1072B000524665462A43F1D10120C845EED1994294
:1072C00006D0002CEAD13E433000461EB041E5E72F
:1072D0000020E3E7FF070000F0B54E46454657465D
:1072E000DE4604001800E0B516001B031B0B324DF0
:1072F0000F034A0099464300A446B0463F0B520D87
:10730000C90F5B0DC00FAA4229D0AB4218D0002A8A
:107310002AD13C43A34665426541002B02D14C462D
:10732000264327D0002D15D1814228D002200139D3
:1073300008400138F0BCBB46B246A946A046F0BDA5
:107340004D462E432FD1002AEED13C436542654184
:10735000002DE9D00028EDD101204042EAE73D00B0
:10736000254320D19342EBD0002BDDD14C46264360
:10737000DAD1DBE75B460020002BDBD0D6E79A4270
:107380000ADCE7DB4F45D1D810D000204F45D1D2E1
:107390000029E1D00800CDE7434258410223404292
:1073A00018400138C6E702204042C3E7C445BDD8B3
:1073B0000020C445BED2EBE7FF070000F0B54E4603
:1073C00045465746DE4604001800E0B516001B038C
:1073D0001B0B314D0F034A0099464300A446B046AB
:1073E0003F0B520DC90F5B0DC00FAA4211D0AB422B
:1073F00014D0002A2FD13C43A34665426541002B9F
:1074000014D14C46264311D15B460020002B17D0E7
:1074100010E03D00254312D193421CD14D462E432E
:107420000DD1002A04D13C4365426541002D0DD1A8
:10743000814216D0022001390840013800E00220C4
:10744000F0BCBB46B246A946A046F0BD0028F7D125
:1074500001204042F4E7002BEAD14C462643E7D115
:10746000E8E79A4206DD4342584102234042184071
:107470000138E5E79A42E9DB4F45DBD806D000202A
:107480004F45DDD20029E3D00800D9E7C445D1D863
:107490000020C445D4D2F5E7FF070000F0B55746F9
:1074A0004E464546DE46E0B598460C034B000600C6
:1074B000924687B0240B5B0DCF0F002B6CD0DD4ABA
:1074C000934200D186E0420FE4001443802212046C
:1074D0001443D94AC5009446634400930023994657
:1074E0009B46434642461E03D20F5B0050469046E1
:1074F000360B5B0D00D178E0CE4A93421DD0CE49C9
:10750000420F8C4600996344F6008C461643802255
:107510009C44120463461643C20000200093009965
:10752000434601318C4649467B4001930F2900D9DF
:107530007EE0C24B890059588F465246009B324329
:1075400000D056E1BB4900268C466344494600936F
:107550000223194389460220E1E7434601933400A0
:10756000150083465B46022B5ED0032B00D1F3E16E
:10757000012B00D018E1002200240025019B1205F8
:107580002243DB071A432800110007B0F0BCBB46BA
:10759000B246A946A046F0BD2500054300D141E111
:1075A000002C00D1ADE1200000F0D2FD010002006E
:1075B0000B391D2310005B1A310035000838844058
:1075C000D94085400C439E48831A00930023994676
:1075D0009B4686E70500254300D01CE10822009366
:1075E0000223002491469B467BE75246324300D15A
:1075F0000AE1002E00D176E1300000F0A9FD020082
:107600000B3A1D2301009B1A52460839DA408E407E
:10761000164352468A40009B8949181A03008C463B
:107620006344002000937AE700240025814AA5E7FF
:107630002F0C2D042D0C2B00110C1204120C534393
:107640009846130028007B439946484348448346A4
:1076500040460B00000C824658467B435044029340
:10766000814506D99A4680235B029946CA4453460F
:107670000293030C9B4643461B0400041B0C9846D4
:10768000030043440493330C99462B003604360C14
:107690007343984633007B439A464B465D435F43B2
:1076A00043465544180C4019824503D980235B0298
:1076B0009A465744050CEB19059343461D042D0CBF
:1076C00000044019250C2404240C270057436A4366
:1076D00090462A003B0C9A464A4361434144514438
:1076E0008344884503D980235B02984642443F0483
:1076F0000B0C3F0C0904C919270098464B467743E9
:107700005C436E435D433B0C9946A4194C44424490
:107710000395A64204D980235B029846454403950D
:10772000029B3F045B441E00834280412304984631
:10773000059B3F0C4744984676188E428941474442
:1077400040423D18A846934649428A46C3449F4258
:10775000BF4180458041039BDA44984653464042EE
:107760007F420743240C934592418A4589413F1942
:10777000DC0D049B75021D43681E85415346524231
:1077800049420A43BF184744F60D7F0235435A0267
:107790003C431543FB0100D4C1E001216A080D40C0
:1077A0001543E2071543640826496144002956DD64
:1077B0006B0709D00F222A40042A05D02A1DAA42AD
:1077C000AD416D4264191500E30104D580211E4AC4
:1077D000C900144061441D4A914200DD24E762075C
:1077E000ED08640249051543240B4A0DC6E60197CE
:1077F000B8E6104A0320944663444A4600930323A4
:107800001A43914652468AE649460123194389465E
:107810000026012083E60C220093032305009146F5
:107820009B465EE60423994600230093013300241F
:107830009B4656E6FF07000001FCFFFF80A3000007
:107840000DFCFFFFFF030000FFFFFFFEFE0700002F
:10785000002380240025444A019324038EE601205E
:10786000401A382800DD86E61F285BDD1F22230032
:107870005242511ACB401900202803D03B4A62449F
:10788000944025436A1E95412A000A4307210D00B2
:107890000024154011425BD00F210024114004291F
:1078A00053D0111D914292415242A4180A00230262
:1078B0004BD501220024002560E680231B031C42D7
:1078C00009D01E4207D133431C0343461500240B45
:1078D000254A019352E68022120314432403224ACC
:1078E000240B01974AE600F033FC03001A0015321E
:1078F00020301C2A00DC84E65646083B00229E40CD
:1079000089E600F025FC01000200153120321C2917
:1079100000DC4EE6340008380025844053E6009B26
:107920009C4641E71249220061442E008D408A4066
:10793000C640691E8D4132432A43C4405307B6D026
:107940000F2111400429ACD1B1E765076402240B73
:10795000D2081543002211E68022120314432403A7
:10796000014A240B0AE6C046FF0700003E0400005F
:107970001E040000F8B557464E464546DE46040054
:10798000E0B51F0010000B03620F4E00CD0F5B0A25
:1079900039031343490AE200440F2143C24C914684
:1079A0009246C0007A008046760D520DFF0FA2422B
:1079B00000D1B4E001246740BB46BD4200D188E05D
:1079C000B41AA446002C00DCB2E0002A00D1C5E0C5
:1079D000B54A964200D18BE28022120411436246DE
:1079E000382A00DDA1E11F2A00DD16E220270C0065
:1079F000BF1ABC400200A0466446B840E24044467C
:107A000014430200501E82416046C14022435B1A6B
:107A100049468C1AA145924152429B1A98464346C8
:107A20001B0200D417E143465B025B0A98464346BB
:107A3000002B00D16CE1404600F08AFB0200083ABE
:107A4000202120004346891A9340C84094400343B4
:107A5000964200DD57E1961B711C1F2900DDCBE12A
:107A6000202218002600521A94409040CE40CB406D
:107A7000621E94413043984600260443630709D0B0
:107A80000F232340042B05D0231DA342A4416442AD
:107A9000A0441C0043461B0200D4DFE0824B0136A9
:107AA0009E4200D1FBE04246804BE4081A4013009E
:107AB000710552075B0222431B0B490D0905ED07B7
:107AC000194329431000F0BCBB46B246A946A04664
:107AD000F8BDB41AA446002C58DD002A00D19EE05F
:107AE000714A964200D13BE1802212041143624662
:107AF000382A00DDC1E01F2A00DCBBE10C00203A7F
:107B0000D44022006446202C04D040273F1BB940BB
:107B1000084380464446611E8C411443B1E00C008A
:107B200004432AD0BB46BD422DD0614CA446B44488
:107B30006446002C5CD0941BA446002E00D015E1B6
:107B40004D461D4300D1C3E1651E012C00D10CE25E
:107B5000554EB44200D1F8E1AC460EE10A000243B2
:107B600000D136E12200013A012C00D1C6E14E4C91
:107B7000A44500D1F4E0944631E701246740BB46B8
:107B8000BD4200D01CE74A4CA446B4446446002CD5
:107B900000D1CFE0941BA446002E00D15CE1424E00
:107BA000B24200D1ECE18026360433436446382CDF
:107BB00000DDB3E11F2C00DD38E22026361B1C005F
:107BC000B4404F46A0466446E74044463C434F46D7
:107BD000B7403E00771EBE4134436646F340C918A5
:107BE000241884429B415B429846160088444EE02C
:107BF000304A741C144200D0D6E04A461A43002E84
:107C000000D05BE1002A00D1A5E10A00024300D0C8
:107C1000BBE14A465907D2080A43DB0827E00A00BD
:107C2000024300D174E12200013A012C05D01E4C20
:107C3000A44500D194E0944659E748444845924110
:107C40005B189846040052429044434602261B02A9
:107C500000D5C4E0013E630700D011E74346B446B7
:107C60005907E2080A43DB080F498C4540D06146BA
:107C70001B0349051B0B490D20E701430C00611E46
:107C80008C414C444C459241524290469844434664
:107C90001B02E0D5044B01369E4200D09FE031002C
:107CA000002300220AE7C046FF070000FFFF7FFF16
:107CB00001F8FFFFFE070000002A00D160E10A0082
:107CC00002434DD04A465C07D20822438024DB0899
:107CD0002403234207D0CE08264204D15D46330058
:107CE000C20849070A43510FD200D20849070A4384
:107CF0001100194300D1C8E1802109030B431B0384
:107D0000D5491B0BDAE6D549B61A0B409846B5E6BD
:107D1000200000F01DFA020018321F2A00DC8FE656
:107D2000230008388340002492E608430200501ED6
:107D300082416DE6CA4C721C224200D0ADE04A4638
:107D40001A43002EB8D1002A00D158E10A0002439C
:107D500000D059E14A465907D2080A43DB0886E7B2
:107D60004A465907D2080A43DB08C1E7BA4DAA427E
:107D700000D11EE180252D042B436446382C5DDCA8
:107D80001F2C00DDD0E0202567462D1B4E461C0031
:107D9000FE40AC4034434E46AE403500FB406E1EC4
:107DA000B541C91A2C434EE04A46141AA1459241E6
:107DB000524290465F1A3A004746D21B9046120242
:107DC00000D58BE04246224300D030E60023002558
:107DD0004DE74A465907D2080A43DB0844E74246C2
:107DE0009E4B61081A401300012214400C43DA072D
:107DF0005B089846144341E61A001F3EF240160005
:107E0000202903D04022511A8B401C43621E94410A
:107E100000233443984600261DE70C00203AD44046
:107E200022006446202C04D040273F1BB940084361
:107E300080464446611E8C412243E9E54C4623437B
:107E40001C00631E9C41041BA0429B415B42CB1A59
:107E500098465D461600E2E54E461E4300D1AEE070
:107E6000661E012C00D1FDE07B4FBC4200D107E132
:107E7000B4469BE664462022121B0C009440070087
:107E80009040A0466446421E90416246E740444608
:107E9000D1403C4304435B18F3E66F4CA24200D14F
:107EA000D5E048445B184845894149425B18DC07E6
:107EB00040085B08984616000443CCE6002A00D030
:107EC00082E00A00024340D1802300251B0313E710
:107ED0004B07C2081A435D46CB08C5E64A46841ADA
:107EE000A0429241CB1A52429B1A98465D469EE5AB
:107EF0004A465907D2080A43DB08F9E64A46141AEB
:107F0000A14592415B1A52429B1A9846012686E58A
:107F10004A465907D2080A43DB08A5E64C462343E4
:107F20001C00631E9C415BE665461E00203DEE4042
:107F3000202C05D040252D1BAB404C461C43A246AF
:107F40005446631E9C4134437DE74B07C2081A43E5
:107F50005D46CB08CCE60A00024300D136E74B076A
:107F6000C2081A435D46CB0881E64A46841AA042FD
:107F70009241CB1A52429B1A98465D4601264EE525
:107F80004B07C2081A43CB08B2E64A46141AA14569
:107F900092415F1A5242BA1A904612026BD54A4673
:107FA000841AA0429241CB1A52429B1A98465D46CF
:107FB00064E54B07C2081A435D46CB0898E64B07B9
:107FC000C2081A43CB084FE60A00024390D04A4643
:107FD0005C07D20814438022DB081203134208D046
:107FE000CE08164205D1C0084907084304005D4683
:107FF0003300610FE2004907D2080A4378E64B07D5
:10800000C2081A43CB0832E648445B1848459241FF
:10801000984652429044434604001B0200D41AE69C
:1080200042460E4B01261A40904614E666461F0053
:10803000203EF740202C05D04026361BB3404C464E
:108040001C43A2465446631E9C413C43C8E51100B4
:108050000023002232E5C046FF070000FFFF7FFF3C
:10806000FE0700004A461418844292415B18984665
:1080700052429044E9E54246224300D1A6E6EAE5B1
:108080004B07C2081A43CB0832E60022014913000D
:1080900014E5C046FF0700000A0030B5134C53003A
:1080A00009030500090B00205B0DD20FA34204DD7C
:1080B0000F48834202DD0F4BD01830BD80204003B3
:1080C00001430D48C01A1F2808DD0C48C31AD940C7
:1080D0000B005842002AF0D11800EEE7084CC540CA
:1080E000A446634499400B002B43F2E7FE030000D3
:1080F0001D040000FFFFFF7F330400001304000095
:10810000EDFBFFFF10B5041E10D000F021F80F4B5F
:108110001B1A0A2811DC0B222100121AD14015303B
:108120000A035B058440120B5B0D01E00023002273
:108130001B0513432000190010BD22000B3882409C
:108140005B0512030024120B5B0DF1E71E04000017
:108150001C2101231B04984201D3000C10391B0A77
:10816000984201D3000A08391B09984201D300093B
:10817000043902A2105C40187047C0460403020292
:1081800001010101000000000000000010B50029FD
:1081900003D1FFF7DDFF203002E0081CFFF7D8FF16
:1081A00010BDC0460023C25C0133002AFBD1581E1B
:1081B000704700003B493C4AC0239B028B50394A20
:1081C0003A4BD3583749802292001343374A8B5099
:1081D000374B9B78DBB21A000823134007D0344B8F
:1081E0009B78DBB2324A08210B43DBB293702D49F6
:1081F0002D4A80235B028B502A4A2E4BD3582949A3
:108200002D4A13402B4A8B50264B1A68254B2B497D
:108210000A401A60234A274BD358294A1340214960
:10822000802252041343234A8B50264B06221A7095
:10823000244B5B78DBB2234A40210B40DBB2537006
:10824000204BDB78DBB25BB21F2213405BB26022B3
:10825000524213435AB21B4BD2B2DA701A4B00226D
:108260001A70184B00221A71164B00225A71C04620
:10827000144B9B79DBB21A0010231340F8D0C04690
:10828000104B9B79DBB21A000C231340F8D1054A3E
:10829000064BD3580349F82292011343034A8B50EB
:1082A000C0467047007004404410000038100000C1
:1082B00000D0074004100000FFFFFCFFFFFFF3FFAA
:1082C000FFFFFFFC004006400050064030B589B07B
:1082D00072B600F019FE03A9254A0B0031CA31C35A
:1082E0000B000C3308220021180001F0CCFF214BB9
:1082F00000221A7080239B000121180000F072F9FF
:108300001D4B0021180000F06DF91C4A002300935A
:1083100000230121002000F01DFE184A00230093D5
:1083200000230021012000F015FE134B180000F07F
:108330005FFD012001F09CF862B60E4B1B78002B0C
:10834000FBD00F4B180001F077FF0E4B1800FFF722
:1083500029FF0300DBB20B4A1900002001F012F8DC
:10836000094B180001F068FF024B00221A70E4E785
:10837000C8A20000280600200102000070170000BB
:1083800098A2000020040020B0A2000000B585B033
:1083900002006B4606331A806B4606331B889B022D
:1083A00003931F4B0922DA711D4A03AB9B7893712B
:1083B0001B4A03AB5B785371194A03AB1B781371EB
:1083C00000F0C6F80300012B01D1012324E0039A39
:1083D0008023DB009A421ED2114B0622DA71104B29
:1083E00000229A710E4B04225A710D4B0C221A7105
:1083F0000B4BFF22DA720A4BFF229A72084BFF22C4
:108400005A72074BFE221A7200F0A2F80300012BE9
:1084100001D1022300E00023180005B000BDC046D2
:108420000000024000B587B0039001920A236B441C
:108430000A1C1A801E4B0622DA71039B0493002348
:1084400005932BE01A4A04AB9B789371184A04AB4E
:108450005B785371164A04AB1B781371144A019B65
:10846000DB78D372124A019B9B789372104A019B6E
:108470005B7853720E4A019B1B78137200F068F808
:108480000300012B01D102230FE0059B0433059368
:10849000049B04330493019B043301930A236B442C
:1084A0001B88059A9A42CDD30023180007B000BD5F
:1084B0000000024000B587B0039002916B4606337E
:1084C0001A80029B05936B4606331A880599039B15
:1084D000180001F0CFFEC04607B000BD84B0020016
:1084E0006B4606331A8001AB0A1C1A800E236B44BC
:1084F00000221A8003AB01221A800E236B44002253
:108500001A8017E06B4606331B889B0202930E23EA
:108510006B441B88029AD3181B78FF2B03D003AB44
:1085200000221A800DE00E236B441A880E236B4440
:1085300001321A800E226A4401AB12881B889A42CB
:10854000E0D303AB1B88DBB2180004B07047000017
:1085500082B06B46073300221A70164B30221A7015
:10856000EFF310830093009B002B05D172B6C04639
:108570006B46073301221A700E4B80221A70C046D8
:108580000C4B1B78DBB25BB2002BF9DA6B4607337E
:108590001B78012B01D162B6C046064B1B78DBB2BB
:1085A0001A003123134001D0012300E000231800FA
:1085B00002B070470000024082B002006B460733F1
:1085C0001A706B4607331B781A001F231A40044B9E
:1085D000012191400A001A60C04602B07047C046AF
:1085E00000E100E000B585B002006B4606331A805A
:1085F0006B4605330A1C1A700E226A440F21694427
:108600006B4606331B88180000F066FC0F236B4492
:108610001B789B020E226A4412789B189B00434AE7
:10862000944663441A680F236B441B789B020E2107
:10863000694409785B189B003C498C4663443C497B
:108640000A401A600F236B441B789B020E226A4477
:1086500012789B189B00354A944663441A680F238E
:108660006B441B789B020E21694409785B189B00C0
:108670002E498C466344802149000A431A606B46A8
:1086800005331B78012B32D10F236B441B789B01E0
:108690001433284A944663441A680E236B441B78AB
:1086A000190001238B4019000F236B441B789B0199
:1086B00014332048844663440A431A600F236B44F2
:1086C0001B789B011B4A944663441A680E236B4433
:1086D0001B78190001238B4019000F236B441B7872
:1086E0009B011448844663440A431A601AE00F232E
:1086F0006B441B789B0114330E4A944663441A68FA
:108700000E236B441B78190001238B40DB431900B7
:108710000F236B441B789B01143306488446634443
:108720000A401A60C04605B000BDC0460090044033
:10873000FFF8FFFF00F00F4010B582B00400080002
:1087400011006B460733221C1A706B460633021C5D
:108750001A706B4605330A1C1A706B4605331B787A
:10876000012B18D16B4607331B789B01184A94469E
:1087700063441A686B4606331B78012199400B004D
:1087800019006B4607331B789B01114884466344EC
:108790000A431A6018E06B4607331B789B010C4AAA
:1087A000944663441A686B4606331B78012199404E
:1087B0000B00DB4319006B4607331B789B01044811
:1087C000844663440A401A60C04602B010BDC046E9
:1087D00000F00F4082B002006B4607331A706B4600
:1087E00006330A1C1A706B4607331B789B01103343
:1087F000074A944663441A686B4606331B78DA408E
:108800001300DBB201221340DBB2180002B0704744
:1088100000F00F4000B58FB0029101920E236B441F
:10882000021C1A8007AA1D2169440E236B441B8871
:10883000180000F051FB00230D931EE133236B441D
:1088400000221A7019E0029A0D9BD3181B781A00A7
:1088500033236B441B781A411300DAB233236B4481
:108860001B7801210A40D1B205AAD15433236B44AD
:108870001A7833236B4401321A7033236B441B780C
:10888000072BE0D91D236B44187807AB1B78002217
:108890001900FFF751FF0CAB00221A8004E00CAB6B
:1088A0001A880CAB01321A800CAB1B88152BF6D939
:1088B0001D236B44187807AB197805AB1B781A0099
:1088C000FFF73AFF2E236B4400221A8006E02E2386
:1088D0006B441A882E236B4401321A802E236B447A
:1088E0001B88152BF3D91D236B44187807AB197817
:1088F00005AB5B781A00FFF71FFF0BAB00221A8055
:1089000004E00BAB1A880BAB01321A800BAB1B884F
:10891000152BF6D91D236B44187807AB197805ABD6
:108920009B781A00FFF708FF2A236B4400221A8065
:1089300006E02A236B441A882A236B4401321A80EA
:108940002A236B441B88152BF3D91D236B441878FD
:1089500007AB197805ABDB781A00FFF7EDFE0AAB21
:1089600000221A8004E00AAB1A880AAB01321A808E
:108970000AAB1B88152BF6D91D236B44187807AB5F
:10898000197805AB1B791A00FFF7D6FE26236B4436
:1089900000221A8006E026236B441A8826236B44A3
:1089A00001321A8026236B441B88152BF3D91D2313
:1089B0006B44187807AB197805AB5B791A00FFF7A1
:1089C000BBFE09AB00221A8004E009AB1A8809AB90
:1089D00001321A8009AB1B88152BF6D91D236B4475
:1089E000187807AB197805AB9B791A00FFF7A4FE3E
:1089F00022236B4400221A8006E022236B441A884B
:108A000022236B4401321A8022236B441B88152BCE
:108A1000F3D91D236B44187807AB197805ABDB79C4
:108A20001A00FFF789FE08AB00221A8004E008ABA9
:108A30001A8808AB01321A8008AB1B88152BF6D9AF
:108A40001D236B44187807AB1B7801221900FFF730
:108A500073FE1E236B4400221A8006E01E236B4423
:108A60001A881E236B4401321A801E236B441B8814
:108A7000152BF3D90D9B01330D930D9A019B9A424F
:108A800000D2DBE6C046C0460FB000BD00B58DB0D9
:108A9000020000916B4606331A802E236B4480221D
:108AA00052011A8000230A93009A0A9BD3180022CD
:108AB0001A7011226A44122169446B4606331B88DE
:108AC000180000F009FA84E126236B4400221A8082
:108AD00006E026236B441A8826236B4401321A8051
:108AE00026236B441B880A2BF3D912236B441A7874
:108AF00011236B441B7819001000FFF76BFE09ABC4
:108B000000221A8004E009AB1A8809AB01321A80EE
:108B100009AB1B88152BF6D912236B441A78112345
:108B20006B441B7819001000FFF754FE03001A0075
:108B300002AB1A7022236B4400221A8006E0222323
:108B40006B441A8822236B4401321A8022236B441F
:108B50001B88152BF3D912236B441A7811236B440D
:108B60001B7819001000FFF735FE03001A0002AB56
:108B70005A7008AB00221A8004E008AB1A8808ABD0
:108B800001321A8008AB1B88152BF6D912236B44CF
:108B90001A7811236B441B7819001000FFF71AFE96
:108BA00003001A0002AB9A701E236B4400221A8045
:108BB00006E01E236B441A881E236B4401321A8080
:108BC0001E236B441B88152BF3D912236B441A7890
:108BD00011236B441B7819001000FFF7FBFD030005
:108BE0001A0002ABDA7007AB00221A8004E007AB70
:108BF0001A8807AB01321A8007AB1B88152BF6D9F0
:108C000012236B441A7811236B441B78190010004F
:108C1000FFF7E0FD03001A0002AB1A711A236B4440
:108C200000221A8006E01A236B441A881A236B4428
:108C300001321A801A236B441B88152BF3D9122397
:108C40006B441A7811236B441B7819001000FFF74E
:108C5000C1FD03001A0002AB5A7106AB00221A8054
:108C600004E006AB1A8806AB01321A8006AB1B88FB
:108C7000152BF6D912236B441A7811236B441B78F9
:108C800019001000FFF7A6FD03001A0002AB9A714D
:108C900016236B4400221A8006E016236B441A88C0
:108CA00016236B4401321A8016236B441B88152B44
:108CB000F3D912236B441A7811236B441B781900E3
:108CC0001000FFF787FD03001A0002ABDA7105AB55
:108CD00000221A8004E005AB1A8805AB01321A8025
:108CE00005AB1B880B2BF6D913236B4400221A709B
:108CF0001CE0009A0A9BD318197813236B441B7845
:108D000002AAD35C1A0013236B441B789A40130009
:108D1000DAB200980A9BC3188A18D2B21A701323C9
:108D20006B441A7813236B4401321A7013236B447B
:108D30001B78072BDDD9009A0A9BD3181B78FF2BD1
:108D400023D1009A0A9BD31800221A7012236B4475
:108D50001B789B0211226A4412789B189B00234ABD
:108D6000944663441A6812236B441B789B021121BA
:108D7000694409785B189B001C498C466344802138
:108D800049040A431A600A9B2DE02E236B4480227B
:108D900052011A800A9B01330A93009A0A9BD31846
:108DA00000221A700CE012236B441A7811236B44D2
:108DB0001B7819001000FFF70DFD031E00D108E01D
:108DC0002E236B441B882E226A44591E1180002BCF
:108DD000E9D12E236B441B882E226A44591E118030
:108DE000002B00D070E618000DB000BD00900440CC
:108DF00000B585B002006B4606331A800E226A4425
:108E00000F2169446B4606331B88180000F064F894
:108E10000F236B441B789B020E226A4412789B1826
:108E20009B00294A944663441A680F236B441B78BD
:108E30009B020E21694409785B189B0022498C46ED
:108E4000634422490A401A600F236B441B789B023B
:108E50000E226A4412789B189B001B4A9446634476
:108E60001A680F236B441B789B020E216944097812
:108E70005B189B0014498C466344A02109030A43F4
:108E80001A600F236B441B78002B03D11E20FFF7C1
:108E900093FB15E00F236B441B78022B04D00F23A8
:108EA0006B441B78032B03D11F20FFF785FB07E0E2
:108EB000074B180001F0C0F9064B180001F0BCF98F
:108EC000C04605B000BDC04600900440FFFFF0FF63
:108ED000DCA2000000A3000084B0029101920E23E6
:108EE0006B44021C1A800E236B441B881B0A9BB226
:108EF000DAB2029B1A700E236B441B88DAB2019B14
:108F00001A70C04604B07047064A88235B01D358E4
:108F100004490C2293431A0088235B01CA50C046BF
:108F20007047C0460070044082B002006B460733B1
:108F30001A706B4607331B781A001F231A40044B24
:108F4000012191400A001A60C04602B07047C04635
:108F500000E100E030B585B005000C0010001900FC
:108F60006B4607332A1C1A706B460633221C1A7094
:108F700001AB021C1A806B4603330A1C1A706B4645
:108F800007331B78012B03D96B46073300221A7075
:108F90006B4607331B78002B00D0D4E0D54AD64B64
:108FA000D358D4498022D2031343D34A8B50D34B96
:108FB000802292001A61D14B802292005A61CF4BDD
:108FC000802292009A61CD4B80229200DA61CC4BD4
:108FD0000022DA70CA4BDB78DBB2C94A40210B436E
:108FE000DBB2D3706B4606331B78012B08D1C44B20
:108FF000DB78DBB2C24A10210B43DBB2D37008E04E
:10900000BF4BDB78DBB2BE49802252421343DBB256
:10901000CB706B4603331B78002B08D1B84BDB7841
:10902000DBB2B74A08218B43DBB2D37007E0B44B05
:10903000DB78DBB2B24A08210B43DBB2D37008AB5A
:109040001B78002B08D1AE4BDB78DBB2AC4A042195
:109050008B43DBB2D37007E0A94BDB78DBB2A84AC5
:1090600004210B43DBB2D370A54BDB78DBB2A44AFF
:1090700002210B43DBB2D370A14B00229A706B46E6
:1090800006331B78012B07D19D4B9B78DBB29C4AA2
:1090900010210B43DBB29370994B00225A700D23C1
:1090A0006B4400221A700E236B4400221A7001AB2D
:1090B0001B8819009348FDF781FE03001A000F2357
:1090C0006B441A700F236B441B78082B17D80F239F
:1090D0006B441B78013BDBB2894A1B01DBB2537046
:1090E00005E10E236B441A780E236B4401321A708B
:1090F0000F236B440F226A44127852081A700F2310
:109100006B441B78112BECD80F236B440F226A445D
:109110001278013A1A700D236B440F226A441278B8
:109120001A70774A0D236B441B781B01DBB2537016
:10913000734B5B78DAB272490E236B441B7813438E
:10914000DBB24B70D3E06B4A6B4BD358694980223A
:1091500012041343684A8B506B4B802292001A61B1
:10916000694B802292005A61674B802292009A617B
:10917000654B80229200DA61644B0022DA70634B07
:10918000DB78DBB2614A40210B43DBB2D3706B4624
:1091900006331B78012B08D15C4BDB78DBB25B4AD2
:1091A00010210B43DBB2D37008E0584BDB78DBB205
:1091B0005649802252421343DBB2CB706B460333D5
:1091C0001B78002B08D1514BDB78DBB24F4A0821CA
:1091D0008B43DBB2D37007E04C4BDB78DBB24B4AFE
:1091E00008210B43DBB2D37008AB1B78002B08D1EE
:1091F000464BDB78DBB2454A04218B43DBB2D370AC
:1092000007E0424BDB78DBB2404A04210B43DBB280
:10921000D3703E4BDB78DBB23C4A02210B43DBB21E
:10922000D3703A4B00229A706B4606331B78012BA1
:1092300007D1364B9B78DBB2344A10210B43DBB2AB
:109240009370324B00225A700D236B4400221A7027
:109250000E236B4400221A7001AB1B8819002948A9
:10926000FDF7ACFD03001A000F236B441A700F23A7
:109270006B441B78082B17D80F236B441B78013BDA
:10928000DBB21F4A1B01DBB2537030E00E236B448C
:109290001A780E236B4401321A700F236B440F228D
:1092A0006A44127852081A700F236B441B78112BF2
:1092B000ECD80F236B440F226A441278013A1A70DB
:1092C0000D236B440F226A4412781A700C4A0D2346
:1092D0006B441B781B01DBB25370094B5B78DAB22D
:1092E00007490E236B441B781343DBB24B70C04617
:1092F00005B030BD007004403410000000B00440E0
:1093000000600740C05D000000C0044000700740DE
:1093100084B002006B4607331A706B4606330A1C92
:109320001A706B4607331B78144A944663441B0338
:109330000293C046029B1B78DBB21A002023134025
:10934000F8D0029B6A46063212789A710023039382
:109350000BE0029B1B78DBB21A002023134001D0E4
:10936000012307E0039B01330393039B044A9342C9
:10937000EFD90023180004B07047C04676000400FF
:10938000FEFF000000B585B000926B460733021C5B
:109390001A706B4606330A1C1A70002303930DE003
:1093A000009A039BD3181A786B4607331B78110079
:1093B0001800FFF7ADFF039B013303936B460633A1
:1093C0001B78039A9A42EBD36B4607331B78002134
:1093D0001800FFF79DFFC04605B000BD84B0020035
:1093E0006B4607331A706B4607331B78084A94465E
:1093F00063441B030393C046039B1B78DBB25BB241
:10940000002BF9DA039B9B79DBB2180004B070479C
:109410007600040010B582B0020000916B4607335D
:109420001A70124B1B68591C104A1160009AD4180C
:109430006B4607331B781800FFF7D0FF030023703B
:109440000A4B1B68013B009AD3181B78002B08D1EC
:10945000064B00221A60009B1800FEF7A3FE0300D3
:1094600000E00023180002B010BDC0461C0400201C
:1094700000B583B002006B4607331A706B460733A2
:109480001B780A33DBB25BB21800FFF74DFDC04614
:1094900003B000BD80B52E4FBD4418213F20FFF71B
:1094A0001DF8031E06D02B4AFC231B0218211800AE
:1094B000FEF7B8FF0023FFAA083213608023DA000A
:1094C000D023D90101AB1800FEF7F4FF224BFFAA0D
:1094D0000C32944663449A6FFFAB08331B687833B1
:1094E0001B689A4222D01A20FEF750FFFFAB0833C8
:1094F0001B6808331B681A00174BFFA90C318C46F8
:1095000063449A60FFAB08331B6878331B681A000A
:10951000114BFFA90C318C4663449A6701AA802342
:10952000D900D023DB011800FEF77CFF0B4BD022C3
:10953000D2019A600A4BE02292011A60094B18008E
:1095400000F07AFEC0468123DB009D4480BDC0460A
:10955000F8FBFFFF28A30000FCFBFFFF00ED00E08D
:109560002406002044A3000000B587B002006B462B
:1095700007331A706B4606330A1C1A70224B049389
:109580006B4607331B785A1E204B9200D358039327
:109590006B4607331B78180000F03CF8031E01D11E
:1095A00000232DE0002305931FE06B4607331B7853
:1095B000002B0BD1049B1B79DBB25BB2002B11DAC1
:1095C000049B6A4606321278DA7112E0039B1B791B
:1095D000DBB25BB2002B05DA039B6A4606321278D7
:1095E000DA7106E0059B01330593059B084A934217
:1095F000DBD9059B064A934201D9002300E00123F1
:10960000180007B000BDC04600A00640C0A300007F
:10961000BAFB000082B002006B4607331A706B463B
:1096200007331B78022B01D9002300E00123180027
:1096300002B0704700B583B0094B0A4A1900100008
:10964000FFF724FA03000193019A074B1100180059
:1096500000F0F2FD054B01221A70C04603B000BDB8
:10966000200400200102000070A300002806002052
:1096700000B587B072B60020FFF7B0FE03001A00F5
:1096800001AB1A7001A980239B0001221800FFF78B
:10969000C1F862B6C04607B000BD000000B583B097
:1096A00072B60D4B19000120FFF7B4FE03000193C1
:1096B000019B002B0CD0084A084B1100180000F049
:1096C000BBFD019A044980239B001800FFF7A2F814
:1096D00062B6C04603B000BD200400207CA3000099
:1096E00000B583B002006B4607331A706B46073330
:1096F0001B7819000220FFF737FFC04603B000BDFA
:1097000000B585B0039002910192019B1B68012B6B
:1097100002D0022B07D011E0019B5B68039A52B282
:10972000100098470AE0019B9B68039A52B21A7096
:10973000019B9B685A1C019B9A60C046029B1B6858
:109740005A1C029B1A60C04605B000BD30B5A7B0D8
:1097500003900291019217AB180014231A00002104
:1097600000F091FD04AB18004C231A00002100F01A
:109770008AFD002325930022002320922193039B3E
:109780001A685B6810001900FDF762FC030025935E
:10979000039B1C685D682598FEF7B4FC02000B0073
:1097A00020002900FEF7E6F802000B001E921F932E
:1097B000019B002B28D1039B1C685D682598FEF750
:1097C000A1FC02000B0020002900FEF7D3F80200E4
:1097D0000B0010001900774A774BFDF75FFE02007F
:1097E0000B0010001900FDF751FC02000B00209245
:1097F000219316E00022714B1E981F99FDF74EFE33
:1098000002000B001E921F93019B5A1E0192002B17
:10981000F0D11E981F99FDF739FC02000B00209231
:109820002193039B1C685D682598FEF76BFC020082
:109830000B0020002900FEF79DF802000B001C928F
:109840001D93002322930CE000225C4B1C981D9971
:10985000FDF724FE02000B001C921D93229B013396
:1098600022930022564B1C981D99FDF7A9FB031E5D
:10987000EAD1229B013B229300232493259B002BBA
:1098800007D1249B5A1C2492029AD31830221A70B2
:109890002FE00023239313E0239C631C2393259B39
:1098A0000A211800FDF786FA0B00190017ABA20079
:1098B000D150259B0A211800FDF7F6F903002593E6
:1098C000259B002BE8D111E0239B5A1E17AB920079
:1098D000D358DBB23033D9B2249B5A1C2492029A5B
:1098E000D3184AB21A70239B013B2393239B002B6E
:1098F000EAD1249B5A1C2492029AD3182E221A7061
:10990000209B219A134307D1249B5A1C2492029A2C
:10991000D31830221A7043E00023239318E02098D4
:1099200021990A220023FDF773FB10001900239BE5
:109930005A1C2392010004AA9B0099502098219957
:109940000A220023FDF764FB02000B002092219302
:10995000209B219A1343E2D109E0239B5A1C2392B6
:1099600004AA9B0000219950229B013B2293229B39
:10997000002BF2D111E0239B5A1E04AB9200D35866
:10998000DBB23033D9B2249B5A1C2492029AD318EA
:109990004AB21A70239B013B2393239B002BEAD1ED
:1099A000029A249BD31800221A70249B180027B017
:1099B00030BDC04600A0D88557347643000024400F
:1099C0000000F03F00B58DB003900291019200932A
:1099D00000230793039B0693069B5A1C06920022C2
:1099E0001A70019B002B32D0029B1B680B930B9BC0
:1099F000002B28D1069B30221A70079B0133079356
:109A000058E000990B98FDF7D9F903000493049BE3
:109A1000009A53430B9AD31A0A930A9B002B04DA39
:109A20000A9B3022D31A0A9302E00A9B30330A932E
:109A3000049B0B93069B5A1C06920A9A52B21A7008
:109A4000079B013307930B9B002BDAD132E0029B7B
:109A50001B680993099B002B28D1069B30221A70A2
:109A6000079B0133079325E0009B19000998FDF738
:109A70001BF903000593009B059A5343099AD31AD7
:109A80000893089B092B03D8089B3033089302E006
:109A9000089B37330893059B0993069B5A1C069233
:109AA000089A52B21A70079B01330793099B002B47
:109AB000DAD1C046079B18000DB000BD00B587B0D5
:109AC0000390029101920093039B059308E0009A92
:109AD000019B19003020FFF713FE059B013305930E
:109AE000059A029B9A42F2DBC046C04607B000BD11
:109AF00000B587B00390029101920093039B0593F8
:109B000008E0009A019B19002020FFF7F9FD059B52
:109B100001330593059A029B9A42F2DBC046C04688
:109B200007B000BD30B5A3B00390029101920AAB1B
:109B300030221A6004331D220021180000F0A3FB1C
:109B40000023099300231B9301231A93029B219363
:109B500000F066FB159B252B17D0159B0A2B07D011
:109B6000039A09A9159B1800FFF7CAFD00F055FBE1
:109B7000039A09AB19000D20FFF7C2FD039A09AB48
:109B800019000A20FFF7BCFD47E300231D930023C3
:109B90001E932CE0219B01332193219B1B785BB208
:109BA000203B102B1DD89A00CA4BD3181B689F4628
:109BB0001D9B012213431D9319E01D9B0222134399
:109BC0001D9314E01D9B042213431D930FE01D9B66
:109BD000082213431D930AE01D9B102213431D937B
:109BE00005E0219B013B219301231E93C0461E9B50
:109BF000002BCFD000231C9300231E931BE0219B3E
:109C000001332193219B1B785BB21593159B303B4D
:109C1000092B0AD81C9A13009B009B185B001A00A2
:109C2000159B303BD3181C9305E0219B013B2193EE
:109C300001231E93C0461E9B002BE0D0219B0133C5
:109C40002193219B1B785BB22E2B24D100231993E7
:109C500000231E931BE0219B01332193219B1B7842
:109C60005BB21593159B303B092B0AD8199A130048
:109C70009B009B185B001A00159B303BD31819936F
:109C800005E0219B013B219301231E93C0461E9BAF
:109C9000002BE0D006E0219B013B219300231A9387
:109CA00000231993219B01332193219B1B785BB2E5
:109CB0006C2B05D00EDC4C2B07D0682B0AD10DE0A5
:109CC0001B9B012213431B9308E01B9B022213439F
:109CD0001B9303E0219B013B2193C046219B013351
:109CE0002193219B1B785BB21593159B583B202B2E
:109CF00000D986E29A00784BD3181B689F46019BD7
:109D000004330193019B043B1B68089308A90AA82C
:109D10000A230122FFF756FE03001F930AAA1F9B86
:109D2000D3182093089B002B05DA2D2318931F9B33
:109D300001331F9315E01D9B0222134005D02B23F6
:109D400018931F9B01331F930BE01D9B04221340AC
:109D500005D0202318931F9B01331F9301E000239C
:109D60001893002317931D9B0822134013D0189BB0
:109D7000002B05D0039A09A9189B1800FFF7C0FC17
:109D800001231793039B09AA1C991F98FFF796FEBE
:109D90001C9B1F9314E01D9B0122134010D1039BB9
:109DA00009AA1C991F98FFF7A3FE189B002B05D04A
:109DB000039A09A9189B1800FFF7A2FC0123179327
:109DC000179B002B00D090E1189B002B00D18CE159
:109DD000039A09A9189B1800FFF792FC85E1019BE3
:109DE00004330193019B08330193019B083B1A68DC
:109DF0005B68069207930698079900220023FDF7F7
:109E0000DFF8031E0FD02D231893069A079B11002D
:109E10000C008021090659400D00069407951F9BF0
:109E200001331F9315E01D9B0222134005D02B2305
:109E300018931F9B01331F930BE01D9B04221340BB
:109E400005D0202318931F9B01331F9301E00023AB
:109E50001893002317931A9B002B0AD0199A0AA96A
:109E600006AB1800FFF772FC03001F930AAB2093A8
:109E700017E01B9B002B0AD10AA906AB0822180089
:109E8000FFF764FC03001F930AAB209309E0199AC3
:109E90000AA906AB1800FFF759FC03001F930AAB91
:109EA00020931D9B0822134018D0189B002B05D02F
:109EB000039A09A9189B1800FFF722FC01231793A6
:109EC000039B09AA1C991F98FFF7F8FD1C9B1F9381
:109ED00019E0C046C8A300000CA400001D9B01228D
:109EE000134010D1039B09AA1C991F98FFF700FE8D
:109EF000189B002B05D0039A09A9189B1800FFF79F
:109F0000FFFB01231793179B002B14D1189B002BE9
:109F100011D0039A09A9189B1800FFF7F1FB0AE07A
:109F2000209B5A1C20921B785BB21800039A09AB45
:109F30001900FFF7E5FB209B1B785BB2002BEFD1EC
:109F40001D9B0122134000D162E1039B09AA1C99C9
:109F50001F98FFF7CDFD5BE1019B04330193019B4B
:109F6000043B1B68059305A90AA810230022FFF7EC
:109F700029FD03001F930AAA1F9BD31820930023D7
:109F800017931D9B082213401AD01D9B10221340CB
:109F90000DD0039A09AB19003020FFF7B1FB039AEB
:109FA00009AB19007820FFF7ABFB01231793039B44
:109FB00009AA1C991F98FFF781FD1C9B1F9322E0A3
:109FC0001D9B012213401ED11D9B1022134002D065
:109FD0001F9B02331F93039B09AA1C991F98FFF72D
:109FE00087FD1D9B102213400DD0039A09AB190069
:109FF0003020FFF785FB039A09AB19007820FFF7A3
:10A000007FFB012317931D9B102213406FD0179BDA
:10A01000002B6CD1039A09AB19003020FFF770FBBD
:10A02000039A09AB19007820FFF76AFB1F9B0233E4
:10A030001F935CE0019B04330193019B043B1B686D
:10A04000059305A90AA808230022FFF7BBFC03001B
:10A050001F932EE0019B04330193019B043B1B687B
:10A06000059305A90AA802230022FFF7ABFC030011
:10A070001F931EE0019B04330193019B043B1B686B
:10A08000059305A90AA810230022FFF79BFC0300F3
:10A090001F930EE0019B04330193019B043B1B685B
:10A0A000059305A90AA80A230022FFF78BFC0300E9
:10A0B0001F930AAA1F9BD31820931D9B08221340AD
:10A0C00008D0039B09AA1C991F98FFF7F7FC1C9B5B
:10A0D0001F931BE01D9B012213400AD1039B09AA79
:10A0E0001C991F98FFF704FD10E0C0460EE0C04623
:10A0F0000CE0C0460AE0209B5A1E20921B785BB2FF
:10A100001800039A09AB1900FFF7FAFA209B1B7895
:10A110005BB2002BEFD11D9B0122134000D179E0EF
:10A12000039B09AA1C991F98FFF7E2FC72E0019BB0
:10A1300004330193019B043B1B685BB21393039AA6
:10A1400009A9139B1800FFF7DBFA66E0019B0433B3
:10A150000193019B043B1B681693169B002B5BD05D
:10A16000169B1800FEF71EF803001F931D9B01228B
:10A17000134005D1039B09AA1C991F98FFF7B8FC4F
:10A18000199B002B22D010E0199B002B0DDD199B91
:10A19000013B1993169B5A1C16921B785BB2180050
:10A1A000039A09AB1900FFF7ABFA169B1B785BB259
:10A1B000002BE9D10FE0169B5A1C16921B785BB25C
:10A1C0001800039A09AB1900FFF79AFA169B1B783F
:10A1D0005BB2002BEFD11D9B012213401CD0039BCF
:10A1E00009AA1C991F98FFF783FC15E0019B043313
:10A1F0000193019B043B1B681493099A149B1A60FA
:10A200000BE0039A09A9159B1800FFF779FA04E0FF
:10A21000C04602E0C04600E0C046219B01332193C6
:10A22000219B1B785BB21593159B002B00D091E40A
:10A23000099B180023B030BD0FB400B587B001AB47
:10A2400001221A6001AB0A4A5A6009AB05930899CA
:10A25000059A01AB1800FFF765FC03000493002387
:10A260000593049B180007B008BC04B01847C0460B
:10A27000E1960000002310B59A4200D110BDCC5CDD
:10A28000C4540133F8E703008218934200D17047A9
:10A2900019700133F9E70000D6F7BBFAD7D6B7FB40
:10A2A000B4AEBFAACABCB7A2CBCD210A0000000041
:10A2B000D6F7BBFAD7D6B7FBB4AEB7A2CBCDCDEAB3
:10A2C000B1CF210A00000000514955594559494A6A
:10A2D00049414E0000000000000000004661696C2A
:10A2E00020746F20696E697420706F727420696EBB
:10A2F000746572757074A3A1A3A1A3A10A000000E4
:10A30000506C656173652073656C65637420617260
:10A310006F756E6420506F72742041206F722043FD
:10A32000206F7220440A0000303132333435363722
:10A330003839414243444546323032303037313685
:10A34000000000002020A1BE55736572CCE1CABE9A
:10A35000A1BFA3BABDABBDF8C8EB55736572B5C458
:10A360006D61696E2829D6B4D0D02E2E2E0D0A002C
:10A37000674C656E74683A2025640A0025730A00EC
:10A38000307600005E7500005E7500005A750000B2
:10A390006475000064750000507800005A75000074
:10A3A0006475000050780000647500005A75000064
:10A3B000EE770000EE770000EE770000BA7800003C
:10A3C00000B0064000C00640C49B0000E29B0000B5
:10A3D000E29B0000D89B0000E29B0000E29B000093
:10A3E000E29B0000E29B0000E29B0000E29B000079
:10A3F000E29B0000BA9B0000E29B0000B09B0000C3
:10A40000E29B0000E29B0000CE9B0000589F0000F2
:10A4100002A2000002A2000002A2000002A20000AC
:10A4200002A2000002A2000002A2000002A200009C
:10A4300002A2000054A000002EA10000FE9C00001B
:10A4400002A20000DE9D000002A2000002A20000A5
:10A45000FE9C000002A2000002A2000002A2000076
:10A4600002A20000ECA1000034A0000074A00000D3
:10A4700002A2000002A200004CA1000002A2000003
:10A4800094A0000002A2000002A20000589F000059
:10A49000F8B5C046F8BC08BC9E467047F8B5C04643
:08A4A000F8BC08BC9E467047A1
:08A4A80020CCFF7F0100000041
:04A4B000396C000003
:04A4B400116C000027
:0400000300006C5934
:00000001FF
