:1068000000180020596C0000A16C0000A16C000071
:106810000000000000000000000000000000000078
:10682000000000000000000000000000A16C00005B
:106830000000000000000000A16C0000A16C00003E
:10684000A16C0000A16C0000A16C0000A16C000014
:10685000A16C0000A16C0000A16C0000A16C000004
:10686000A16C0000A16C0000A16C0000A16C0000F4
:1068700065990000A16C0000A16C0000A16C0000F3
:10688000A16C0000A9990000119A0000A16C000001
:10689000A16C0000A16C0000A16C0000A16C0000C4
:1068A000A16C0000A16C0000A16C0000A16C0000B4
:1068B000A16C0000A16C0000A16C0000A16C0000A4
:106C0000FFFFFFFFFFFFFFFFFFFFFFFFFEFFFFFF95
:106C100010B5064C2378002B07D1054B002B02D072
:106C2000044800E000BF0123237010BD24040020AD
:106C30000000000054A90000044B10B5002B03D045
:106C40000349044800E000BF10BDC046000000003A
:106C50002804002054A9000072B602F021F962B69F
:106C60000A490B4A0B4B9B1A03DD043BC858D05012
:106C7000FBDC0949094A521A03DD00208850043A16
:106C8000FCDA02F0F5FC02F06DF900007CA90000CE
:106C90000004002024040020240400204C040020D0
:106CA00000B5C04600BDC046002243088B4274D3E5
:106CB00003098B425FD3030A8B4244D3030B8B42FD
:106CC00028D3030C8B420DD3FF22090212BA030C06
:106CD0008B4202D31212090265D0030B8B4219D3E7
:106CE00000E0090AC30B8B4201D3CB03C01A524107
:106CF000830B8B4201D38B03C01A5241430B8B424F
:106D000001D34B03C01A5241030B8B4201D30B0337
:106D1000C01A5241C30A8B4201D3CB02C01A52415E
:106D2000830A8B4201D38B02C01A5241430A8B4221
:106D300001D34B02C01A5241030A8B4201D30B020A
:106D4000C01A5241CDD2C3098B4201D3CB01C01A24
:106D5000524183098B4201D38B01C01A524143092E
:106D60008B4201D34B01C01A524103098B4201D31C
:106D70000B01C01A5241C3088B4201D3CB00C01A89
:106D8000524183088B4201D38B00C01A5241430801
:106D90008B4201D34B00C01A5241411A00D2014626
:106DA000524110467047FFE701B5002000F0F0F8AF
:106DB00002BDC0460029F7D076E7704703460B4373
:106DC0007FD4002243088B4274D303098B425FD3E4
:106DD000030A8B4244D3030B8B4228D3030C8B4210
:106DE0000DD3FF22090212BA030C8B4202D31212F6
:106DF000090265D0030B8B4219D300E0090AC30BCB
:106E00008B4201D3CB03C01A5241830B8B4201D377
:106E10008B03C01A5241430B8B4201D34B03C01A60
:106E20005241030B8B4201D30B03C01A5241C30AD8
:106E30008B4201D3CB02C01A5241830A8B4201D349
:106E40008B02C01A5241430A8B4201D34B02C01A33
:106E50005241030A8B4201D30B02C01A5241CDD2D8
:106E6000C3098B4201D3CB01C01A524183098B4223
:106E700001D38B01C01A524143098B4201D34B010C
:106E8000C01A524103098B4201D30B01C01A52416F
:106E9000C3088B4201D3CB00C01A524183088B42F6
:106EA00001D38B00C01A524143088B4201D34B00DF
:106EB000C01A5241411A00D2014652411046704751
:106EC0005DE0CA0F00D04942031000D34042534056
:106ED00000229C4603098B422DD3030A8B4212D316
:106EE000FC22890112BA030A8B420CD38901921148
:106EF0008B4208D3890192118B4204D389013AD085
:106F0000921100E08909C3098B4201D3CB01C01A59
:106F1000524183098B4201D38B01C01A524143096C
:106F20008B4201D34B01C01A524103098B4201D35A
:106F30000B01C01A5241C3088B4201D3CB00C01AC7
:106F4000524183088B4201D38B00C01A5241D9D2DF
:106F500043088B4201D34B00C01A5241411A00D260
:106F60000146634652415B10104601D34042002B5C
:106F700000D54942704763465B1000D3404201B5DB
:106F8000002000F005F802BD0029F8D016E7704790
:106F90007047C0468446101C62468C46191C6346E6
:106FA00000E0C0461FB500F0BBFF002801D400215F
:106FB000C8421FBD10B500F013FF4042013010BDA4
:106FC00010B500F0ADFF002801DB002010BD01204E
:106FD00010BDC04610B500F0A3FF002801DD002061
:106FE00010BD012010BDC04610B500F035FF0028CF
:106FF00001DC002010BD012010BDC04610B500F01E
:107000002BFF002801DA002010BD012010BDC04672
:107010008446081C6146FFE71FB500F0F1FA00281E
:1070200001D40021C8421FBD10B500F073FA4042E0
:10703000013010BD10B500F0E3FA002801DB00209C
:1070400010BD012010BDC04610B500F0D9FA0028CF
:1070500001DD002010BD012010BDC04610B500F0BC
:1070600081FA002801DC002010BD012010BDC046BF
:1070700010B500F077FA002801DA002010BD0120D9
:1070800010BDC046002B11D1002A0FD1002900D11C
:10709000002802D00021C943081C07B4024802A1FD
:1070A0004018029003BDC046E9FEFFFF03B46846E6
:1070B00001B5029800F05AF8019B9E4602B00CBC44
:1070C0007047C0469E2110B5C905041CFFF7D0FFCC
:1070D000002803D1201C00F0D9FD10BD9E21201CEA
:1070E000C90500F00FFC00F0D1FD80231B069C4673
:1070F0006044F2E770B500220C4B04000D00FFF76E
:107100007DFF002804D12000290001F02BFD70BD77
:10711000064B00222000290001F0DCF901F022FDDD
:1071200080231B069C466044F1E7C0460000E04116
:1071300070B500220B4B0D00040000F059FFFFF763
:10714000D9FF060001F044FD0022074B00F050FF7C
:1071500002000B002000290001F0BCF9FFF7CAFF74
:10716000310070BD0000F03D0000F041F0B54F4629
:107170004646D646C0B5040082B00D0091469846FA
:107180008B422FD82CD04146484601F071FD290092
:107190000600200001F06CFD331A9C46203B9A4605
:1071A00000D576E04B46524693401F004B46624660
:1071B00093401E00AF4228D825D05346A41BBD41A2
:1071C000002B00DA7BE000220023009201930123D0
:1071D000524693400193012362469340009318E086
:1071E0008242D0D900220023009201930A9B002BF7
:1071F00001D01C605D600098019902B01CBC9046F3
:107200009946A246F0BDA342D7D90022002300929E
:1072100001936346002BE9D0FB079846414672086C
:107220000A437B0866460EE0AB4201D1A2420CD86D
:10723000A41A9D41012024196D410021013E24180A
:107240004D41002E06D0AB42EED9013E24196D41CE
:10725000002EF8D100980199534600196941002B7E
:1072600023DB2B005246D3402A006446E2401C0038
:1072700053461500002B2DDB26005746BE40330039
:1072800026006746BE403200801A99410090019165
:10729000ACE7624620239B1A4A46DA406146130057
:1072A00042468A4017001F4380E7624620239B1A0C
:1072B0002A0066469A402300F3401343D4E762460F
:1072C000202300219B1A0022009101920122DA4022
:1072D000019280E72023624626009B1ADE402F00A1
:1072E000B0466646B74046463B003343C8E7C04613
:1072F000F8B557464E464546DE464402E0B54600E0
:107300008846640A360EC70F002E63D0FF2E24D0A5
:107310008023E400DB041C43002399469B467F3E08
:10732000434642465D02D20F5B006D0A1B0E90463B
:10733000924665D0FF2B55D080220021ED00D2046B
:107340007F3B1543F61A43464A467B400F2A00D935
:107350008DE06D48920082589746002C54D1082346
:107360009946063BFF269B46DAE70025534602294D
:107370001BD0032900D1BFE0012928D030007F3085
:10738000002820DD6A0704D00F222A40042A00D0FA
:1073900004352A0103D530005C4A80301540FE28B0
:1073A00003DCAC01640AC2B201E0FF2200246402E3
:1073B000D205600ADB07104318433CBC904699464F
:1073C000A246AB46F8BD0122101A1B287CDD002224
:1073D0000024ECE7002C1DD104239946033B002632
:1073E0009B469DE7FF3E002D20D1022143464A46A1
:1073F0007B400A430F2AD8D84548920082589746C6
:10740000002D19D10121F1E70C239946093BFF26F4
:107410009B4685E7200001F00DFC7626431F9C402B
:1074200000237642361A99469B4679E74A4603235B
:107430001A439146032186E7280001F0FBFB431F16
:1074400036189D40763600217DE780240023E40332
:10745000FF22ACE700258023DB031C4228D01D421D
:1074600026D12B435C02640A4346FF229FE7620158
:107470006C01A24224D21B210025013E01271000ED
:107480006D005200002801DB944201D8121B3D43DD
:1074900001390029F3D11400621E944125436DE7A0
:1074A000BA46594625005346022900D061E77CE7D9
:1074B0008023DB031C436402640A3B00FF2276E75F
:1074C000121B1A210125D9E79E362A00B5402C004F
:1074D000C240651EAC411443620704D00F22224013
:1074E000042A00D00434620103D4A401640A0022F7
:1074F0005DE7012200245AE78024E4032C43640260
:10750000640AFF2253E7C04698A50000FFFFFFF77B
:10751000D8A5000070B542004E024C0045026D0A2D
:10752000120EC30F760A240EC90FFF2A0FD0FF2CAC
:1075300011D00120A24200D070BDB542FCD18B42D7
:107540000DD0002AF8D12800451EA841F4E70120FB
:10755000002DF1D1EBE70120002EEDD1E9E700206D
:10756000EAE7C04670B54A004E02450244006D0A83
:10757000240EC30F760A120EC90FFF2C15D0FF2A56
:107580000ED0002C15D1002A01D1002E1CD0002DC8
:1075900014D08B4227D00220013B1840013870BD27
:1075A000002EEED002204042F9E7002DFAD1FF2A4A
:1075B0000ED0002A0ED1002EEDD00BE001230139B0
:1075C000994308000130EAE70020002DE7D0E2E708
:1075D000002EE7D18B42DED1944205DD0221581EF8
:1075E00008400138DBE70024A24204DCB542D2D8CF
:1075F0000020B542D3D2581E012398430130CEE774
:1076000030B5420044024D02C30F4800640A120E16
:107610006D0A000EC90FFF2A12D0FF280CD0002AD5
:1076200012D1002819D1002D17D1002C2BD0022007
:10763000013B1840013826E0002DF0D0022022E066
:10764000002CFBD1FF281FD000281FD1002D1DD1F9
:107650000220013B1840013815E0002C0ED08B426F
:10766000E5D10022904204DCAC42E0D80020AC42DC
:1076700009D2581E01239843013004E00123013947
:1076800099430800013030BD002DD7D18B42CED1B7
:107690008242E7DD0221581E08400138F3E7C04668
:1076A000F0B54E4657464546DE46E0B543025B0A16
:1076B000450083B00F1C99462D0EC60F002D57D0E4
:1076C000FF2D24D08020DB00C00418430023814616
:1076D0009A469B467F3D7C027A00FB0F640A120E9D
:1076E000984623D0FF2A4BD0E30080240020E404F6
:1076F0007F3A1C43AD186B1C4746019353467740B5
:107700003A000F2B48D87D499B00CB589F46002B51
:1077100000D085E008339A46063B9B467C027A00FF
:10772000FB0FFF25640A120E9846DBD1002C00D017
:1077300090E0524601231A4392460120DBE74C4673
:1077400058461700022824D0032800D1CFE0002299
:10775000002301284DD15802D205400AFF071043EB
:10776000384303B03CBC90469946A246AB46F0BDB8
:10777000002B5BD104239A46033B00259B46AAE7D6
:10778000FF35002C60D1524602231A439246022054
:10779000B1E7FF220023DEE74B461B0C9C464B461D
:1077A0002604360C180461463300220C6446000C93
:1077B00043434E435043544380191A0C12189642C7
:1077C00003D9802149028C4664441B041B0C10041D
:1077D000C01883015E1EB341800E1843130C1B19A1
:1077E0009B0103431C00230179D5012362081C403F
:1077F0001443019A7F32002A4DDD630704D00F2322
:107800002340042B00D00434230103D53C4B019AC0
:107810001C408032FE2ABCDCA3015B0AD2B29AE78C
:107820000C239A46093BFF259B4654E7180001F0BC
:1078300001FA4A46431F76259A4000236D4291463D
:107840002D1A9A469B4646E7524603231A43924610
:10785000032050E7200001F0EDF9431F2D1A9C4052
:10786000763D002047E780230027DB03FF2272E7F5
:10787000424666E74C463200584662E780234A4655
:10788000DB031A4222D01C4220D123435B025B0A55
:107890004746FF225FE701239A1A1B2A21DC2300B7
:1078A0000199D3409E318C401A0023005C1EA341F5
:1078B00013435A0704D00F221A40042A00D004337D
:1078C0005A0111D49B015B0A002244E780234A46F7
:1078D000DB0313435B025B0A3700FF223BE70195A2
:1078E00087E70022002336E70122002333E78023C5
:1078F000DB0323435B025B0AFF222CE718A6000090
:10790000FFFFFFF7F8B54746CE464400C20F80B5EB
:1079100047024802400A8446664648007F0A240E11
:10792000F60025009046FB00000EC90FB146FF2867
:1079300000D185E001267140261A914257D0002ED1
:1079400043DD002800D07FE04946002900D1AAE0AD
:10795000013E002E00D0F7E05B1A5A0100D48BE004
:107960009B019C09200001F065F90538844085429F
:1079700000DDD3E0451B230020200135EB40451BF3
:10798000AC40621E94412343072400251C40012281
:1079900041460A40002C04D00F211940042900D090
:1079A0000433590100D480E00135ECB2FF2D00D042
:1079B000A3E0FF2400235B02E405580AD20720431A
:1079C00010430CBC90469946F8BD002E74D1601C43
:1079D000C0B2012800DCA7E04A469C1A620100D52B
:1079E000B6E0002CBED1002200240023E3E7002EE5
:1079F00000DC85E0002846D0FF2C49D08022484694
:107A0000D2041043814601221B2E09DC20204C4663
:107A1000801B84404A462000F240441EA04102439D
:107A20009B185A0128D50135FF2D00D1A8E001226D
:107A3000072494491A405B080B4013431C40A6E7F7
:107A4000002E00D078E775E7FF2C54D080224946FD
:107A5000D2041143894601221B2E09DC202148460D
:107A6000891B88404A460100F240481E81410A4372
:107A70009B1A5A0100D573E7012241460A40590773
:107A800000D089E711E04846002858D1FF2C0CD1DE
:107A9000DB08002B00D18CE78020C00303435B028E
:107AA0005B0AFF2487E7FF2C25D0DB08FF2DF0D0F1
:107AB0005B025B0AECB27EE7002C4DD0FF2818D0A9
:107AC0008024E404724223431B2A00DDC4E01C002E
:107AD0002025D440AA1A93405A1E934123434A4674
:107AE0000500D31A884638E7721CF8D0F243FF2805
:107AF000EAD10A004B46FF25D7E79B015B0A5AE70C
:107B0000002E41D1651CE9B2012945DDFF2D00D1D0
:107B10004FE707244B445B081C4038E707225A4BC9
:107B20002D1A2340144032E7002C1DD1002B7AD1AE
:107B30004B46002B00D191E00A000025B5E7013E3D
:107B4000002E19D14B446CE7FF2C84D1FF25ACE704
:107B50004A468846D41A05E7002BC5D10A00FF28FB
:107B6000C8D005004B46A0E7002B49D14B46002B5F
:107B700077D00A00FF2598E7FF2C00D043E787E77E
:107B80000A00FF24002316E7002C15D1002B57D143
:107B9000FF28E6D14B467BE7002C20D1002B57D0A5
:107BA0004946002953D04B445A0168D50724364A28
:107BB0001C4001251340EAE6FF28EBD08022D204C6
:107BC000764213431B2E53DC2025AD1B1A00AB401D
:107BD000F2405C1EA34113434B44050021E7002BF8
:107BE000D8D04946002900D152E78021C9030F426D
:107BF00000D14DE76046084200D049E74B4647E7D1
:107C00004846FF25002800D14FE78022D2031742C3
:107C100004D06046104201D14B46884601224146BD
:107C2000FF250A4041E7484600281FD01A1A500194
:107C300020D54A460724D31A1C4088460025A6E6CC
:107C4000741CC9D0F643FF28BCD14B4620E79946A7
:107C50004B460025DB082BE7012340E700220023E9
:107C6000A9E680230022DB03FF24A4E600251CE70D
:107C70000123B1E7002AF1D013000025FCE600251E
:107C8000FAE6C046FFFFFF7DFFFFFFFB4102420017
:107C9000C30F490A120E00207E2A0DD99D2A0CD846
:107CA000802000040143952A0ADC9620821AD140E4
:107CB0004842002B00D108007047034A9818FBE7A0
:107CC000963A9140F4E7C046FFFFFF7F70B5002869
:107CD0003DD0C317C5185D40C40F280000F0AAFFAF
:107CE0009E22121A962A07DCD2B2082833DD083801
:107CF00085406802400A23E0992A0BDD052329000C
:107D00001B1AD94003001B339D402B005D1EAB4165
:107D100019430D00052801DD431F9D402B000F492D
:107D20000B406E0709D00F263540042D05D00433D3
:107D30005D0102D59F220B40121A9B01580AD2B254
:107D40004002D205400AE4071043204370BD0024DE
:107D500000220020F4E76802400AF1E7FFFFFFFB82
:107D600070B5041E34D000F065FF9E22121A962AC8
:107D700007DCD2B208282EDD083884406002400AB1
:107D800021E0992A09DD030021001B3399404B1E95
:107D9000994105231B1ADC400C43052801DD431FD4
:107DA0009C4023000D490B40650709D00F252C404E
:107DB000042C05D004335C0102D59F220B40121A1B
:107DC0009B01580AD2B24002D205400A104370BD4E
:107DD00000220020F7E76002400AF4E7FFFFFFFB04
:107DE000F0B54F464646D6468446C0B58046194E45
:107DF00018030F034D00000B5C0082463F0B6D0D16
:107E0000C90F9146640DDB0F0120B5420AD0B44280
:107E100003D0A54201D157450CD01CBC90469946D1
:107E2000A246F0BD66463E43F7D1AC42F5D154467A
:107E30001443F2D10120C845EFD1994207D0002D5B
:107E4000EBD163461F433800471EB841E5E70020E9
:107E5000E3E7C046FF070000F0B54F464646D6466A
:107E60004D00C0B50E03C90F8A462C491F035C00A4
:107E70008046360B6D0D91463F0B640DDB0F8D4236
:107E80001ED08C4216D0002D1ED130438446002CCB
:107E900001D13A4323D06246002A1AD09A4529D00C
:107EA000514602200139084001381CBC90469946D1
:107EB000A246F0BD39001143E5D002204042F4E76C
:107EC0003043FAD1AC420FD0002C0FD13A43E7D067
:107ED0000CE00122013B934318000130E5E76346C3
:107EE0000020002BE1D0DBE73A43E6D19A45D7D119
:107EF000A542D5DCA54205DBBE42D1D808D0002082
:107F0000BE42D2D250460123013898430130CCE71B
:107F1000C845C5D80020C845F4D3C6E7FF07000010
:107F2000F0B54F464646D6464D00C0B50E03C90FC4
:107F30008A462E491F035C008046360B6D0D914624
:107F40003F0B640DDB0F8D4218D08C4211D0002DF9
:107F500018D130438446002C1ED13A431CD16346CD
:107F60000020002B30D05146022001390840013852
:107F70002AE039001143EAD0022025E03043FBD14A
:107F8000AC4226D0002C26D13A4324D151460220BF
:107F900001390840013817E06246002A0FD09A459F
:107FA000E1D1A54205DBBE42DDD819D00020BE429A
:107FB0000AD25046012301389843013004E00122DF
:107FC000013B9343180001301CBC90469946A246E1
:107FD000F0BD3A43D0D19A45C5D1A542C3DCE0E714
:107FE000C845C0D80020C845E3D3EDE7FF0700002F
:107FF000F0B55746DE464E464546E0B58346060098
:108000000F03480087B092461D003F0B400DCC0F78
:10801000002800D16FE0DE4B984238D08023FF006B
:108020001B041F43730F3B430193DA4B0027994610
:1080300000239B46F60081442B0369001B0B52462C
:108040009846490DED0F002900D185E0D04B9942AB
:1080500000D173E04346DA0080231B0413435246E9
:10806000CC48520F84461343524600206144D2004C
:1080700089442100694000918C46012149448A4687
:108080000F2F00D990E0C449BF00CF59BF465B46CF
:108090003B43019300D06AE1022308270026814672
:1080A0009B46C9E732005846019B61460091022871
:1080B00000D175E0032800D1FEE1012800D02CE1B9
:1080C00000230027002600253F032A0D3F0BB3485D
:1080D00012053A4302401B051343009A5B00D10787
:1080E0005B080B433000190007B03CBC9046994632
:1080F000A246AB46F0BD5B463B43019300D12FE166
:10810000002F00D1A5E1380000F094FD03000B3BE7
:108110001C2B00DD96E11D22D31A5A460100DA40DD
:108120005E4608398F4013008E403B4301939C4BC1
:1081300000271B1A994600239B467DE7414653467C
:108140000B4393498C46E144002B00D01AE10222F4
:108150000220174300228CE7134300D10DE1434670
:10816000002B00D181E1404600F064FD02000B3A93
:108170001C2A00DD72E10100434608398B40984615
:108180001D239A1A5346D3401A00434613435246BE
:108190008A404946081A824989468144002068E796
:1081A0007B4B002700268EE7140C1204120C1100E2
:1081B000370C3604350C794328008C462E0060437A
:1081C0006044834656432100300C8046584679432C
:1081D00040440291844506D98846802149028C4654
:1081E000E044414602913604010C360C00048B46F3
:1081F00081191E0C1B041B0C0391190079438C463A
:10820000280075436544A8465843050C4544774308
:10821000A94203D9802149028C466744290C8C4627
:1082200039000004000C2D042D186144AB44059165
:108230005946049101990F043F0C080C3900514331
:108240004243904602008C46090C8B4662437C43B5
:1082500044445C44A04503D98021490288464244F5
:10826000210C884661460904090C8C4639005943A3
:10827000434370437E430F0CF6182404BE19644434
:1082800042448C46B34203D980235B029846404463
:10829000029B61469846049B370443449B46AB458A
:1082A000AD416B420D0405992D0C8C467F19674436
:1082B000FD18A8465D462D19A542A4419346644287
:1082C000A446C344DC448F42BF4198459B4193453B
:1082D0009241A445A4415B427F421F43360C524267
:1082E0006442BF192243BF18624638184302D20DB8
:1082F000039913436A020A43501E82416146ED0D01
:108300002A434E023243D90100D4B3E0012650087B
:1083100032400243DE0732435B08224C5444002CB7
:1083200062DD510709D00F201040042805D0101D30
:108330009042924152429B180200D90104D58024F8
:108340001948E400034054441848844200DD27E7FC
:108350005E075B02D2081F0B630516435B0DB2E696
:10836000002399460133042700269B4664E6032335
:10837000019781460C279B465EE6012201201743A8
:10838000002276E6032303201F43434671E6C046DE
:10839000FF07000001FCFFFF58A60000FFFF0F8051
:1083A0000DFCFFFFFF030000FFFFFFFEFE070000C4
:1083B0000023802700933F030026434B83E6019B65
:1083C0003200A446584670E6AC466EE68027019916
:1083D0003F0339422DD03B422BD11F433F033F0B7C
:1083E00000951600384B6EE601252D1B382D00DD5B
:1083F00066E61F2D40DC35481C00504416008240C4
:108400008440EE40501E824134431443EB406207E7
:1084100009D00F222240042A05D02200141D9442C4
:10842000804140421B181A023ED501230027002636
:1084300049E68027019B3F031F433F033F0B009406
:10844000214B40E603005A46283B9A400026019201
:108450006DE6584600F0EEFB203057E6030052462A
:10846000283B9A401300002293E6504600F0E2FBBE
:1084700020307BE6CA4650E71F201E004042041B06
:10848000E640202D03D0124C5444A3401A43501E02
:108490008241324307260027164009D00F200023CF
:1084A000104014000428B9D122005E075B021F0BA4
:1084B000D2081643002306E680273F031F433F03ED
:1084C0003F0B1600004BFEE5FF0700001E040000F6
:1084D0003E040000F8B557464E464546DE460C00C1
:1084E0000903E0B5490A460F5F0031431E03DB0F65
:1084F000760A9B46530F3343C84E6500C000E40F15
:10850000D2006D0DA24681467F0D9C469046B74233
:1085100000D1B9E05B46012673409B46EE1BA345A4
:1085200000D183E0002E63DD002F00D0B1E0634670
:10853000134300D123E1731E002B00D0BAE1861A49
:108540006346B04280410125C91A4042091A0B0214
:1085500000D447E149024B0A98464346002B00D11C
:1085600089E1404600F066FB0300083B1F2B00DD5D
:108570007CE120223000D21A4146D04099400200CE
:108580009E400A439D4200DD6AE15D1B6B1C1F2B70
:1085900000DD94E1202110003500C91A8E40DA4038
:1085A0008840DD40711E8E411100072228430025BE
:1085B00006433240002A09D00F233340042B05D054
:1085C000331DB342B641764289191E000B0200D416
:1085D0003DE26A1C914B55056D0D9A4200D119E19F
:1085E0008F4AF6080A40570752023743120B9BE0A6
:1085F000002E00D0C5E06E1C7605760D012E00DC45
:1086000048E16746861ACB1BB042BF417F42B8465D
:108610001F004346FF1A3B00B8461B0200D55FE12E
:1086200037439AD100220024002579E0002E00DC97
:10863000FAE0002F00D18DE0784B9D4267D0802377
:1086400067461B041F43BC46382E00DC52E16346DC
:1086500013435A1E93411E18864280414042091816
:108660000B0200D4BEE06D4B01359D4200D1D2E03B
:108670006B4A73080A4001210E401E435108D3077C
:1086800007221E43324095E71E00164300D045E7FF
:1086900040E7624B9D423AD0802367461B041F434C
:1086A000BC46382E00DDEBE01F2E00DC3AE1330043
:1086B0006746203BDF403B00202E05D04027BF1BF4
:1086C0006646BE40324390464646721E964133434C
:1086D000DAE0002B00D114E26346134300D168E1D5
:1086E00080234E07C008C9081B030643194208D05F
:1086F0006046C008184204D163460100D2085E07F4
:108700001643F3009946C900720F444D11434B467E
:10871000DE08424B4F073743CA089D4200D16EE046
:1087200012036D05120B6D0D00211203130B0A0DC0
:1087300012051A433B4B2D0513402B435B00E40706
:108740005B082343380019003CBC90469946A2467A
:10875000AB46F8BD6346134311D0731E002B00D007
:1087600007E186188642804161444042091801258C
:108770000B0237D502257BE73E0061469146350066
:10878000C5E75C46002D00D0E1E00B000343F3D0C9
:10879000731C00D1ACE1214B9F4200D13AE1F3437D
:1087A000382B00DD6FE11F2B00DD8CE120250E0052
:1087B000ED1AAE40B0460600AA46DE4045463543B7
:1087C0002E005546D940A8406346451EA8415B1A75
:1087D0009C463043161AB242924163465242991A5D
:1087E0003D00B4E607223240002A00D0E4E60B4BFD
:1087F000F6084F073743CA089D4200D090E73B0078
:10880000134300D1A6E180231B031A431203120B6A
:10881000024D89E715000022002785E7FF070000C9
:10882000FFFF7FFFFFFF0F80002E00D0C7E06B1C13
:108830005E05760D012E00DCF0E0C84DAB4200D1A4
:10884000B9E085180A0085428941624449425118BD
:108850000722CE076D082E43490832401D00A9E6C5
:10886000BF49ED1A114007223240A3E632002838F2
:108870008240002686E6300000F0DCF9203073E606
:10888000634613435A1E9341C61AB0428041404288
:10889000091A5CE60E00674606431743002D5ED1B9
:1088A000002E00D0F3E0002F00D11EE15C466146AF
:1088B00091462CE7A94FBE427BD01E00F1E6100086
:1088C0001F3DE840202B03D04021CB1A9A4016438D
:1088D000731E9E410722064332400021002583E794
:1088E000161A6346B2428041591A40420B1A984602
:1088F0005C4632E61F2E00DDABE02027BB1B9A460C
:1089000063465746BB40994613004F46F3401F430A
:108910003B005746BA40571EBA4113436246F240E5
:10892000891898E62027BB1B9A4663465746BB40EA
:10893000994613004F46F3401F433B005746BA4049
:10894000571EBA4113436246F240891A9CE7834B93
:108950009F425FD080252D047342294320E7002EDB
:108960000CD1002F00D1D0E05C46614691467B4D92
:10897000CDE67A4FBE421CD01E0065E6002F18D00F
:10898000C0084E0706438020C9080003014208D0F2
:108990006346DC08044204D12100DA46D2085E07AF
:1089A0001643F300994601245346C900720F114340
:1089B0001C406A4DABE61D0000220027B4E6002DE6
:1089C00059D10B00034300D1D6E6731C00D1B2E0AD
:1089D000624B9F421ED0F343382B6FDC1F2B00DD10
:1089E00097E020250E00ED1AAE40B0460600AA46DC
:1089F000DE40454635432E005546A840D940451E29
:108A0000A8418C440643B6189642924151426144B3
:108A10003D0025E63D006146914678E60B000343A4
:108A2000002D00D055E6002BF5D06346134300D14E
:108A30006DE6861886428041614440420918002252
:108A40000B0200D4D0E6464B01351940B2E5B146E1
:108A50005DE633006746203BDF403B00202E05D01B
:108A60004027BF1B6646BE40324390464646721EB4
:108A700096413343EFE5394B9F42CBD080252D04FF
:108A800073422943A8E70843411E8841A2E6002F0C
:108A900000D13CE66346861ACF1AB0429B415B4246
:108AA000FB1A98461B024ED5161A6346B2429241F3
:108AB000591A5242891A5C4600227BE501430E0096
:108AC000711E8E419FE71D000E00203DEE40B04616
:108AD000202B04D04025EB1A994008438146484694
:108AE0004346411E8841184374E60022002417E6DD
:108AF000161A6346B2429241591A5242891A3D00EF
:108B000025E561469146154D01E6802200241203B9
:108B100079E61D000E00203DEE40B046202B04D02B
:108B20004025EB1A9940084381464E464346711E44
:108B30008E411E4367E7861896429B4161445B4223
:108B4000C9183D008CE547463743CED00722414641
:108B5000324049E600273A00E6E5C046FF0700003C
:108B6000FFFF7FFF30B5144D0A034B00120B5B0D66
:108B7000C90F0024AB4211DD104CA34210DC80244D
:108B8000640322430E4CE41A1F2C0CDD0D48C31A5B
:108B9000DA4013005C42002900D11C00200030BDE7
:108BA000094BCC18FAE7094DE040AC4663449A40C3
:108BB00013000343EEE7C046FE0300001D0400005F
:108BC0003304000013040000FFFFFF7FEDFBFFFFF5
:108BD00010B5041E25D000F02DF8144B1B1A5B05B0
:108BE0005B0D0A2812DD0B38844000222403240B7D
:108BF0000021100024030A0D240B120522430C4C03
:108C00001B05224013435B00590810BD02002100E0
:108C1000153291400A000B21081AC4402403240B8A
:108C2000E6E7002300240022E2E7C0461E0400001D
:108C3000FFFF0F801C2101231B04984201D3000C6D
:108C400010391B0A984201D3000A08391B099842BF
:108C500001D30009043902A2105C40187047C046D5
:108C600004030202010101010000000000000000F5
:108C700010B5002903D1FFF7DDFF203002E0081C0A
:108C8000FFF7D8FF10BDC0460023C25C0133002AA5
:108C9000FBD1581E7047000010B50B4B0B4A99587A
:108CA0000124214399501A688021C9021143196097
:108CB000074B59680522114359600004000C986065
:108CC0001A6822431A6010BD00700440381000007A
:108CD00000000440044A136840210B431360034B17
:108CE000802252051A6070470000044000E100E055
:108CF000F8B507000D00161C284B29481A583C00EF
:108D000018340121A1400A431A50B900254A8A5853
:108D100000211160244A9858802149040143995048
:108D2000995822480140995029002148FDF7BCFF7D
:108D3000002401E0013440080128FBD8BB00194A97
:108D40009B5800225A602800FFF70AF8311CFEF7F2
:108D5000A7FC051C1749FEF781F900280ED1002158
:108D6000281CFEF771F9002816D1FE218905281C60
:108D7000FEF7C8FDFEF7A6F980B200E00E48094BE9
:108D8000BF00FA589060F9580B68072214401C4342
:108D900048231C430C60F8BD0020F0E7007004403D
:108DA0003C1000000004002004100000FFFFFEFF44
:108DB00080BB000000FF7F47FFFF000010B5041ECE
:108DC00004D0431EDBB2012B04D910BD0800FFF70D
:108DD00063FFFAE70800FEF7C3FF021CA0B20249D6
:108DE000FFF786FFF1E7C046B80B0000022800D964
:108DF0000220044B1B5C1F221A4001239340024AAD
:108E0000136070470C04002000E100E010B500285A
:108E100004D0431EDBB2012B03D910BDFFF75AFF6C
:108E2000FBE7FFF7E3FFF8E78000044BC3581B683C
:108E30001B0601D4002070470120FCE7000400203D
:108E400010B5002805D1074B1B681B0606D501305D
:108E500004E0431EDBB2012B01D9002010BDFFF757
:108E6000E3FFFBE7000004408000034BC258136897
:108E700080210B43136070470004002010B50028C8
:108E800006D0431EDBB2012B07D8FFF7EDFF04E04D
:108E9000024A136880210B43136010BD0000044098
:108EA000264B274AC02189029950264958588022CA
:108EB000920002435A50244B9B781B0704D5224A48
:108EC000937808210B4393701C4B1D4A8021490263
:108ED00099501E4A99581E480140995019681D48DA
:108EE0000140196099581C480840802149040143F9
:108EF00099501A4B06221A705A7840210A405A702B
:108F0000D97849B21F2211407F3A0A43D2B2DA70AF
:108F1000002213490A701A715A71104B9B79DB06B3
:108F2000FBD50E4B9A790C231A42FAD10349054A14
:108F30008858F8239B0103438B507047007004400E
:108F4000441000003810000000D00740041000005A
:108F5000FFFFFCFFFFFFF3FFFFFFFFFC00400640A9
:108F60000050064070B582B072B600F083F9384BFD
:108F700000241C705C709C70012201210D2000F007
:108F80003DF9E1214902002000F0BEFB142101203F
:108F9000FFF714FF2F4EF0256D00019400942E4B27
:108FA000320029002D4800F00DFA2D4C022332002A
:108FB0002900200001F008FA0120FFF727FF200018
:108FC00001F0C0FA002000F0A5FC62B6254C20009C
:108FD00001F05AF9244801F057F9244801F054F9F6
:108FE000234801F051F9234801F04EF9224801F0DD
:108FF0004BF9200001F048F9002241210FE0002147
:109000000D2000F0D9F8124B19785A789B781B483C
:1090100001F03AF91A4801F037F922004C21C04614
:109020000B4B9C789442FAD04129E8D001210D20C5
:1090300000F0C2F8064B19785A789B780F4801F077
:1090400023F9104801F020F922004121E7E7C0464A
:1090500044040020740E0000000048420102000099
:109060000202000098A60000D0A60000ECA60000B6
:10907000FCA6000034A7000068A70000A8A7000015
:10908000B4A70000C0A7000010B501F073FA10BD2E
:1090900000238B4206D28202D25CFF2A05D1013323
:1090A0009BB2F6E70120C0B270470020FBE700004A
:1090B0000F4B30221A70EFF31083002B12D172B6CF
:1090C0002F3A0B4B80211970094B1B785BB2002B98
:1090D000FADA012A08D0064B1A7831231A4205D150
:1090E000002070470022ECE762B6F4E70120F8E7C1
:1090F0000000024010B58402164B0922DA71820486
:10910000120E9A718006000E5871E2B21A71FFF7C2
:10911000CFFF01281BD0104B9C4201D9002010BD6D
:109120000C4B0622DA7100229A7104325A7108320D
:109130001A71F332DA729A725A72013A1A72FFF79E
:10914000B7FF012801D00020E9E70130E7E701205F
:10915000E5E7C04600000240FF030000F8B50F003D
:109160001400124B0622DA7105000026B74218D906
:109170002A02120E0D4B9A712A04120E5A71EAB28B
:109180001A71E278DA72A2789A7262785A72227848
:109190001A72FFF78DFF012805D004360435043418
:1091A000E4E70020F8BD0220FCE7C04600000240D2
:1091B000030A0B701070704730B583B00D006B461A
:1091C000DC1D9A1D2100FFF7F3FF23789B000A4A5C
:1091D0009B58012D08D01A68694688790121814081
:1091E0008A431A6003B030BD1A6869468879012144
:1091F00081400A431A60F5E7CCA70000F0B585B0BE
:1092000004000F00019202AB9E1DDD1D32002900FB
:10921000FFF7CEFF2A789200134BD35813495058CA
:1092200032789200D158124D2940D15032789200B4
:10923000D658802149003143D150012F08D04369CD
:1092400002AA917901228A409343436105B0F0BD9F
:10925000436902AA917901228A401343436101992B
:109260002000FFF7A9FFF1E7E0A70000CCA700006E
:10927000FFF8FFFF0349882252018B580C208343DB
:109280008B50704700700440224B984227D00ED973
:10929000C1239B00984227D01F4B984229D01F4BD7
:1092A000984212D100230B70033313700DE01C4B56
:1092B000984207D01B4B984207D100230B70013313
:1092C000137002E000230B701370030AC0B2012B6D
:1092D0001AD9042B1AD0022B10D0042015E0002339
:1092E0000B7002331370F0E700230B70043313701C
:1092F000EBE700230B7005331370E6E70838C0B2C4
:10930000012805D9042000E0032070470320FCE772
:109310000320FAE703020000050300000303000036
:109320000102000002020000F8B5040015001F4B06
:109330001F4E9A59070018370120B84002439A512E
:109340001C4A9E58802040043043985098581A4E2A
:1093500030409850A200194BD35800221A60184888
:10936000FDF7A2FC002301E0013340080128FBD8EF
:10937000A2001249525800215160002D0FD0A200C6
:109380000E495258013D9560A4000C4AA05802684D
:1093900007210B401343402213430360F8BDA20092
:1093A0000649525800219160EEE7C0460070044023
:1093B0003C10000004100000FFFFFEFF140400201A
:1093C00080BB0000F0B5C64600B586B0040003912E
:1093D0000292181C01930CAB1F780DAB1D788749C6
:1093E000FDF73CFE002801D0844B0193230AE2B232
:1093F00090469B00824A9E5804AB9A1DD91D2000BE
:10940000FFF742FF43469B009A597E490A409A5112
:109410009A590002E021C900084010439851012FD9
:1094200039D004ABDC1DD879029A0399FFF77CFF91
:10943000754A23789B0099580B68202083430B6062
:109440002678B3009A5804AB9C79631CDB00D318D0
:109450000021596097680137002D00D092E0631C0D
:10946000DB00D218282353603800FEF779FC0199FD
:10947000FEF716F96149FDF73BFFFDF723FE634B4D
:10948000984277D9B600604BF3580134E4001C19B8
:109490005E4BA3609BE0029E720804ABDC1DD87992
:1094A0000399FFF741FF584A23789B0099580B68AE
:1094B000202003430B602778BB009B5804AA9479B3
:1094C000621CD2009B1800225A60002D26D1BB00DE
:1094D0004D4A9B58621CD2009B1828225A603000CB
:1094E000FEF7F4FB0199FEF7DBF84949FDF700FFB1
:1094F000FDF7E8FD454B984208D9BF00424BFB58A9
:109500000134E4001C19414BA36060E0BF003E4BF6
:10951000FB580134E4001C19A06058E0BB003A4A33
:109520009B58621CD2009B1824225A600199334830
:10953000FEF7E8F9051C0298FEF7C8FB291CFEF7A8
:10954000AFF83349FDF7D4FEFDF7BCFD2F4B984231
:1095500008D9BF002C4BFB580134E4001C192B4BDD
:10956000A36034E0BF00284BFB580134E4001C1911
:10957000A0602CE0B600244BF3580134E4001C1921
:10958000A06024E0631CDB00D21800215160B2000F
:109590001D495258D31824225A6001991748FEF7E2
:1095A000B1F9051C3800FEF7DBFB291CFEF778F843
:1095B0001249FDF79DFEFDF785FD144B984214D826
:1095C000B600114BF3580134E4001C19A06004AB41
:1095D00007331B789B000C4A9A58136808210B43E9
:1095E000136006B004BC9046F0BDB600064BF358BD
:1095F0000134E4001C19054BA360E8E70000C842F1
:10960000F4A70000FFF8FFFF14040020FFFF000094
:1096100000004843F0B583B007000C1C1249201C21
:10962000FDF71CFD002800D00F4C6B469E1DDD1D74
:10963000320029003800FFF727FE2B789B000B4AE9
:109640009D58A868FEF78CFB211CFEF729F80649F7
:10965000FDF74EFE3478FDF735FD0134E4002C199A
:10966000A06003B0F0BDC0460000C8421404002052
:1096700080B51D4FBD4418213F20FFF709FD00288C
:109680002BD18022D021D200C90102A8FFF7FCFC17
:1096900078231B68209A9A4210D01A20FFF72AFDDF
:1096A00008231B68049378231B680193209380216F
:1096B000D02002AAC900C001FFF750FD0B4BD022F9
:1096C000D2019A600A4BE02292011A60094800F028
:1096D000DBFD8123DB009D4480BDFC20064A182170
:1096E0000002FFF73BFDCCE7F8FBFFFF00ED00E0D9
:1096F0004804002024A8000008A80000022801D87F
:10970000012070470020FCE770B504000D00FFF752
:10971000F5FF00282BD0002C2AD0012C00D16DE0C1
:10972000022C00D177E0013CA400414BE458E378DF
:109730000C229343E3703F4B186840082901FDF762
:10974000B3FA23781F22934302121F210A401343C6
:109750002370C0B260700023A370A3716371E378BB
:109760007F221340E370E3780C221343E37070BD53
:10977000314B324A98588021C90401439950995875
:109780002F48014099502F49086D8022D200104384
:109790000865486D104348652B49585802435A5094
:1097A0002A4CE3780C229343E3702901214B18687B
:1097B000FDF77AFA23781F22934302121F210A40F1
:1097C00013432370C0B260700F23A3720023A370F1
:1097D000A3712372637223791F2213432371637968
:1097E000402252421343DBB26371E378BF3213402D
:1097F000E370E3780C221343E370B8E7114BC02207
:1098000092001A605A600C490F4A885880231B0145
:1098100003438B5087E70B4BC02292001A645A64B3
:109820000549094A885880235B0103438B507AE736
:1098300050A8000010040020007004400410000034
:10984000FFFFFEFF00D004403410000000A00640DF
:1098500070B505000C00431E9B00114A9E58FFF78F
:109860004DFF002816D0002304E0327952B2002ABE
:1098700011DB01330B4A934208D8002DF5D10A4A77
:10988000127952B2002AF4DA074AD471054A934297
:1098900003D8012070BDF471F8E70020FAE7C04654
:1098A00050A80000BAFB000000A0064070B50400FC
:1098B0000E00431E9B00144A9D58FFF71FFF00280F
:1098C00001D0002306E00023337070BD2A79920690
:1098D00015D401330D4A93420AD8002CF6D10C4A14
:1098E00012799206F5D50A4AD079C0B201223270B7
:1098F000064A9342E9D900233370FF20E5E7E8796F
:10990000C0B201223270F3E750A80000BAFB000099
:1099100000A0064070B50400431E9B000D4A9D58F0
:10992000FFF7ECFE00280ED0002C0DD10A4AD378A8
:1099300020210B43D370094B1B5D1F221A400123CA
:109940009340074A136070BDEB7820221343EB70FD
:10995000F1E7C04650A8000000A006402004002007
:1099600000E100E030B583B072B66B46DC1D21002B
:109970000020FFF79BFF05002378002B02D162B681
:1099800003B030BD0200303A93009B185800FEF738
:109990009DF9011C0348FFF73DFE29000020FFF759
:1099A00057FFECE70102000010B572B6094800F05D
:1099B000AFFD002801D162B610BD064C200000F0BA
:1099C00075FD0100044800F05FFC200000F086FDFA
:1099D000F1E7C0460202000058A800008378013376
:1099E000DBB283703B2B11D90023837043780133A2
:1099F000DBB243703B2B09D900234370037801335A
:109A0000DBB20370172B01D90023037070470000ED
:109A100010B572B60120FFF713FA00281ED01D4BB7
:109A20001B78002B1CD11C4C2078FEF799F9011CE7
:109A30001A48FFF7EFFD23780233DBB22370612B66
:109A400002D9144B01221A70154A13780133DBB284
:109A50001370312B16D80120FFF710FA62B610BD33
:109A60000D4C2078FEF77CF9011C0C48FFF7D2FD65
:109A70002378023BDBB22370042BE5D8054B002290
:109A80001A70E1E7130000221A700648FFF7A6FFDC
:109A9000E1E7C04641040020230400200102000049
:109AA000400400204404002010B50C001368012B72
:109AB00005D0022B07D023680133236010BD536803
:109AC00040B29847F7E79368187093680133936042
:109AD000F1E7F0B583B016001D00471C00230370AA
:109AE000002A1FD00C68002C01D000260BE0303378
:109AF00043700126300003B0F0BD3023591A39708D
:109B000001360137019C002CF4D029002000FDF71C
:109B100055F9019029002000FDF736FA0029ECDB09
:109B20003031ECE70C68002C08D13023437001265B
:109B3000E0E737343C70013601370400002CD9D0FF
:109B400029002000FDF7B0F803006B43E41A092C4C
:109B5000EFD83034EEE7F8B504000D0017001E0012
:109B600005E0320039003020FFF79EFF0134AC429F
:109B7000F7DBF8BDF8B504000D0017001E0005E086
:109B8000320039002020FFF78FFF0134AC42F7DBB1
:109B9000F8BD10B5C1B20220FFF75AFE10BD00009B
:109BA000F0B5D6464F4680B59BB0040089461500F7
:109BB0001422002115A800F0E6FC4C22002102A886
:109BC00000F0E1FC2668676830003900FDF792FA82
:109BD0008246FEF7FDFF02000B0030003900FEF761
:109BE00079FC06000F00002D0ED14B4A4B4BFEF7BF
:109BF000FFF9FDF79DFA04000191002515E0002210
:109C0000474BFEF7F5F925006C1E002DF7D1FDF747
:109C10008FFA04000191F0E70022414B3000390037
:109C2000FEF7E6F906000F00013500223D4B30003B
:109C30003900FDF7C5F90028EED16F1E5346002B01
:109C400021D130334A4613702F3B9A4653465D1C50
:109C50002E234A4651465354019B234323D00026CA
:109C600039E0751C0A215046FDF7A4F8B60015AB83
:109C7000F1500A215046FDF717F882462E00534650
:109C8000002BEED10CE00026F9E7013EB20015AB47
:109C9000D35830334A465146535401239C46E2443C
:109CA000002EF2D1D2E73033535501352AE00A2293
:109CB000002320000199FDF7E5F9731C9A46B600D0
:109CC00002ABF2500A22002320000199FDF7DAF9D5
:109CD000040001915646019B2343E8D105E0B300FF
:109CE000002202A95A50013F0136002FF7D107E0A8
:109CF000013EB30002AA9B5830334A465355013502
:109D0000002EF5D14B465B1900221A7028001BB0BB
:109D10000CBC91469A46F0BD00A0D88557347643D6
:109D2000000024400000F03FF0B5DE4657464E46A6
:109D30004546E0B595B000900D0090460BAC212251
:109D40000021200000F01FFC3023237000230A9321
:109D50000133019300239A460BE0009C22000AA9DC
:109D60000D20FFF7A1FE22000AA90A20FFF79CFEA2
:109D7000013500202856002800D17CE2252822D079
:109D80000A28EAD0009A0AA9FFF78EFEF0E701231D
:109D90001E43050000291BD1681C0123EB56203B04
:109DA000DAB2102A12D89300BE4AD3589F46022333
:109DB0001E43EEE704231E43EBE708231E43E8E7B8
:109DC00010231E43E5E700260021E3E70121E1E738
:109DD000002400231F0000E00F00002F0ED1681C9C
:109DE0000123EB561A00303AD2B2092AF4D8A20065
:109DF00012195400303BE4180500EEE7BB466F1C17
:109E00000123EB562E2B19D00023994601936B1C8E
:109E10000122AA56682A04D06C2A27D04C2A2AD0BC
:109E20002B005D1C012018560300583BDAB2202A93
:109E300000D918E293009C4AD3589F460023002083
:109E400000E0584600280ED17D1C0122BA561100B0
:109E50003039C9B20929F4D89900C9184B00303AF1
:109E60009B182F00EEE799463D00D0E701225146AE
:109E700011438A46D5E70222514611438A46D0E76C
:109E800043460433029343461B6809930A23012285
:109E900009A90BA8FFF71DFE81460BAF4F44099B94
:109EA000002B07DBB30719D501239C46E1442A3375
:109EB000984604E001239C46E1442C33984633073E
:109EC0001CD54346002B13D1009B0AAA210048460B
:109ED000FFF741FEA146029B984662E1042333400E
:109EE0009846ECD001239C46E1441F339846E6E7B0
:109EF000009A0AA94046FFF7D7FDE5E7F30705D525
:109F00004346002B16D1029B98464AE1009B0AAAC1
:109F100021004846FFF72EFE4346002B02D1029B4C
:109F200098463EE1009A0AA94046FFF7BDFD029B14
:109F3000984636E1009A0AA94046FFF7B5FD029B14
:109F400098462EE10C2343449B46434659689F683C
:109F500002910A003B000692079300220023029818
:109F60003900FDF72DF8002806D1B30724D40427C3
:109F7000374008D0202706E0029A802109067B1886
:109F8000069207932D27019B002B17D15346002BD8
:109F90001BD108220BA906A8FFF702FE0290330787
:109FA00020D5002F18D1009B0AAA21000298FFF7A4
:109FB000D2FD02940BAF32E02B27E4E74A460BA90F
:109FC00006A8FFF7EDFD0290E9E74A460BA906A8AF
:109FD000FFF7E6FD0290E2E7009A0AA93800FFF7D2
:109FE00063FDE0E7F30707D5002FE3D0009A0AA945
:109FF0003800FFF759FDDDE7009B0AAA210002980F
:10A00000FFF7B8FD002FD5D0009A0AA93800FFF756
:10A010004BFDCFE70137009A0AA9FFF745FD002065
:10A0200038560028F6D1F30701D4D846A0E6009BA5
:10A030000AAA21000298FFF79DFDD84698E64346FC
:10A040000433029343461B6805931023002205A99D
:10A050000BA8FFF73EFD81460BAF4F44082333406A
:10A06000984623D01023334098460FD1009B0AAA6C
:10A0700021004846FFF76FFDA146F30600D49EE09D
:10A080004346002B30D0029B98468AE0009A0AA9EA
:10A090003020FFF709FD009A0AA97820FFF704FD98
:10A0A000D846E3E768A80000ACA80000F307E4D4B2
:10A0B00010233340984602D002239C46E144009B83
:10A0C0000AAA21004846FFF755FD4346002BD4D08D
:10A0D000009A0AA93020FFF7E7FC009A0AA9782025
:10A0E000FFF7E2FCD846C8E7009A0AA93020FFF73C
:10A0F000DBFC009A0AA97820FFF7D6FC02239C46D5
:10A10000E144029B98464CE043461F1D1B680593A3
:10A110000823002205A90BA8FFF7DBFC8146B846FF
:10A120000BAF4F4433072FD4F3073AD4009B0AAA4E
:10A1300021004846FFF71EFD33E043461F1D1B6804
:10A1400005930223002205A90BA8FFF7C2FC814654
:10A15000B846E5E743461F1D1B6805931023002200
:10A1600005A90BA8FFF7B5FC8146B846D8E74346DA
:10A170001F1D1B6805930A23002205A90BA8FFF7E2
:10A18000A8FC8146B846CBE7009B0AAA21004846B6
:10A19000FFF7E1FCA14604E0013F009A0AA9FFF79E
:10A1A00083FC002038560028F6D1F30700D4DFE501
:10A1B000009B0AAA21004846FFF7DCFCD8E5029B79
:10A1C0009846EEE743461C1D00201856009A0AA93F
:10A1D000FFF76AFCA046CBE54346043302934346AF
:10A1E0001F68002F44D03800FEF74EFD0390012376
:10A1F0001E4013D04B46002B1BD0002038560028A1
:10A200001BD04B46002BF8DD01235B429C46E1440A
:10A210000137009A0AA9FFF747FCEEE7009B0AAA5C
:10A220002100FFF7A7FCE5E70137009A0AA9FFF72D
:10A230003BFC002038560028F6D1002E02D1029BAC
:10A24000984695E5009B0AAA21000398FFF792FC27
:10A25000029B98468CE543461B680A9A1A600423C1
:10A260009C46E04484E5009A0AA9FFF71DFC7FE5BF
:10A27000029B98467CE50A9815B03CBC90469946EE
:10A28000A246AB46F0BDC0460FB400B585B0012371
:10A290000193054B029306AA02CA01A8FFF744FDE9
:10A2A00005B008BC04B01847939B0000224B9842AD
:10A2B00027D00ED9C1239B00984227D01F4B98422C
:10A2C00029D01F4B984212D100230B700333137017
:10A2D0000DE01C4B984207D01B4B984207D100233E
:10A2E0000B700133137002E000230B701370030A2C
:10A2F000C0B2012B1AD9042B1AD0022B10D0042083
:10A3000015E000230B7002331370F0E700230B708D
:10A3100004331370EBE700230B7005331370E6E78B
:10A320000838C0B2012805D9042000E00320704796
:10A330000320FCE70320FAE7030200000503000006
:10A34000030300000102000002020000F8B515003E
:10A35000174B184E9A59070018370124BC40224366
:10A360009A51154A9E588024640434439C509C584A
:10A37000124E34409C508000114BC458002323607F
:10A380001048FCF791FC002301E00133400801284C
:10A39000FBD800226260002D07D0013DA560226835
:10A3A00007210B4013432360F8BDA260F7E7C046C6
:10A3B000007004403C10000004100000FFFFFEFF8E
:10A3C00044A9000080BB0000F0B5C64600B584B0CB
:10A3D000009101921E00030AC7B29B00314A9D58AA
:10A3E00002ABDC1D9A1D2100FFF760FF804620783C
:10A3F000019A0099FFF7AAFFBB005A59414608028B
:10A40000E021C900084082435A515A59104358511B
:10A41000002E12D0012E36D0022E1CD102AB0733F3
:10A420001B789B00204A9A5802AB06331B780133F5
:10A43000DB00D3180C225A600DE002AB07331B7807
:10A440009B00194A9A5802AB06331B780133DB0094
:10A45000D31804225A6002AB07331B789B00124AC0
:10A460009A5802AB06331B780133DB00D3185968C6
:10A47000402001435960136808210B43136004B066
:10A4800004BC9046F0BD02AB07331B789B00064A24
:10A490009A5802AB06331B780133DB00D31808222D
:10A4A0005A60D8E730A9000044A9000030B583B055
:10A4B0006B469C1DDD1D22002900FFF7F7FE2B785F
:10A4C0009B00054A9A5823780133DB00D31898681B
:10A4D00080B203B030BDC04644A9000030B583B09F
:10A4E0006B469C1DDD1D22002900FFF7DFFE2B7847
:10A4F0009B00064A9A5823780133DB00D3185A6828
:10A5000080210A435A6003B030BDC04644A9000010
:10A5100030B583B06B469C1DDD1D22002900FFF77E
:10A52000C5FE2B789B00064A9A5823780133DB003E
:10A53000D3185868C0090123184003B030BDC04685
:10A5400044A9000010B582B06B46DC1D9A1D2100A5
:10A55000FFF7ACFE2378054AD35C1F221A40012383
:10A560009340034A136002B010BDC04650A90000DA
:10A5700000E100E0002310B59A4200D110BDCC5C90
:10A58000C4540133F8E703001218934200D1704716
:10A5900019700133F9E700006E740000AA7300001F
:10A5A000CE7300006C730000CE7300004A7400008C
:10A5B000CE7300006C730000AA730000AA73000041
:10A5C0004A7400006C730000A0740000A0740000C6
:10A5D000A074000056740000AA730000AA73000063
:10A5E000CE7300006A730000CE7300004A7400004E
:10A5F000CE7300006A730000AA730000AA73000003
:10A600004A7400006A730000A0740000A074000087
:10A61000A074000054740000987700004277000096
:10A6200042770000707800003E7700003E7700001F
:10A6300066780000707800003E77000066780000C1
:10A640003E77000070780000747800007478000095
:10A65000747800007C780000A8810000AA800000C7
:10A66000AA800000C8830000A4800000A48000002D
:10A67000B0830000C8830000A4800000B083000005
:10A68000A4800000C8830000BE830000BE830000D9
:10A69000BE830000CC8300002D2D2D2D2D2D2D2DC2
:10A6A0002D2D2D2D2D2D2D2D2D2D2D2D2D2D2D2DDA
:10A6B0002D2D2D2D2D2D2D2D2D2D2D2D2D2D2D2DCA
:10A6C0002D2D2D2D2D2D2D2D2D2D2D2D2D2D0A000A
:10A6D000BDF0BAF9C2ABCCE1CABEA3BA50574D2DFA
:10A6E000494E434150CAB5C0FD200A002020A2D9DE
:10A6F00020C0B6B5C6C9C1CBB80A00002020A2DA76
:10A7000020CDA8B9FD494E4341505F55534552CA2B
:10A71000E4B3F6344B487AB5C450574DD0C5BAC5EA
:10A72000A3ACD5BCBFD5B1C8CEAA353025A1A320D6
:10A730000A0000002020A2DB20C9E8D6C3494E430E
:10A7400041505F55534552CEAACAE4C8EBB2B6D7C2
:10A75000BDA3ACB2C9D3C3CBABB1DFD1D8B2B6D7EE
:10A76000BDA3AC200A0000002020A2DC20C3BFB49F
:10A77000CEB4A5B7A2CAE4C8EBB2B6D7BDA3ACB6F7
:10A78000BCBBE1CFF2C9CFCEBBBBFACAE4B3F6B5CE
:10A79000B1C7B0B2B6D7BDB5BDB5C4CDA8B5C0D6EA
:10A7A000B5A1B1A1A3200A0025643A25643A256425
:10A7B00000000000C0B6B5C6A3BAC1C10A000000BF
:10A7C000C0B6B5C6A3BAB0B50A00000000F00F408D
:10A7D00040F00F4080F00F40C0F00F4000F10F40FC
:10A7E0000090044000A0044000B0044000C00440B9
:10A7F00000D004400090044000A0044000B0044099
:10A8000000C0044000D00440303132333435363794
:10A8100038394142434445463230323030373136A0
:10A82000000000002020A1BE55736572CCE1CABEB5
:10A83000A1BFA3BABDABBDF8C8EB55736572B5C473
:10A840006D61696E2829D6B4D0D02E2E2E0D0A0047
:10A8500000B0064000C00640CAE4C8EBB2B6D7BD9F
:10A86000D6B525640D0A0000B49D0000CC9D000003
:10A87000CC9D0000C09D0000CC9D0000CC9D000040
:10A88000CC9D0000CC9D0000CC9D0000CC9D000024
:10A89000CC9D0000AE9D0000CC9D00008E9D000070
:10A8A000CC9D0000CC9D0000BA9D00003EA00000A1
:10A8B00066A2000066A2000066A2000066A2000078
:10A8C00066A2000066A2000066A2000066A2000068
:10A8D00066A200003AA10000C4A10000809E000012
:10A8E00066A20000449F000066A2000066A200006D
:10A8F000809E000066A2000066A2000066A2000022
:10A9000066A2000056A2000008A1000054A10000A9
:10A9100066A2000066A20000D8A1000066A20000A6
:10A920006EA1000066A2000066A200003EA000002A
:10A930000090044000A0044000B0044000C0044067
:10A9400000D00440008003400090034000A003407A
:10A9500011121300F8B5C046F8BC08BC9E467047FB
:0CA96000F8B5C046F8BC08BC9E46704725
:08A96C0000C8FF7F010000009C
:04A97400396C00003A
:04A97800116C00005E
:10A97C00008003400090034000A00340111213001C
:10A98C00006CDC02008003400090034000A00340F8
:04A99C000C0D0E058B
:0400000300006C5934
:00000001FF
