:1068000000180020596C0000A16C0000A16C000071
:106810000000000000000000000000000000000078
:10682000000000000000000000000000A16C00005B
:106830000000000000000000A16C0000A16C00003E
:10684000A16C0000A16C0000A16C0000A16C000014
:10685000A16C0000A16C0000A16C0000A16C000004
:10686000A16C0000A16C0000A16C0000A16C0000F4
:10687000A16C0000A16C0000A16C0000A16C0000E4
:10688000A16C0000A16C0000A16C0000A16C0000D4
:10689000A16C0000A16C0000A16C0000A16C0000C4
:1068A000A16C0000A16C0000A16C0000A16C0000B4
:1068B000A16C0000A16C0000A16C0000F99F000019
:106C0000FFFFFFFFFFFFFFFFFFFFFFFFFEFFFFFF95
:106C100010B5064C2378002B07D1054B002B02D072
:106C2000044800E000BF0123237010BD00040020D1
:106C30000000000040B50000044B10B5002B03D04D
:106C40000349044800E000BF10BDC046000000003A
:106C50000404002040B5000072B601F0ABFA62B641
:106C60000A490B4A0B4B9B1A03DD043BC858D05012
:106C7000FBDC0949094A521A03DD00208850043A16
:106C8000FCDA02F03BFC01F021FB000068B50000DB
:106C900000040020000400200004002088040020DC
:106CA00000B5C04600BDC046002243088B4274D3E5
:106CB00003098B425FD3030A8B4244D3030B8B42FD
:106CC00028D3030C8B420DD3FF22090212BA030C06
:106CD0008B4202D31212090265D0030B8B4219D3E7
:106CE00000E0090AC30B8B4201D3CB03C01A524107
:106CF000830B8B4201D38B03C01A5241430B8B424F
:106D000001D34B03C01A5241030B8B4201D30B0337
:106D1000C01A5241C30A8B4201D3CB02C01A52415E
:106D2000830A8B4201D38B02C01A5241430A8B4221
:106D300001D34B02C01A5241030A8B4201D30B020A
:106D4000C01A5241CDD2C3098B4201D3CB01C01A24
:106D5000524183098B4201D38B01C01A524143092E
:106D60008B4201D34B01C01A524103098B4201D31C
:106D70000B01C01A5241C3088B4201D3CB00C01A89
:106D8000524183088B4201D38B00C01A5241430801
:106D90008B4201D34B00C01A5241411A00D2014626
:106DA000524110467047FFE701B5002000F0F0F8AF
:106DB00002BDC0460029F7D076E7704703460B4373
:106DC0007FD4002243088B4274D303098B425FD3E4
:106DD000030A8B4244D3030B8B4228D3030C8B4210
:106DE0000DD3FF22090212BA030C8B4202D31212F6
:106DF000090265D0030B8B4219D300E0090AC30BCB
:106E00008B4201D3CB03C01A5241830B8B4201D377
:106E10008B03C01A5241430B8B4201D34B03C01A60
:106E20005241030B8B4201D30B03C01A5241C30AD8
:106E30008B4201D3CB02C01A5241830A8B4201D349
:106E40008B02C01A5241430A8B4201D34B02C01A33
:106E50005241030A8B4201D30B02C01A5241CDD2D8
:106E6000C3098B4201D3CB01C01A524183098B4223
:106E700001D38B01C01A524143098B4201D34B010C
:106E8000C01A524103098B4201D30B01C01A52416F
:106E9000C3088B4201D3CB00C01A524183088B42F6
:106EA00001D38B00C01A524143088B4201D34B00DF
:106EB000C01A5241411A00D2014652411046704751
:106EC0005DE0CA0F00D04942031000D34042534056
:106ED00000229C4603098B422DD3030A8B4212D316
:106EE000FC22890112BA030A8B420CD38901921148
:106EF0008B4208D3890192118B4204D389013AD085
:106F0000921100E08909C3098B4201D3CB01C01A59
:106F1000524183098B4201D38B01C01A524143096C
:106F20008B4201D34B01C01A524103098B4201D35A
:106F30000B01C01A5241C3088B4201D3CB00C01AC7
:106F4000524183088B4201D38B00C01A5241D9D2DF
:106F500043088B4201D34B00C01A5241411A00D260
:106F60000146634652415B10104601D34042002B5C
:106F700000D54942704763465B1000D3404201B5DB
:106F8000002000F005F802BD0029F8D016E7704790
:106F90007047C0468446101C62468C46191C6346E6
:106FA00000E0C0461FB500F009FA002801D4002116
:106FB000C8421FBD10B500F053F94042013010BD6A
:106FC00010B500F0FBF9002801DB002010BD012006
:106FD00010BDC04610B500F0F1F9002801DD002019
:106FE00010BD012010BDC04610B500F075F9002895
:106FF00001DC002010BD012010BDC04610B500F01E
:107000006BF9002801DA002010BD012010BDC04638
:10701000002B11D1002A0FD1002900D1002802D065
:107020000021C943081C07B4024802A1401802907D
:1070300003BDC0465DFFFFFF03B4684601B502987B
:1070400000F042F8019B9E4602B00CBC7047C0465F
:1070500070B500220C4B04000D00FFF7CFFF002895
:1070600004D12000290001F017F870BD064B002262
:107070002000290000F07EFC01F00EF880231B06A2
:107080009C466044F1E7C0460000E04170B5002234
:107090000B4B0D00040000F001FAFFF7D9FF0600CA
:1070A00001F030F80022074B00F0F8F902000B0065
:1070B0002000290000F05EFCFFF7CAFF310070BD20
:1070C0000000F03D0000F041F0B557464E46454601
:1070D000DE46E0B504000D009246994683B08B422F
:1070E00030D82DD04946504601F050F8290006000E
:1070F000200001F04BF8331A9846203B9B4633D4CE
:107100005A465346934042461F00534693401E0042
:10711000AF423AD8AF4200D178E05B46A41BBD41F4
:10712000002B00DA75E00022002300920193012376
:107130005A4693400193012342469340009328E02E
:107140008242CFD900220023009201930C9B002B96
:1071500001D01C605D600098019903B0F0BCBB4693
:10716000B246A946A046F0BD424620239B1A52468D
:10717000DA40414613004A468A40170042461F4300
:10718000534693401E00AF42C4D900220023009210
:1071900001934346002BD9D0FB0772081A43464699
:1071A0007B080EE0AB4201D1A2420CD8A41A9D414B
:1071B000012024196D410021013E24184D41002E6B
:1071C00006D0AB42EED9013E24196D41002EF8D114
:1071D000009801995B4600196941002B24DB2B00C4
:1071E0005A464446D3402A00E2401C005B46150044
:1071F000002B2ADB26009E40330026004746BE4077
:107200003200801A9941009001919FE7A342BCD8B7
:1072100083E74246202300219B1A0022009101921D
:107220000122DA40019286E7424620239B1A2A0077
:1072300046469A402300F340444613432A00E24066
:107240001C005B461500002BD4DA42462F00202399
:10725000260097409B1ADE403B003343CDE7C046F3
:10726000F0B54F464646D646944691461A03120B51
:10727000184DC0B54C000F0392465A0006008046D8
:107280003F0B0120640DC90F520DDB0FAC420AD039
:10729000AA4203D0944201D157450DD0E0BCBA4672
:1072A000B146A846F0BD3D003543F7D1A242F5D125
:1072B000524665462A43F1D10120C845EED1994294
:1072C00006D0002CEAD13E433000461EB041E5E72F
:1072D0000020E3E7FF070000F0B54E46454657465D
:1072E000DE4604001800E0B516001B031B0B324DF0
:1072F0000F034A0099464300A446B0463F0B520D87
:10730000C90F5B0DC00FAA4229D0AB4218D0002A8A
:107310002AD13C43A34665426541002B02D14C462D
:10732000264327D0002D15D1814228D002200139D3
:1073300008400138F0BCBB46B246A946A046F0BDA5
:107340004D462E432FD1002AEED13C436542654184
:10735000002DE9D00028EDD101204042EAE73D00B0
:10736000254320D19342EBD0002BDDD14C46264360
:10737000DAD1DBE75B460020002BDBD0D6E79A4270
:107380000ADCE7DB4F45D1D810D000204F45D1D2E1
:107390000029E1D00800CDE7434258410223404292
:1073A00018400138C6E702204042C3E7C445BDD8B3
:1073B0000020C445BED2EBE7FF070000F0B54E4603
:1073C00045465746DE4604001800E0B516001B038C
:1073D0001B0B314D0F034A0099464300A446B046AB
:1073E0003F0B520DC90F5B0DC00FAA4211D0AB422B
:1073F00014D0002A2FD13C43A34665426541002B9F
:1074000014D14C46264311D15B460020002B17D0E7
:1074100010E03D00254312D193421CD14D462E432E
:107420000DD1002A04D13C4365426541002D0DD1A8
:10743000814216D0022001390840013800E00220C4
:10744000F0BCBB46B246A946A046F0BD0028F7D125
:1074500001204042F4E7002BEAD14C462643E7D115
:10746000E8E79A4206DD4342584102234042184071
:107470000138E5E79A42E9DB4F45DBD806D000202A
:107480004F45DDD20029E3D00800D9E7C445D1D863
:107490000020C445D4D2F5E7FF070000F0B55746F9
:1074A0004E464546DE46E0B598460C034B000600C6
:1074B000924687B0240B5B0DCF0F002B6CD0DD4ABA
:1074C000934200D186E0420FE4001443802212046C
:1074D0001443D94AC5009446634400930023994657
:1074E0009B46434642461E03D20F5B0050469046E1
:1074F000360B5B0D00D178E0CE4A93421DD0CE49C9
:10750000420F8C4600996344F6008C461643802255
:107510009C44120463461643C20000200093009965
:10752000434601318C4649467B4001930F2900D9DF
:107530007EE0C24B890059588F465246009B324329
:1075400000D056E1BB4900268C466344494600936F
:107550000223194389460220E1E7434601933400A0
:10756000150083465B46022B5ED0032B00D1F3E16E
:10757000012B00D018E1002200240025019B1205F8
:107580002243DB071A432800110007B0F0BCBB46BA
:10759000B246A946A046F0BD2500054300D141E111
:1075A000002C00D1ADE1200000F0D2FD010002006E
:1075B0000B391D2310005B1A310035000838844058
:1075C000D94085400C439E48831A00930023994676
:1075D0009B4686E70500254300D01CE10822009366
:1075E0000223002491469B467BE75246324300D15A
:1075F0000AE1002E00D176E1300000F0A9FD020082
:107600000B3A1D2301009B1A52460839DA408E407E
:10761000164352468A40009B8949181A03008C463B
:107620006344002000937AE700240025814AA5E7FF
:107630002F0C2D042D0C2B00110C1204120C534393
:107640009846130028007B439946484348448346A4
:1076500040460B00000C824658467B435044029340
:10766000814506D99A4680235B029946CA4453460F
:107670000293030C9B4643461B0400041B0C9846D4
:10768000030043440493330C99462B003604360C14
:107690007343984633007B439A464B465D435F43B2
:1076A00043465544180C4019824503D980235B0298
:1076B0009A465744050CEB19059343461D042D0CBF
:1076C00000044019250C2404240C270057436A4366
:1076D00090462A003B0C9A464A4361434144514438
:1076E0008344884503D980235B02984642443F0483
:1076F0000B0C3F0C0904C919270098464B467743E9
:107700005C436E435D433B0C9946A4194C44424490
:107710000395A64204D980235B029846454403950D
:10772000029B3F045B441E00834280412304984631
:10773000059B3F0C4744984676188E428941474442
:1077400040423D18A846934649428A46C3449F4258
:10775000BF4180458041039BDA44984653464042EE
:107760007F420743240C934592418A4589413F1942
:10777000DC0D049B75021D43681E85415346524231
:1077800049420A43BF184744F60D7F0235435A0267
:107790003C431543FB0100D4C1E001216A080D40C0
:1077A0001543E2071543640826496144002956DD64
:1077B0006B0709D00F222A40042A05D02A1DAA42AD
:1077C000AD416D4264191500E30104D580211E4AC4
:1077D000C900144061441D4A914200DD24E762075C
:1077E000ED08640249051543240B4A0DC6E60197CE
:1077F000B8E6104A0320944663444A4600930323A4
:107800001A43914652468AE649460123194389465E
:107810000026012083E60C220093032305009146F5
:107820009B465EE60423994600230093013300241F
:107830009B4656E6FF07000001FCFFFFB4AC0000CA
:107840000DFCFFFFFF030000FFFFFFFEFE0700002F
:10785000002380240025444A019324038EE601205E
:10786000401A382800DD86E61F285BDD1F22230032
:107870005242511ACB401900202803D03B4A62449F
:10788000944025436A1E95412A000A4307210D00B2
:107890000024154011425BD00F210024114004291F
:1078A00053D0111D914292415242A4180A00230262
:1078B0004BD501220024002560E680231B031C42D7
:1078C00009D01E4207D133431C0343461500240B45
:1078D000254A019352E68022120314432403224ACC
:1078E000240B01974AE600F033FC03001A0015321E
:1078F00020301C2A00DC84E65646083B00229E40CD
:1079000089E600F025FC01000200153120321C2917
:1079100000DC4EE6340008380025844053E6009B26
:107920009C4641E71249220061442E008D408A4066
:10793000C640691E8D4132432A43C4405307B6D026
:107940000F2111400429ACD1B1E765076402240B73
:10795000D2081543002211E68022120314432403A7
:10796000014A240B0AE6C046FF0700003E0400005F
:107970001E040000F8B557464E464546DE46040054
:10798000E0B51F0010000B03620F4E00CD0F5B0A25
:1079900039031343490AE200440F2143C24C914684
:1079A0009246C0007A008046760D520DFF0FA2422B
:1079B00000D1B4E001246740BB46BD4200D188E05D
:1079C000B41AA446002C00DCB2E0002A00D1C5E0C5
:1079D000B54A964200D18BE28022120411436246DE
:1079E000382A00DDA1E11F2A00DD16E220270C0065
:1079F000BF1ABC400200A0466446B840E24044467C
:107A000014430200501E82416046C14022435B1A6B
:107A100049468C1AA145924152429B1A98464346C8
:107A20001B0200D417E143465B025B0A98464346BB
:107A3000002B00D16CE1404600F08AFB0200083ABE
:107A4000202120004346891A9340C84094400343B4
:107A5000964200DD57E1961B711C1F2900DDCBE12A
:107A6000202218002600521A94409040CE40CB406D
:107A7000621E94413043984600260443630709D0B0
:107A80000F232340042B05D0231DA342A4416442AD
:107A9000A0441C0043461B0200D4DFE0824B0136A9
:107AA0009E4200D1FBE04246804BE4081A4013009E
:107AB000710552075B0222431B0B490D0905ED07B7
:107AC000194329431000F0BCBB46B246A946A04664
:107AD000F8BDB41AA446002C58DD002A00D19EE05F
:107AE000714A964200D13BE1802212041143624662
:107AF000382A00DDC1E01F2A00DCBBE10C00203A7F
:107B0000D44022006446202C04D040273F1BB940BB
:107B1000084380464446611E8C411443B1E00C008A
:107B200004432AD0BB46BD422DD0614CA446B44488
:107B30006446002C5CD0941BA446002E00D015E1B6
:107B40004D461D4300D1C3E1651E012C00D10CE25E
:107B5000554EB44200D1F8E1AC460EE10A000243B2
:107B600000D136E12200013A012C00D1C6E14E4C91
:107B7000A44500D1F4E0944631E701246740BB46B8
:107B8000BD4200D01CE74A4CA446B4446446002CD5
:107B900000D1CFE0941BA446002E00D15CE1424E00
:107BA000B24200D1ECE18026360433436446382CDF
:107BB00000DDB3E11F2C00DD38E22026361B1C005F
:107BC000B4404F46A0466446E74044463C434F46D7
:107BD000B7403E00771EBE4134436646F340C918A5
:107BE000241884429B415B429846160088444EE02C
:107BF000304A741C144200D0D6E04A461A43002E84
:107C000000D05BE1002A00D1A5E10A00024300D0C8
:107C1000BBE14A465907D2080A43DB0827E00A00BD
:107C2000024300D174E12200013A012C05D01E4C20
:107C3000A44500D194E0944659E748444845924110
:107C40005B189846040052429044434602261B02A9
:107C500000D5C4E0013E630700D011E74346B446B7
:107C60005907E2080A43DB080F498C4540D06146BA
:107C70001B0349051B0B490D20E701430C00611E46
:107C80008C414C444C459241524290469844434664
:107C90001B02E0D5044B01369E4200D09FE031002C
:107CA000002300220AE7C046FF070000FFFF7FFF16
:107CB00001F8FFFFFE070000002A00D160E10A0082
:107CC00002434DD04A465C07D20822438024DB0899
:107CD0002403234207D0CE08264204D15D46330058
:107CE000C20849070A43510FD200D20849070A4384
:107CF0001100194300D1C8E1802109030B431B0384
:107D0000D5491B0BDAE6D549B61A0B409846B5E6BD
:107D1000200000F01DFA020018321F2A00DC8FE656
:107D2000230008388340002492E608430200501ED6
:107D300082416DE6CA4C721C224200D0ADE04A4638
:107D40001A43002EB8D1002A00D158E10A0002439C
:107D500000D059E14A465907D2080A43DB0886E7B2
:107D60004A465907D2080A43DB08C1E7BA4DAA427E
:107D700000D11EE180252D042B436446382C5DDCA8
:107D80001F2C00DDD0E0202567462D1B4E461C0031
:107D9000FE40AC4034434E46AE403500FB406E1EC4
:107DA000B541C91A2C434EE04A46141AA1459241E6
:107DB000524290465F1A3A004746D21B9046120242
:107DC00000D58BE04246224300D030E60023002558
:107DD0004DE74A465907D2080A43DB0844E74246C2
:107DE0009E4B61081A401300012214400C43DA072D
:107DF0005B089846144341E61A001F3EF240160005
:107E0000202903D04022511A8B401C43621E94410A
:107E100000233443984600261DE70C00203AD44046
:107E200022006446202C04D040273F1BB940084361
:107E300080464446611E8C412243E9E54C4623437B
:107E40001C00631E9C41041BA0429B415B42CB1A59
:107E500098465D461600E2E54E461E4300D1AEE070
:107E6000661E012C00D1FDE07B4FBC4200D107E132
:107E7000B4469BE664462022121B0C009440070087
:107E80009040A0466446421E90416246E740444608
:107E9000D1403C4304435B18F3E66F4CA24200D14F
:107EA000D5E048445B184845894149425B18DC07E6
:107EB00040085B08984616000443CCE6002A00D030
:107EC00082E00A00024340D1802300251B0313E710
:107ED0004B07C2081A435D46CB08C5E64A46841ADA
:107EE000A0429241CB1A52429B1A98465D469EE5AB
:107EF0004A465907D2080A43DB08F9E64A46141AEB
:107F0000A14592415B1A52429B1A9846012686E58A
:107F10004A465907D2080A43DB08A5E64C462343E4
:107F20001C00631E9C415BE665461E00203DEE4042
:107F3000202C05D040252D1BAB404C461C43A246AF
:107F40005446631E9C4134437DE74B07C2081A43E5
:107F50005D46CB08CCE60A00024300D136E74B076A
:107F6000C2081A435D46CB0881E64A46841AA042FD
:107F70009241CB1A52429B1A98465D4601264EE525
:107F80004B07C2081A43CB08B2E64A46141AA14569
:107F900092415F1A5242BA1A904612026BD54A4673
:107FA000841AA0429241CB1A52429B1A98465D46CF
:107FB00064E54B07C2081A435D46CB0898E64B07B9
:107FC000C2081A43CB084FE60A00024390D04A4643
:107FD0005C07D20814438022DB081203134208D046
:107FE000CE08164205D1C0084907084304005D4683
:107FF0003300610FE2004907D2080A4378E64B07D5
:10800000C2081A43CB0832E648445B1848459241FF
:10801000984652429044434604001B0200D41AE69C
:1080200042460E4B01261A40904614E666461F0053
:10803000203EF740202C05D04026361BB3404C464E
:108040001C43A2465446631E9C413C43C8E51100B4
:108050000023002232E5C046FF070000FFFF7FFF3C
:10806000FE0700004A461418844292415B18984665
:1080700052429044E9E54246224300D1A6E6EAE5B1
:108080004B07C2081A43CB0832E60022014913000D
:1080900014E5C046FF0700000A0030B5134C53003A
:1080A00009030500090B00205B0DD20FA34204DD7C
:1080B0000F48834202DD0F4BD01830BD80204003B3
:1080C00001430D48C01A1F2808DD0C48C31AD940C7
:1080D0000B005842002AF0D11800EEE7084CC540CA
:1080E000A446634499400B002B43F2E7FE030000D3
:1080F0001D040000FFFFFF7F330400001304000095
:10810000EDFBFFFF10B5041E10D000F021F80F4B5F
:108110001B1A0A2811DC0B222100121AD14015303B
:108120000A035B058440120B5B0D01E00023002273
:108130001B0513432000190010BD22000B3882409C
:108140005B0512030024120B5B0DF1E71E04000017
:108150001C2101231B04984201D3000C10391B0A77
:10816000984201D3000A08391B09984201D300093B
:10817000043902A2105C40187047C0460403020292
:1081800001010101000000000000000010B50029FD
:1081900003D1FFF7DDFF203002E0081CFFF7D8FF16
:1081A00010BDC0460023C25C0133002AFBD1581E1B
:1081B000704700003B493C4AC0239B028B50394A20
:1081C0003A4BD3583749802292001343374A8B5099
:1081D000374B9B78DBB21A000823134007D0344B8F
:1081E0009B78DBB2324A08210B43DBB293702D49F6
:1081F0002D4A80235B028B502A4A2E4BD3582949A3
:108200002D4A13402B4A8B50264B1A68254B2B497D
:108210000A401A60234A274BD358294A1340214960
:10822000802252041343234A8B50264B06221A7095
:10823000244B5B78DBB2234A40210B40DBB2537006
:10824000204BDB78DBB25BB21F2213405BB26022B3
:10825000524213435AB21B4BD2B2DA701A4B00226D
:108260001A70184B00221A71164B00225A71C04620
:10827000144B9B79DBB21A0010231340F8D0C04690
:10828000104B9B79DBB21A000C231340F8D1054A3E
:10829000064BD3580349F82292011343034A8B50EB
:1082A000C0467047007004404410000038100000C1
:1082B00000D0074004100000FFFFFCFFFFFFF3FFAA
:1082C000FFFFFFFC004006400050064000B583B0B1
:1082D00072B600F0EBFE80239B000121180000F035
:1082E00053FA244B0021180000F04EFA01F0D6F9A1
:1082F000214A96235900214B009313001F22062088
:1083000001F074FB1C4A1E4B009313001F22202116
:10831000482001F06BFBF8231B021A001E211E20CF
:1083200001F079FAF8231B020093962332223221BE
:10833000322001F06FFC134B0093782378223C210C
:108340003C2001F094FA1F2300938C238C224621B9
:10835000462001F0F9FC084A0B4B009313001F2242
:10836000F021782001F042FB024B180000F012FED1
:1083700062B6FEE70102000030840000F0AB0000AE
:1083800000AC0000E0FF000008AC000000B585B0C4
:1083900002006B4606331A806B4606331B889B022D
:1083A00003931F4B0922DA711D4A03AB9B7893712B
:1083B0001B4A03AB5B785371194A03AB1B781371EB
:1083C00000F0C6F80300012B01D1012324E0039A39
:1083D0008023DB009A421ED2114B0622DA71104B29
:1083E00000229A710E4B04225A710D4B0C221A7105
:1083F0000B4BFF22DA720A4BFF229A72084BFF22C4
:108400005A72074BFE221A7200F0A2F80300012BE9
:1084100001D1022300E00023180005B000BDC046D2
:108420000000024000B587B0039001920A236B441C
:108430000A1C1A801E4B0622DA71039B0493002348
:1084400005932BE01A4A04AB9B789371184A04AB4E
:108450005B785371164A04AB1B781371144A019B65
:10846000DB78D372124A019B9B789372104A019B6E
:108470005B7853720E4A019B1B78137200F068F808
:108480000300012B01D102230FE0059B0433059368
:10849000049B04330493019B043301930A236B442C
:1084A0001B88059A9A42CDD30023180007B000BD5F
:1084B0000000024000B587B0039002916B4606337E
:1084C0001A80029B05936B4606331A880599039B15
:1084D000180002F07BFBC04607B000BD84B002006C
:1084E0006B4606331A8001AB0A1C1A800E236B44BC
:1084F00000221A8003AB01221A800E236B44002253
:108500001A8017E06B4606331B889B0202930E23EA
:108510006B441B88029AD3181B78FF2B03D003AB44
:1085200000221A800DE00E236B441A880E236B4440
:1085300001321A800E226A4401AB12881B889A42CB
:10854000E0D303AB1B88DBB2180004B07047000017
:1085500082B06B46073300221A70164B30221A7015
:10856000EFF310830093009B002B05D172B6C04639
:108570006B46073301221A700E4B80221A70C046D8
:108580000C4B1B78DBB25BB2002BF9DA6B4607337E
:108590001B78012B01D162B6C046064B1B78DBB2BB
:1085A0001A003123134001D0012300E000231800FA
:1085B00002B070470000024010B586B00400080009
:1085C00011006B460633221C1A806B460533021CD1
:1085D0001A7001AB0A1C1A700E226A440F216944FA
:1085E0006B4606331B88180000F0A0F80F236B447D
:1085F0001B781A002B4B9200D35805930F236B4422
:108600001B781A00284B9200D35804930E236B4416
:108610001B781A00059B9200D3580E226A441278E8
:108620001000224A13401900059B8200D1500E23EE
:108630006B441B781A00059B9200D3580E226A44A3
:1086400012781000802252001A431100059B82000C
:10865000D1506B4605331B78012B14D1049B5B6909
:108660000E226A441278110001228A401A43049BA8
:108670005A6101AB1A786B4606331B88110018004B
:1086800000F016F80BE0049B5B690E226A44127836
:10869000110001228A40D2431A40049B5A61C0460D
:1086A00006B010BDF4AC000008AD0000FFF8FFFFFD
:1086B00000B585B002006B4606331A806B46053361
:1086C0000A1C1A700A226A440B2169446B4606335D
:1086D0001B88180000F02AF80B236B441B781A0043
:1086E000114B9200D35803936B4605331B78012B33
:1086F0000BD1039B1B680A226A44127811000122E5
:108700008A401A43039B1A600BE0039B1B680A22F2
:108710006A441278110001228A40D2431A40039B16
:108720001A60C04605B000BD08AD000084B00291DB
:1087300001920E236B44021C1A800E236B441B888B
:108740001B0A9BB2DAB2029B1A700E236B441B8881
:10875000DAB2019B1A70C04604B0704782B00200C2
:108760006B4607331A706B4607331B781A001F23BA
:108770001A40044B012191400A001A60C04602B021
:108780007047C04600E100E000B585B002006B46CE
:1087900006331A806B4605330A1C1A700E226A448F
:1087A0000F2169446B4606331B88180000F066FCF5
:1087B0000F236B441B789B020E226A4412789B188D
:1087C0009B00434A944663441A680F236B441B780A
:1087D0009B020E21694409785B189B003C498C463A
:1087E00063443C490A401A600F236B441B789B0288
:1087F0000E226A4412789B189B00354A94466344C3
:108800001A680F236B441B789B020E216944097878
:108810005B189B002E498C466344802149000A4323
:108820001A606B4605331B78012B32D10F236B4442
:108830001B789B011433284A944663441A680E231C
:108840006B441B78190001238B4019000F236B44E4
:108850001B789B0114332048844663440A431A6002
:108860000F236B441B789B011B4A944663441A6890
:108870000E236B441B78190001238B4019000F2332
:108880006B441B789B011448844663440A431A6076
:108890001AE00F236B441B789B0114330E4A944655
:1088A00063441A680E236B441B78190001238B4024
:1088B000DB4319000F236B441B789B0114330648DC
:1088C000844663440A401A60C04605B000BDC046F5
:1088D00000900440FFF8FFFF00F00F4010B582B099
:1088E0000400080011006B460733221C1A706B4607
:1088F0000633021C1A706B4605330A1C1A706B464D
:1089000005331B78012B18D16B4607331B789B016D
:10891000184A944663441A686B4606331B78012153
:1089200099400B0019006B4607331B789B011148D7
:10893000844663440A431A6018E06B4607331B7889
:108940009B010C4A944663441A686B4606331B78B5
:10895000012199400B00DB4319006B4607331B785C
:108960009B010448844663440A401A60C04602B032
:1089700010BDC04600F00F4082B002006B460733C6
:108980001A706B4606330A1C1A706B4607331B7845
:108990009B011033074A944663441A686B460633BA
:1089A0001B78DA401300DBB201221340DBB218005F
:1089B00002B0704700F00F4000B58FB002910192F5
:1089C0000E236B44021C1A8007AA1D2169440E2342
:1089D0006B441B88180000F051FB00230D931EE12F
:1089E00033236B4400221A7019E0029A0D9BD318AE
:1089F0001B781A0033236B441B781A411300DAB238
:108A000033236B441B7801210A40D1B205AAD1540B
:108A100033236B441A7833236B4401321A703323A7
:108A20006B441B78072BE0D91D236B44187807ABE8
:108A30001B7800221900FFF751FF0CAB00221A80AF
:108A400004E00CAB1A880CAB01321A800CAB1B880B
:108A5000152BF6D91D236B44187807AB197805AB95
:108A60001B781A00FFF73AFF2E236B4400221A806E
:108A700006E02E236B441A882E236B4401321A80A1
:108A80002E236B441B88152BF3D91D236B441878B8
:108A900007AB197805AB5B781A00FFF71FFF0BAB2C
:108AA00000221A8004E00BAB1A880BAB01321A804B
:108AB0000BAB1B88152BF6D91D236B44187807AB1D
:108AC000197805AB9B781A00FFF708FF2A236B443F
:108AD00000221A8006E02A236B441A882A236B445A
:108AE00001321A802A236B441B88152BF3D91D23CE
:108AF0006B44187807AB197805ABDB781A00FFF7E1
:108B0000EDFE0AAB00221A8004E00AAB1A880AAB19
:108B100001321A800AAB1B88152BF6D91D236B4432
:108B2000187807AB197805AB1B791A00FFF7D6FE4A
:108B300026236B4400221A8006E026236B441A8801
:108B400026236B4401321A8026236B441B88152B85
:108B5000F3D91D236B44187807AB197805AB5B7903
:108B60001A00FFF7BBFE09AB00221A8004E009AB34
:108B70001A8809AB01321A8009AB1B88152BF6D96C
:108B80001D236B44187807AB197805AB9B791A0045
:108B9000FFF7A4FE22236B4400221A8006E0222362
:108BA0006B441A8822236B4401321A8022236B44BF
:108BB0001B88152BF3D91D236B44187807AB197844
:108BC00005ABDB791A00FFF789FE08AB00221A809B
:108BD00004E008AB1A8808AB01321A8008AB1B8886
:108BE000152BF6D91D236B44187807AB1B7801228F
:108BF0001900FFF773FE1E236B4400221A8006E063
:108C00001E236B441A881E236B4401321A801E23D4
:108C10006B441B88152BF3D90D9B01330D930D9AD3
:108C2000019B9A4200D2DBE6C046C0460FB000BDB1
:108C300000B58DB0020000916B4606331A802E23DA
:108C40006B44802252011A8000230A93009A0A9BE7
:108C5000D31800221A7011226A44122169446B460B
:108C600006331B88180000F009FA84E126236B44C0
:108C700000221A8006E026236B441A8826236B44C0
:108C800001321A8026236B441B880A2BF3D9122346
:108C90006B441A7811236B441B7819001000FFF7FE
:108CA0006BFE09AB00221A8004E009AB1A8809ABFD
:108CB00001321A8009AB1B88152BF6D912236B449D
:108CC0001A7811236B441B7819001000FFF754FE2B
:108CD00003001A0002AB1A7022236B4400221A8090
:108CE00006E022236B441A8822236B4401321A8047
:108CF00022236B441B88152BF3D912236B441A785B
:108D000011236B441B7819001000FFF735FE030098
:108D10001A0002AB5A7008AB00221A8004E008ABBC
:108D20001A8808AB01321A8008AB1B88152BF6D9BC
:108D300012236B441A7811236B441B78190010001E
:108D4000FFF71AFE03001A0002AB9A701E236B4451
:108D500000221A8006E01E236B441A881E236B44EF
:108D600001321A801E236B441B88152BF3D9122362
:108D70006B441A7811236B441B7819001000FFF71D
:108D8000FBFD03001A0002ABDA7007AB00221A8069
:108D900004E007AB1A8807AB01321A8007AB1B88C7
:108DA000152BF6D912236B441A7811236B441B78C8
:108DB00019001000FFF7E0FD03001A0002AB1A7162
:108DC0001A236B4400221A8006E01A236B441A8887
:108DD0001A236B4401321A801A236B441B88152B0B
:108DE000F3D912236B441A7811236B441B781900B2
:108DF0001000FFF7C1FD03001A0002AB5A7106AB69
:108E000000221A8004E006AB1A8806AB01321A80F1
:108E100006AB1B88152BF6D912236B441A78112345
:108E20006B441B7819001000FFF7A6FD03001A0021
:108E300002AB9A7116236B4400221A8006E01623B7
:108E40006B441A8816236B4401321A8016236B4434
:108E50001B88152BF3D912236B441A7811236B440A
:108E60001B7819001000FFF787FD03001A0002AB02
:108E7000DA7105AB00221A8004E005AB1A8805AB55
:108E800001321A8005AB1B880B2BF6D913236B44D8
:108E900000221A701CE0009A0A9BD3181978132339
:108EA0006B441B7802AAD35C1A0013236B441B7813
:108EB0009A401300DAB200980A9BC3188A18D2B2FB
:108EC0001A7013236B441A7813236B4401321A70FF
:108ED00013236B441B78072BDDD9009A0A9BD31808
:108EE0001B78FF2B23D1009A0A9BD31800221A70FB
:108EF00012236B441B789B0211226A4412789B1840
:108F00009B00234A944663441A6812236B441B78DF
:108F10009B021121694409785B189B001C498C460F
:108F20006344802149040A431A600A9B2DE02E23E2
:108F30006B44802252011A800A9B01330A93009AE3
:108F40000A9BD31800221A700CE012236B441A7883
:108F500011236B441B7819001000FFF70DFD031E51
:108F600000D108E02E236B441B882E226A44591E30
:108F70001180002BE9D12E236B441B882E226A44DA
:108F8000591E1180002B00D070E618000DB000BDF6
:108F90000090044000B585B002006B4606331A808D
:108FA0000E226A440F2169446B4606331B88180061
:108FB00000F064F80F236B441B789B020E226A4476
:108FC00012789B189B00294A944663441A680F2321
:108FD0006B441B789B020E21694409785B189B0047
:108FE00022498C46634422490A401A600F236B448D
:108FF0001B789B020E226A4412789B189B001B4A26
:10900000944663441A680F236B441B789B020E211D
:10901000694409785B189B0014498C466344A0217D
:1090200009030A431A600F236B441B78002B03D1FA
:109030001E20FFF793FB15E00F236B441B78022BD8
:1090400004D00F236B441B78032B03D11F20FFF7A1
:1090500085FB07E0074B180001F09AFD064B18004E
:1090600001F096FDC04605B000BDC046009004402A
:10907000FFFFF0FF14AC000038AC000084B0029198
:1090800001920E236B44021C1A800E236B441B8832
:109090001B0A9BB2DAB2029B1A700E236B441B8828
:1090A000DAB2019B1A70C04604B07047064A8823A2
:1090B0005B01D35804490C2293431A0088235B01B7
:1090C000CA50C0467047C0460070044030B585B0F5
:1090D00005000C00100019006B4607332A1C1A709B
:1090E0006B460633221C1A7001AB021C1A806B46B9
:1090F00003330A1C1A706B4607331B78012B03D904
:109100006B46073300221A706B4607331B78002B1F
:1091100000D0D4E0D54AD64BD358D4498022D203CC
:109120001343D34A8B50D34B802292001A61D14B08
:10913000802292005A61CF4B802292009A61CD4BDF
:1091400080229200DA61CC4B0022DA70CA4BDB78C5
:10915000DBB2C94A40210B43DBB2D3706B46063306
:109160001B78012B08D1C44BDB78DBB2C24A10213B
:109170000B43DBB2D37008E0BF4BDB78DBB2BE49F8
:10918000802252421343DBB2CB706B4603331B7811
:10919000002B08D1B84BDB78DBB2B74A08218B43F0
:1091A000DBB2D37007E0B44BDB78DBB2B24A082104
:1091B0000B43DBB2D37008AB1B78002B08D1AE4B4E
:1091C000DB78DBB2AC4A04218B43DBB2D37007E01F
:1091D000A94BDB78DBB2A84A04210B43DBB2D37086
:1091E000A54BDB78DBB2A44A02210B43DBB2D37080
:1091F000A14B00229A706B4606331B78012B07D1D6
:109200009D4B9B78DBB29C4A10210B43DBB29370E1
:10921000994B00225A700D236B4400221A700E23C2
:109220006B4400221A7001AB1B8819009348FDF7AC
:10923000C5FD03001A000F236B441A700F236B4403
:109240001B78082B17D80F236B441B78013BDBB22C
:10925000894A1B01DBB2537005E10E236B441A7877
:109260000E236B4401321A700F236B440F226A44A1
:10927000127852081A700F236B441B78112BECD80C
:109280000F236B440F226A441278013A1A700D239F
:109290006B440F226A4412781A70774A0D236B448C
:1092A0001B781B01DBB25370734B5B78DAB27249E7
:1092B0000E236B441B781343DBB24B70D3E06B4A35
:1092C0006B4BD3586949802212041343684A8B5070
:1092D0006B4B802292001A61694B802292005A6186
:1092E000674B802292009A61654B80229200DA617E
:1092F000644B0022DA70634BDB78DBB2614A4021B9
:109300000B43DBB2D3706B4606331B78012B08D1BD
:109310005C4BDB78DBB25B4A10210B43DBB2D370D2
:1093200008E0584BDB78DBB25649802252421343A7
:10933000DBB2CB706B4603331B78002B08D1514B4B
:10934000DB78DBB24F4A08218B43DBB2D37007E0F6
:109350004C4BDB78DBB24B4A08210B43DBB2D370BA
:1093600008AB1B78002B08D1464BDB78DBB2454AB3
:1093700004218B43DBB2D37007E0424BDB78DBB2D6
:10938000404A04210B43DBB2D3703E4BDB78DBB2A7
:109390003C4A02210B43DBB2D3703A4B00229A7055
:1093A0006B4606331B78012B07D1364B9B78DBB21B
:1093B000344A10210B43DBB29370324B00225A70B7
:1093C0000D236B4400221A700E236B4400221A7086
:1093D00001AB1B8819002948FDF7F0FC03001A00B7
:1093E0000F236B441A700F236B441B78082B17D87C
:1093F0000F236B441B78013BDBB21F4A1B01DBB21E
:10940000537030E00E236B441A780E236B44013204
:109410001A700F236B440F226A44127852081A7094
:109420000F236B441B78112BECD80F236B440F22B6
:109430006A441278013A1A700D236B440F226A4471
:1094400012781A700C4A0D236B441B781B01DBB297
:109450005370094B5B78DAB207490E236B441B78D3
:109460001343DBB24B70C04605B030BD0070044002
:109470003410000000B0044000600740C05D0000F0
:1094800000C004400070074084B002006B46073300
:109490001A706B4606330A1C1A706B4607331B782A
:1094A000144A944663441B030293C046029B1B78F4
:1094B000DBB21A0020231340F8D0029B6A46063222
:1094C00012789A71002303930BE0029B1B78DBB2A6
:1094D0001A002023134001D0012307E0039B01332E
:1094E0000393039B044A9342EFD90023180004B06E
:1094F0007047C04676000400EFFF000080B52E4F95
:10950000BD4418213F20FEF7E9FF031E06D02B4A79
:10951000FC231B0218211800FEF784FF0023FFAA7A
:10952000083213608023DA00D023D90101AB180080
:10953000FEF7C0FF224BFFAA0C32944663449A6F99
:10954000FFAB08331B6878331B689A4222D01A207D
:10955000FEF71CFFFFAB08331B6808331B681A00BB
:10956000174BFFA90C318C4663449A60FFAB08335C
:109570001B6878331B681A00114BFFA90C318C460D
:1095800063449A6701AA8023D900D023DB01180025
:10959000FEF748FF0B4BD022D2019A600A4BE02223
:1095A00092011A60094B180001F0F2FAC0468123BB
:1095B000DB009D4480BDC046F8FBFFFF60AC0000AF
:1095C000FCFBFFFF00ED00E0840400207CAC000009
:1095D00000B587B002006B4607331A706B4606333E
:1095E0000A1C1A70224B04936B4607331B785A1ED1
:1095F000204B9200D35803936B4607331B78180017
:1096000000F03CF8031E01D100232DE00023059358
:109610001FE06B4607331B78002B0BD1049B1B7993
:10962000DBB25BB2002B11DA049B6A460632127879
:10963000DA7112E0039B1B79DBB25BB2002B05DA17
:10964000039B6A4606321278DA7106E0059B013305
:109650000593059B084A9342DBD9059B064A934232
:1096600001D9002300E00123180007B000BDC04667
:1096700000A006401CAD0000BAFB000082B0020052
:109680006B4607331A706B4607331B78022B01D9E0
:10969000002300E00123180002B0704700B583B03A
:1096A0002A4A00230093002301210020FFF70EFD2A
:1096B000274B002201211800FEF77EFF254B0022D8
:1096C00001211800FEF778FFC0239B000122012131
:1096D0001800FEF771FF0021002000F003FC1C4B76
:1096E00000211800FEF7E4FF642000F06FFC184B27
:1096F00001211800FEF7DCFF642000F067FC362033
:1097000000F0CAFB002000F06FFBB62000F0C4FBA5
:109710000A2000F069FBA22000F066FB3A2000F06E
:10972000BBFB052000F060FB112000F0B5FBC82357
:109730009B00180000F04AFC074B180000F00EF8E0
:10974000292000F0A9FBC04603B000BD204E000058
:109750000203000001030000FFFF000000B585B018
:1097600002006B4606331A804023FF33EF220021AC
:10977000002000F0CEFB0E236B4400221A801BE079
:1097800003AB00221A800AE06B4606331B881800E0
:1097900000F050FB03AB1A8803AB01321A8003AB15
:1097A0001A88A0235B009A42EED30E236B441A88DA
:1097B0000E236B4401321A800E236B441B88EF2B5F
:1097C000DED9C046C04605B000BD10B582B0040069
:1097D000080011006B460633221C1A8001AB021CE4
:1097E0001A806B4602330A1C1A8001AB1C886B4638
:1097F00006331A8801AB19886B4606331888230094
:1098000000F087FB6B4602331B88180000F012FB48
:10981000C04602B010BD10B584B0040008001100AD
:109820000E236B44221C1A8003AB021C1A800A23ED
:109830006B440A1C1A800E236B441B88013B98B2B0
:1098400003AB1B88013B99B20E236B441B88013389
:109850009AB203AB1B8801339CB20A236B441B886A
:109860000093230000F070FAC04604B010BD30B57C
:1098700085B005000C00100019000E236B442A1C53
:109880001A8003AB221C1A800A236B44021C1A8024
:1098900002AB0A1C1A8003AB1C880A236B441A888B
:1098A00003AB19880E236B44188808AB1B88009300
:1098B000230000F0AFF902AB1C880E236B441A881A
:1098C00003AB19880E236B44188808AB1B880093E0
:1098D000230000F09FF902AB1C880A236B441A880E
:1098E00002AB19880E236B44188808AB1B880093C1
:1098F000230000F08FF902AB1C880A236B441A88FE
:1099000003AB19880A236B44188808AB1B880093A3
:10991000230000F07FF9C04605B030BD30B585B0FA
:1099200005000C00100019006B4606332A1C1A8033
:1099300001AB221C1A806B460233021C1A806B4654
:109940000A1C1A80089B02936B4606331B880F3350
:109950009AB201AB1B880F339CB201AB19886B46DE
:1099600006331888230000F0D4FA0E236B4400223B
:109970001A7031E00F236B4400221A701DE0029B25
:109980001B781A000F236B441B781A411300012225
:10999000134006D06B4602331B88180000F04AFAC9
:1099A00004E06B461B88180000F044FA0F236B4458
:1099B0001A780F236B4401321A700F236B441B7803
:1099C000072BDCD9029B013302930E236B441A78D8
:1099D0000E236B4401321A700E236B441B781F2B2D
:1099E000C8D9C046C04605B030BD000030B589B00A
:1099F00005000C00100019000E236B442A1C1A806D
:109A000003AB221C1A800A236B44021C1A8002AB8F
:109A10000A1C1A801D236B4400221A70EDE072B6F6
:109A20000C9B1B781F2B00D872E00C9B1B787E2BA5
:109A30006ED8764B06931D236B441B789BB2DB00DC
:109A40009AB20E236B441B88D31898B21D236B4423
:109A50001B789BB2DB009AB20E236B441B88D31891
:109A60009BB207339AB203AB1B880F339CB203AB94
:109A70001988230000F04DFA0C9B1B78203B1B013A
:109A80001A00069B9B1806931E236B4400221A7033
:109A900031E01F236B4400221A701DE0069B1B78E7
:109AA0001A001F236B441B781A4113000122134034
:109AB00006D00A236B441B88180000F0BBF904E0B1
:109AC00002AB1B88180000F0B5F91F236B441A780D
:109AD0001F236B4401321A701F236B441B78072B22
:109AE000DCD9069B013306931E236B441A781E2390
:109AF0006B4401321A701E236B441B780F2BC8D99C
:109B00001D236B441A781D236B4401321A7070E0D8
:109B10000C9B1B787E2B6CD91F236B4400221A7080
:109B20005BE017236B440C9A12781A7016236B446F
:109B30000C9A52781A701F236B441A783449130018
:109B40001B019B185B005A5615236B441A701F2388
:109B50006B441A782E4913001B019B185B00CB182D
:109B6000013300229A5605AB1A7017226A44152356
:109B70006B4412781B789A4228D116226A4405ABAE
:109B800012781B789A4221D11D236B441B789BB21B
:109B9000DB009AB20E236B441B88D31898B21F23A4
:109BA0006B441A7813001B019B185B00184A9B1822
:109BB000023302AA15880A226A44148803AA11886B
:109BC00000932B002200FFF7A9FE0BE01F236B443C
:109BD0001A781F236B4401321A701F236B441B78C1
:109BE000092B9ED91D236B441D226A441278013231
:109BF0001A700C9B01330C9362B60C9B1B78002BE4
:109C000000D00CE7C046C04609B030BD24AD00000E
:109C100024B3000030B58DB005000C001000190011
:109C20006B4606332A1C1A8001AB221C1A806B4635
:109C30000233021C1A806B460A1C1A8000230A9306
:109C4000002309936B4602331A886B4606331B8840
:109C5000D31A08936B461A8801AB1B88D31A079353
:109C60006B4606331B88039301AB1B880293089B4A
:109C7000002B02DD012305930BE0089B002B02D192
:109C80000023059305E001235B420593089B5B429B
:109C90000893079B002B02DD012304930BE0079B35
:109CA000002B02D10023049305E001235B420493BF
:109CB000079B5B420793089A079B9A4202DD089B29
:109CC000069301E0079B06932E236B4400221A8023
:109CD0002FE0039B98B2029B99B210AB1B881A002D
:109CE000FFF773FD0A9A089BD3180A93099A079BFA
:109CF000D31809930A9A069B9A4207DD0A9A069B93
:109D0000D31A0A93039A059BD3180393099A069BC7
:109D10009A4207DD099A069BD31A0993029A049B7B
:109D2000D31802932E236B441A882E236B440132DE
:109D30001A802E236B441A88069B01339A42C8DD91
:109D4000C046C0460DB030BD30B585B005000C0032
:109D5000100019006B4606332A1C1A8001AB221C26
:109D60001A806B460233021C1A806B460A1C1A804A
:109D70006B461C886B4602331A8801AB19886B4608
:109D800006331888230000F0C4F80E236B4401AAA0
:109D900012881A801DE003AB6A46063212881A80C8
:109DA00009E008AB1B88180000F044F803AB1A88E0
:109DB00003AB01321A8003AA6B46023312881B8858
:109DC0009A42EED90E236B441A880E236B4401325B
:109DD0001A800E226A446B4612881B889A42DAD98E
:109DE000C046C04605B030BD00B583B002006B462A
:109DF00007331A700E4B01211800FEF759FCC023DF
:109E00009B00002201211800FEF7D6FBC0466B46DE
:109E100007331B7819000020FFF736FBC0239B0097
:109E2000012201211800FEF7C7FBC04603B000BDA8
:109E30000103000000B583B002006B4606331A80B0
:109E4000144B01211800FEF733FCC0239B000022B5
:109E500001211800FEF7B0FBC0466B4606331B8895
:109E60001B0A9BB2DBB219000020FFF70DFBC046B6
:109E70006B4606331B88DBB219000020FFF704FB9A
:109E8000C0239B00012201211800FEF795FBC0466C
:109E900003B000BD0103000000B583B002006B46B3
:109EA00007331A700E4B00211800FEF701FCC02387
:109EB0009B00002201211800FEF77EFBC0466B4686
:109EC00007331B7819000020FFF7DEFAC0239B0040
:109ED000012201211800FEF76FFBC04603B000BD50
:109EE0000103000000B583B002006B4607331A700F
:109EF00001AB0A1C1A806B4607331B781800FFF76A
:109F0000CBFF01AB1B881800FFF794FFC04603B0DE
:109F100000BD30B583B005000C00100019006B4681
:109F200006332A1C1A8001AB221C1A806B460233AE
:109F3000021C1A806B460A1C1A802A20FFF7ACFF0D
:109F40006B4606331B881B0A9BB2DBB21800FFF777
:109F50004BFF6B4606331B88DBB21800FFF744FF4C
:109F60006B4602331B881B0A9BB2DBB21800FFF75B
:109F70003BFF6B4602331B88DBB21800FFF734FF50
:109F80002B20FFF789FF01AB1B881B0A9BB2DBB2BA
:109F90001800FFF729FF01AB1B88DBB21800FFF7A1
:109FA00023FF6B461B881B0A9BB2DBB21800FFF72E
:109FB0001BFF6B461B88DBB21800FFF715FF2C2038
:109FC000FFF76AFFC04603B030BD000084B00190C7
:109FD0000023039303E0C046039B01330393019BDB
:109FE000044A5343039A9A42F5D3C046C04604B08C
:109FF0007047C0467017000000B583B00B4B0C4A89
:10A0000019001000FEF714FE03000193019A094B9A
:10A010001100180000F0BCFD019A044980239B0048
:10A020001800FEF7C9FCC04603B000BD1C040020A8
:10A0300001020000A8AC000000B583B002006B462E
:10A0400007331A706B4607331B7819000220FFF79D
:10A05000BFFAC04603B000BD00B585B003900291C1
:10A060000192019B1B68012B02D0022B07D011E04B
:10A07000019B5B68039A52B2100098470AE0019B6B
:10A080009B68039A52B21A70019B9B685A1C019BF1
:10A090009A60C046029B1B685A1C029B1A60C0460D
:10A0A00005B000BD30B5A7B003900291019217AB87
:10A0B000180014231A00002100F091FD04AB1800D1
:10A0C0004C231A00002100F08AFD00232593002272
:10A0D000002320922193039B1A685B6810001900EB
:10A0E000FCF7B6FF03002593039B1C685D68259869
:10A0F000FEF708F802000B0020002900FDF73AFCEB
:10A1000002000B001E921F93019B002B28D1039B82
:10A110001C685D682598FDF7F5FF02000B00200024
:10A120002900FDF727FC02000B0010001900774AF8
:10A13000774BFDF7B3F902000B0010001900FCF794
:10A14000A5FF02000B002092219316E00022714B24
:10A150001E981F99FDF7A2F902000B001E921F9393
:10A16000019B5A1E0192002BF0D11E981F99FCF7FB
:10A170008DFF02000B0020922193039B1C685D68F9
:10A180002598FDF7BFFF02000B0020002900FDF716
:10A19000F1FB02000B001C921D93002322930CE0A4
:10A1A00000225C4B1C981D99FDF778F902000B000A
:10A1B0001C921D93229B013322930022564B1C9824
:10A1C0001D99FCF7FDFE031EEAD1229B013B229361
:10A1D00000232493259B002B07D1249B5A1C2492F7
:10A1E000029AD31830221A702FE00023239313E031
:10A1F000239C631C2393259B0A211800FCF7DAFD9E
:10A200000B00190017ABA200D150259B0A211800A2
:10A21000FCF74AFD03002593259B002BE8D111E0B4
:10A22000239B5A1E17AB9200D358DBB23033D9B2FE
:10A23000249B5A1C2492029AD3184AB21A70239B68
:10A24000013B2393239B002BEAD1249B5A1C24928D
:10A25000029AD3182E221A70209B219A134307D1F9
:10A26000249B5A1C2492029AD31830221A7043E07D
:10A270000023239318E0209821990A220023FCF759
:10A28000C7FE10001900239B5A1C2392010004AA48
:10A290009B009950209821990A220023FCF7B8FED0
:10A2A00002000B0020922193209B219A1343E2D1BC
:10A2B00009E0239B5A1C239204AA9B000021995079
:10A2C000229B013B2293229B002BF2D111E0239B86
:10A2D0005A1E04AB9200D358DBB23033D9B2249B60
:10A2E0005A1C2492029AD3184AB21A70239B013B3B
:10A2F0002393239B002BEAD1029A249BD31800229C
:10A300001A70249B180027B030BDC04600A0D88525
:10A3100057347643000024400000F03F00B58DB074
:10A32000039002910192009300230793039B0693ED
:10A33000069B5A1C069200221A70019B002B32D0F9
:10A34000029B1B680B930B9B002B28D1069B302292
:10A350001A70079B0133079358E000990B98FCF79C
:10A360002DFD03000493049B009A53430B9AD31AC8
:10A370000A930A9B002B04DA0A9B3022D31A0A9311
:10A3800002E00A9B30330A93049B0B93069B5A1CF2
:10A3900006920A9A52B21A70079B013307930B9BDD
:10A3A000002BDAD132E0029B1B680993099B002B3A
:10A3B00028D1069B30221A70079B0133079325E0B2
:10A3C000009B19000998FCF76FFC03000593009BA4
:10A3D000059A5343099AD31A0893089B092B03D86B
:10A3E000089B3033089302E0089B37330893059BA2
:10A3F0000993069B5A1C0692089A52B21A70079B40
:10A4000001330793099B002BDAD1C046079B180044
:10A410000DB000BD00B587B003900291019200938A
:10A42000039B059308E0009A019B19003020FFF779
:10A4300013FE059B01330593059A029B9A42F2DBBA
:10A44000C046C04607B000BD00B587B0039002917A
:10A4500001920093039B059308E0009A019B190069
:10A460002020FFF7F9FD059B01330593059A029B18
:10A470009A42F2DBC046C04607B000BD30B5A3B07B
:10A480000390029101920AAB30221A6004331D221C
:10A490000021180000F0A3FB0023099300231B9365
:10A4A00001231A93029B219300F066FB159B252B39
:10A4B00017D0159B0A2B07D0039A09A9159B1800E2
:10A4C000FFF7CAFD00F055FB039A09AB19000D20F8
:10A4D000FFF7C2FD039A09AB19000A20FFF7BCFD84
:10A4E00047E300231D9300231E932CE0219B01339F
:10A4F0002193219B1B785BB2203B102B1DD89A0027
:10A50000CA4BD3181B689F461D9B012213431D9302
:10A5100019E01D9B022213431D9314E01D9B04228E
:10A5200013431D930FE01D9B082213431D930AE064
:10A530001D9B102213431D9305E0219B013B21939A
:10A5400001231E93C0461E9B002BCFD000231C93DB
:10A5500000231E931BE0219B01332193219B1B7839
:10A560005BB21593159B303B092B0AD81C9A13003C
:10A570009B009B185B001A00159B303BD3181C9363
:10A5800005E0219B013B219301231E93C0461E9BA6
:10A59000002BE0D0219B01332193219B1B785BB2E0
:10A5A0002E2B24D10023199300231E931BE0219B03
:10A5B00001332193219B1B785BB21593159B303B94
:10A5C000092B0AD8199A13009B009B185B001A00EC
:10A5D000159B303BD318199305E0219B013B219338
:10A5E00001231E93C0461E9B002BE0D006E0219B5A
:10A5F000013B219300231A9300231993219B0133DC
:10A600002193219B1B785BB26C2B05D00EDC4C2B6D
:10A6100007D0682B0AD10DE01B9B012213431B932B
:10A6200008E01B9B022213431B9303E0219B013B89
:10A630002193C046219B01332193219B1B785BB260
:10A640001593159B583B202B00D986E29A00784B36
:10A65000D3181B689F46019B04330193019B043B65
:10A660001B68089308A90AA80A230122FFF756FECF
:10A6700003001F930AAA1F9BD3182093089B002B4B
:10A6800005DA2D2318931F9B01331F9315E01D9BA3
:10A690000222134005D02B2318931F9B01331F93D5
:10A6A0000BE01D9B0422134005D0202318931F9B11
:10A6B00001331F9301E000231893002317931D9B80
:10A6C0000822134013D0189B002B05D0039A09A928
:10A6D000189B1800FFF7C0FC01231793039B09AADE
:10A6E0001C991F98FFF796FE1C9B1F9314E01D9B5F
:10A6F0000122134010D1039B09AA1C991F98FFF750
:10A70000A3FE189B002B05D0039A09A9189B1800DB
:10A71000FFF7A2FC01231793179B002B00D090E1B9
:10A72000189B002B00D18CE1039A09A9189B1800F3
:10A73000FFF792FC85E1019B04330193019B0833F1
:10A740000193019B083B1A685B6806920793069881
:10A75000079900220023FCF733FC031E0FD02D23A2
:10A760001893069A079B11000C0080210906594096
:10A770000D00069407951F9B01331F9315E01D9B49
:10A780000222134005D02B2318931F9B01331F93E4
:10A790000BE01D9B0422134005D0202318931F9B20
:10A7A00001331F9301E000231893002317931A9B92
:10A7B000002B0AD0199A0AA906AB1800FFF772FC01
:10A7C00003001F930AAB209317E01B9B002B0AD1B9
:10A7D0000AA906AB08221800FFF764FC03001F93C8
:10A7E0000AAB209309E0199A0AA906AB1800FFF7F3
:10A7F00059FC03001F930AAB20931D9B08221340B2
:10A8000018D0189B002B05D0039A09A9189B180093
:10A81000FFF722FC01231793039B09AA1C991F9899
:10A82000FFF7F8FD1C9B1F9319E0C04678B40000A9
:10A83000BCB400001D9B0122134010D1039B09AA48
:10A840001C991F98FFF700FE189B002B05D0039A58
:10A8500009A9189B1800FFF7FFFB01231793179B0B
:10A86000002B14D1189B002B11D0039A09A9189B17
:10A870001800FFF7F1FB0AE0209B5A1C20921B787E
:10A880005BB21800039A09AB1900FFF7E5FB209BA8
:10A890001B785BB2002BEFD11D9B0122134000D12E
:10A8A00062E1039B09AA1C991F98FFF7CDFD5BE1AC
:10A8B000019B04330193019B043B1B68059305A98D
:10A8C0000AA810230022FFF729FD03001F930AAAFC
:10A8D0001F9BD3182093002317931D9B082213401E
:10A8E0001AD01D9B102213400DD0039A09AB1900FA
:10A8F0003020FFF7B1FB039A09AB19007820FFF76E
:10A90000ABFB01231793039B09AA1C991F98FFF720
:10A9100081FD1C9B1F9322E01D9B012213401ED131
:10A920001D9B1022134002D01F9B02331F93039BD9
:10A9300009AA1C991F98FFF787FD1D9B1022134041
:10A940000DD0039A09AB19003020FFF785FB039A5D
:10A9500009AB19007820FFF77FFB012317931D9B9C
:10A96000102213406FD0179B002B6CD1039A09ABB8
:10A9700019003020FFF770FB039A09AB190078200B
:10A98000FFF76AFB1F9B02331F935CE0019B0433BC
:10A990000193019B043B1B68059305A90AA80823A2
:10A9A0000022FFF7BBFC03001F932EE0019B043342
:10A9B0000193019B043B1B68059305A90AA8022388
:10A9C0000022FFF7ABFC03001F931EE0019B043342
:10A9D0000193019B043B1B68059305A90AA810235A
:10A9E0000022FFF79BFC03001F930EE0019B043342
:10A9F0000193019B043B1B68059305A90AA80A2340
:10AA00000022FFF78BFC03001F930AAA1F9BD31899
:10AA100020931D9B0822134008D0039B09AA1C9970
:10AA20001F98FFF7F7FC1C9B1F931BE01D9B012247
:10AA300013400AD1039B09AA1C991F98FFF704FD34
:10AA400010E0C0460EE0C0460CE0C0460AE0209B85
:10AA50005A1E20921B785BB21800039A09AB1900AA
:10AA6000FFF7FAFA209B1B785BB2002BEFD11D9BFE
:10AA70000122134000D179E0039B09AA1C991F9879
:10AA8000FFF7E2FC72E0019B04330193019B043B5E
:10AA90001B685BB21393039A09A9139B1800FFF775
:10AAA000DBFA66E0019B04330193019B043B1B68C6
:10AAB0001693169B002B5BD0169B1800FDF772FBBC
:10AAC00003001F931D9B0122134005D1039B09AA7C
:10AAD0001C991F98FFF7B8FC199B002B22D010E09F
:10AAE000199B002B0DDD199B013B1993169B5A1CDA
:10AAF00016921B785BB21800039A09AB1900FFF796
:10AB0000ABFA169B1B785BB2002BE9D10FE0169BCA
:10AB10005A1C16921B785BB21800039A09AB1900F5
:10AB2000FFF79AFA169B1B785BB2002BEFD11D9BA7
:10AB3000012213401CD0039B09AA1C991F98FFF700
:10AB400083FC15E0019B04330193019B043B1B68CC
:10AB50001493099A149B1A600BE0039A09A9159B98
:10AB60001800FFF779FA04E0C04602E0C04600E0B2
:10AB7000C046219B01332193219B1B785BB2159327
:10AB8000159B002B00D091E4099B180023B030BD29
:10AB90000FB400B587B001AB01221A6001AB0A4ABD
:10ABA0005A6009AB05930899059A01AB1800FFF7A5
:10ABB00065FC0300049300230593049B180007B071
:10ABC00008BC04B01847C04639A00000002310B5E7
:10ABD0009A4200D110BDCC5CC4540133F8E70300A5
:10ABE0008218934200D1704719700133F9E70000D1
:10ABF00048656C6C6F2C20776F726C6400000000ED
:10AC0000D5C5C1FACDFE0000C7EFD2B6D2C0BDA3F4
:10AC1000000000004661696C20746F20696E6974E1
:10AC200020706F727420696E746572757074A3A160
:10AC3000A3A1A3A10A000000506C65617365207395
:10AC4000656C6563742061726F756E6420506F72FD
:10AC5000742041206F722043206F7220440A00004C
:10AC60003031323334353637383941424344454642
:10AC70003230323030373136000000002020A1BEA3
:10AC800055736572CCE1CABEA1BFA3BABDABBDF816
:10AC9000C8EB55736572B5C46D61696E2829D6B469
:10ACA000D0D02E2E2E0D0A00674C656E74683A20A7
:10ACB00025640A00307600005E7500005E750000B5
:10ACC0005A7500006475000064750000507800003B
:10ACD0005A7500006475000050780000647500002B
:10ACE0005A750000EE770000EE770000EE77000066
:10ACF000BA7800000090044000A0044000B0044076
:10AD000000C0044000D0044000F00F4040F00F406D
:10AD100080F00F40C0F00F4000F10F4000B006403F
:10AD200000C006400000000000000000000000001D
:10AD3000000000000000183C3C3C181818001818CF
:10AD400000000000006666662400000000000000AD
:10AD50000000000000000036367F3636367F36367B
:10AD60000000000018183E6343033E6061633E1814
:10AD70001800000000000000436330180C066361F7
:10AD80000000000000001C36361C6E3B3333336E6F
:10AD900000000000000C0C0C060000000000000089
:10ADA00000000000000030180C0C0C0C0C0C1830CB
:10ADB0000000000000000C18303030303030180C2B
:10ADC000000000000000000000663CFF3C66000040
:10ADD00000000000000000000018187E1818000095
:10ADE000000000000000000000000000001818181B
:10ADF0000C000000000000000000007F00000000C8
:10AE00000000000000000000000000000000181812
:10AE10000000000000000000406030180C06030134
:10AE20000000000000003E6363736B6B6763633E6A
:10AE3000000000000000181C1E1818181818187EB2
:10AE40000000000000003E636030180C0603637FC2
:10AE50000000000000003E6360603C606060633E94
:10AE600000000000000030383C36337F303030784E
:10AE70000000000000007F0303033F706060633E3A
:10AE80000000000000001C0603033F636363633E91
:10AE90000000000000007F63606030180C0C0C0C98
:10AEA0000000000000003E6363633E636363633E33
:10AEB0000000000000003E6363637E606060301E3F
:10AEC0000000000000000000181800000018180022
:10AED0000000000000000000181800000018180C06
:10AEE000000000000000006030180C060C183060F4
:10AEF000000000000000000000007F00007F000054
:10AF000000000000000000060C18306030180C062D
:10AF10000000000000003E63633018181800181885
:10AF2000000000000000003E63637B7B7B3B033E30
:10AF3000000000000000081C3663637F63636363E6
:10AF40000000000000003F6666663E666666663F7B
:10AF50000000000000003C66430303030343663C1B
:10AF60000000000000001F36666666666666361FD3
:10AF70000000000000007F6646161E160646667F2B
:10AF80000000000000007F6646161E160606060F2B
:10AF90000000000000003C664303037B6363665CC3
:10AFA000000000000000636363637F6363636363A7
:10AFB0000000000000003C18181818181818183C59
:10AFC0000000000000007830303030303333331E62
:10AFD000000000000000676636361E1E3666666793
:10AFE0000000000000000F06060606060646667F03
:10AFF00000000000000063777F7F6B63636363631F
:10B0000000000000000063676F7F7B73636363630E
:10B010000000000000001C36636363636363361C3A
:10B020000000000000003F6666663E060606060F4A
:10B030000000000000003E6363636363636B7B3E5C
:10B040003070000000003F6666663E3666666667E2
:10B050000000000000003E6363061C306063633E36
:10B060000000000000007E7E5A1818181818183CBE
:10B070000000000000006363636363636363633E17
:10B0800000000000000063636363636363361C08B1
:10B0900000000000000063636363636B6B7F363600
:10B0A000000000000000636336361C1C3636636304
:10B0B000000000000000666666663C181818183C20
:10B0C0000000000000007F636130180C0643637FBE
:10B0D0000000000000003C0C0C0C0C0C0C0C0C3C98
:10B0E000000000000000000103070E1C38706040E3
:10B0F0000000000000003C30303030303030303C58
:10B1000000000000081C3663000000000000000082
:10B11000000000000000000000000000000000002F
:10B1200000FF00000C0C18000000000000000000F0
:10B130000000000000000000001E303E3333336E7C
:10B140000000000000000706061E36666666663BC5
:10B150000000000000000000003E63030303633EA4
:10B160000000000000003830303C36333333336E9B
:10B170000000000000000000003E637F0303633E08
:10B180000000000000001C3626060F060606060F0B
:10B190000000000000000000006E33333333333E04
:10B1A00030331E000000070606366E666666666768
:10B1B0000000000000001818001C18181818183C8F
:10B1C000000000000000606000706060606060600F
:10B1D00066663C00000007060666361E1E36666779
:10B1E0000000000000001C18181818181818183C47
:10B1F000000000000000000000377F6B6B6B6B6B82
:10B200000000000000000000003B6666666666669F
:10B210000000000000000000003E63636363633EC3
:10B220000000000000000000003B66666666663EA7
:10B2300006060F0000000000006E33333333333E48
:10B240003030780000000000003B6E460606060F16
:10B250000000000000000000003E63061C30633E5A
:10B26000000000000000080C0C3F0C0C0C0C6C38AB
:10B270000000000000000000003333333333336E2E
:10B2800000000000000000000066666666663C186C
:10B290000000000000000000006363636B6B7F36FA
:10B2A00000000000000000000063361C1C1C366318
:10B2B0000000000000000000006363636363637EBE
:10B2C00060301F0000000000007F33180C06637F11
:10B2D000000000000000701818180E1818181870D8
:10B2E0000000000000001818181800181818181886
:10B2F0000000000000000E18181870181818180E1A
:10B300000000000000006E3B000000000000000094
:10B310000000000000000000081C366363637F002B
:10B3200000000000BDF080008000400120021004F9
:10B33000080AF47783208000F80F800088089004C2
:10B34000A012FE3F0000BAF920022022FF7F200257
:10B35000103E9022FE23103E5022FC22443E442206
:10B3600044227C2244298010C2AB10041024FF7FA9
:10B3700010048010FC3F04100410FC1F0410040093
:10B3800004000400020002000100D5C580009F10E7
:10B390009010900890049E028200E27F82029E0438
:10B3A00090049008901090228A418400C1FA2004F1
:10B3B000200820082000FF7F2001201120112009F3
:10B3C00010051003084188414441227E0100CDFE52
:10B3D000001400240004FC7F04040404FC2744241B
:10B3E0004424FC1524151409A4484254A2621941AE
:10B3F000C7EF100238020F0208028822BF2288120B
:10B400004C0A1C022A052A050909880888104820C8
:10B410002840D2B6000400041E04120412041204D0
:10B42000D27F1204120412041E0412040004000449
:10B4300000040004D2C0100110021002E87F0801CD
:10B440000C018C028A22C912A80C98048808881062
:10B45000882288418800BDA310201020282048247D
:10B46000842402257D2400248824902492244424CA
:10B470004420E0211E2804101CA500003AA500006D
:10B480003AA5000030A500003AA500003AA500004A
:10B490003AA500003AA500003AA500003AA5000030
:10B4A0003AA5000012A500003AA5000008A500007A
:10B4B0003AA500003AA5000026A50000B0A80000AB
:10B4C0005AAB00005AAB00005AAB00005AAB000068
:10B4D0005AAB00005AAB00005AAB00005AAB000058
:10B4E0005AAB0000ACA9000086AA000056A60000D6
:10B4F0005AAB000036A700005AAB00005AAB000060
:10B5000056A600005AAB00005AAB00005AAB000030
:10B510005AAB000044AB00008CA90000CCA900008D
:10B520005AAB00005AAB0000A4AA00005AAB0000BE
:10B53000ECA900005AAB00005AAB0000B0A8000014
:10B54000F8B5C046F8BC08BC9E467047F8B5C04682
:08B55000F8BC08BC9E467047E0
:08B5580070BBFF7F0100000041
:04B56000396C000042
:04B56400116C000066
:0400000300006C5934
:00000001FF
